{
  "_format": "hh-sol-artifact-1",
  "contractName": "SuccessBondingCurve",
  "sourceName": "contracts/SuccessCurve.sol",
  "abi": [
    {
      "inputs": [
        {
          "internalType": "address",
          "name": "_rewardToken",
          "type": "address"
        }
      ],
      "stateMutability": "nonpayable",
      "type": "constructor"
    },
    {
      "anonymous": false,
      "inputs": [
        {
          "indexed": false,
          "internalType": "uint256",
          "name": "newProgress",
          "type": "uint256"
        },
        {
          "indexed": false,
          "internalType": "uint256",
          "name": "correlationScore",
          "type": "uint256"
        }
      ],
      "name": "BondingCurveUpdated",
      "type": "event"
    },
    {
      "inputs": [],
      "name": "SCALE_FACTOR",
      "outputs": [
        {
          "internalType": "uint256",
          "name": "",
          "type": "uint256"
        }
      ],
      "stateMutability": "view",
      "type": "function"
    },
    {
      "inputs": [],
      "name": "bondingCurveProgress",
      "outputs": [
        {
          "internalType": "uint256",
          "name": "",
          "type": "uint256"
        }
      ],
      "stateMutability": "view",
      "type": "function"
    },
    {
      "inputs": [
        {
          "internalType": "uint256",
          "name": "correlationScore",
          "type": "uint256"
        }
      ],
      "name": "checkEligibility",
      "outputs": [],
      "stateMutability": "nonpayable",
      "type": "function"
    },
    {
      "inputs": [],
      "name": "claimDevReward",
      "outputs": [],
      "stateMutability": "nonpayable",
      "type": "function"
    },
    {
      "inputs": [
        {
          "internalType": "address",
          "name": "",
          "type": "address"
        }
      ],
      "name": "claimed",
      "outputs": [
        {
          "internalType": "bool",
          "name": "",
          "type": "bool"
        }
      ],
      "stateMutability": "view",
      "type": "function"
    },
    {
      "inputs": [],
      "name": "contributionCount",
      "outputs": [
        {
          "internalType": "uint256",
          "name": "",
          "type": "uint256"
        }
      ],
      "stateMutability": "view",
      "type": "function"
    },
    {
      "inputs": [
        {
          "internalType": "address",
          "name": "",
          "type": "address"
        }
      ],
      "name": "contributions",
      "outputs": [
        {
          "internalType": "uint256",
          "name": "",
          "type": "uint256"
        }
      ],
      "stateMutability": "view",
      "type": "function"
    },
    {
      "inputs": [],
      "name": "getBondingCurveProgress",
      "outputs": [
        {
          "internalType": "uint256",
          "name": "",
          "type": "uint256"
        }
      ],
      "stateMutability": "view",
      "type": "function"
    },
    {
      "inputs": [
        {
          "internalType": "address",
          "name": "contributor",
          "type": "address"
        }
      ],
      "name": "getContribution",
      "outputs": [
        {
          "internalType": "uint256",
          "name": "",
          "type": "uint256"
        }
      ],
      "stateMutability": "view",
      "type": "function"
    },
    {
      "inputs": [],
      "name": "isComplete",
      "outputs": [
        {
          "internalType": "bool",
          "name": "",
          "type": "bool"
        }
      ],
      "stateMutability": "view",
      "type": "function"
    },
    {
      "inputs": [],
      "name": "owner",
      "outputs": [
        {
          "internalType": "address",
          "name": "",
          "type": "address"
        }
      ],
      "stateMutability": "view",
      "type": "function"
    },
    {
      "inputs": [],
      "name": "rewardToken",
      "outputs": [
        {
          "internalType": "contract IToken",
          "name": "",
          "type": "address"
        }
      ],
      "stateMutability": "view",
      "type": "function"
    },
    {
      "inputs": [
        {
          "internalType": "uint256",
          "name": "correlationScore",
          "type": "uint256"
        }
      ],
      "name": "updateBondingCurve",
      "outputs": [],
      "stateMutability": "nonpayable",
      "type": "function"
    },
    {
      "inputs": [],
      "name": "withdraw",
      "outputs": [],
      "stateMutability": "nonpayable",
      "type": "function"
    }
  ],
  "bytecode": "0x608060405234801561001057600080fd5b5060405161113938038061113983398181016040528101906100329190610147565b336000806101000a81548173ffffffffffffffffffffffffffffffffffffffff021916908373ffffffffffffffffffffffffffffffffffffffff16021790555060006001819055506000600260006101000a81548160ff021916908315150217905550600060048190555080600560006101000a81548173ffffffffffffffffffffffffffffffffffffffff021916908373ffffffffffffffffffffffffffffffffffffffff16021790555050610174565b600080fd5b600073ffffffffffffffffffffffffffffffffffffffff82169050919050565b6000610114826100e9565b9050919050565b61012481610109565b811461012f57600080fd5b50565b6000815190506101418161011b565b92915050565b60006020828403121561015d5761015c6100e4565b5b600061016b84828501610132565b91505092915050565b610fb6806101836000396000f3fe608060405234801561001057600080fd5b50600436106100ea5760003560e01c8063897802dc1161008c578063c884ef8311610066578063c884ef8314610227578063ce4b5bbe14610257578063d95cc08514610275578063f7c618c11461027f576100ea565b8063897802dc146101cd5780638da5cb5b146101eb578063b2fa1c9e14610209576100ea565b806342e94c90116100c857806342e94c90146101455780635b18056b1461017557806367558d46146101935780637b39fed6146101b1576100ea565b806321eff7fc146100ef578063335de0fc1461011f5780633ccfd60b1461013b575b600080fd5b610109600480360381019061010491906109f1565b61029d565b6040516101169190610a37565b60405180910390f35b61013960048036038101906101349190610a7e565b6102e6565b005b6101436103c1565b005b61015f600480360381019061015a91906109f1565b610479565b60405161016c9190610a37565b60405180910390f35b61017d610491565b60405161018a9190610a37565b60405180910390f35b61019b610497565b6040516101a89190610a37565b60405180910390f35b6101cb60048036038101906101c69190610a7e565b6104a1565b005b6101d56105b6565b6040516101e29190610a37565b60405180910390f35b6101f36105bc565b6040516102009190610aba565b60405180910390f35b6102116105e0565b60405161021e9190610af0565b60405180910390f35b610241600480360381019061023c91906109f1565b6105f3565b60405161024e9190610af0565b60405180910390f35b61025f610613565b60405161026c9190610a37565b60405180910390f35b61027d610618565b005b610287610968565b6040516102949190610b6a565b60405180910390f35b6000600360008373ffffffffffffffffffffffffffffffffffffffff1673ffffffffffffffffffffffffffffffffffffffff168152602001908152602001600020549050919050565b60646001541061034b576001600260006101000a81548160ff0219169083151502179055507fd4de06ad89a301c9f346b56e6bec71f5866b2c56f30da88147a5e4d0c62fa68f6001548260405161033e929190610b85565b60405180910390a16103be565b600081905080600160008282546103629190610bdd565b925050819055507fd4de06ad89a301c9f346b56e6bec71f5866b2c56f30da88147a5e4d0c62fa68f6001548360405161039c929190610b85565b60405180910390a1600460008154809291906103b790610c11565b9190505550505b50565b600260009054906101000a900460ff16610410576040517f08c379a000000000000000000000000000000000000000000000000000000000815260040161040790610cb6565b60405180910390fd5b60008054906101000a900473ffffffffffffffffffffffffffffffffffffffff1673ffffffffffffffffffffffffffffffffffffffff166108fc479081150290604051600060405180830381858888f19350505050158015610476573d6000803e3d6000fd5b50565b60036020528060005260406000206000915090505481565b60045481565b6000600154905090565b60648111156104e5576040517f08c379a00000000000000000000000000000000000000000000000000000000081526004016104dc90610d22565b60405180910390fd5b600260009054906101000a900460ff166105b35760288111156105b2573073ffffffffffffffffffffffffffffffffffffffff1663335de0fc826040518263ffffffff1660e01b815260040161053b9190610a37565b600060405180830381600087803b15801561055557600080fd5b505af1158015610569573d6000803e3d6000fd5b5050505080600360003373ffffffffffffffffffffffffffffffffffffffff1673ffffffffffffffffffffffffffffffffffffffff168152602001908152602001600020819055505b5b50565b60015481565b60008054906101000a900473ffffffffffffffffffffffffffffffffffffffff1681565b600260009054906101000a900460ff1681565b60066020528060005260406000206000915054906101000a900460ff1681565b606481565b600260009054906101000a900460ff16610667576040517f08c379a000000000000000000000000000000000000000000000000000000000815260040161065e90610cb6565b60405180910390fd5b6000600360003373ffffffffffffffffffffffffffffffffffffffff1673ffffffffffffffffffffffffffffffffffffffff16815260200190815260200160002054116106e9576040517f08c379a00000000000000000000000000000000000000000000000000000000081526004016106e090610d8e565b60405180910390fd5b600660003373ffffffffffffffffffffffffffffffffffffffff1673ffffffffffffffffffffffffffffffffffffffff16815260200190815260200160002060009054906101000a900460ff1615610776576040517f08c379a000000000000000000000000000000000000000000000000000000000815260040161076d90610dfa565b60405180910390fd5b60006064600560009054906101000a900473ffffffffffffffffffffffffffffffffffffffff1673ffffffffffffffffffffffffffffffffffffffff166370a08231306040518263ffffffff1660e01b81526004016107d59190610aba565b602060405180830381865afa1580156107f2573d6000803e3d6000fd5b505050506040513d601f19601f820116820180604052508101906108169190610e2f565b600360003373ffffffffffffffffffffffffffffffffffffffff1673ffffffffffffffffffffffffffffffffffffffff168152602001908152602001600020546108609190610e5c565b61086a9190610ecd565b9050600560009054906101000a900473ffffffffffffffffffffffffffffffffffffffff1673ffffffffffffffffffffffffffffffffffffffff1663a9059cbb33836040518363ffffffff1660e01b81526004016108c9929190610efe565b6020604051808303816000875af11580156108e8573d6000803e3d6000fd5b505050506040513d601f19601f8201168201806040525081019061090c9190610f53565b506001600660003373ffffffffffffffffffffffffffffffffffffffff1673ffffffffffffffffffffffffffffffffffffffff16815260200190815260200160002060006101000a81548160ff02191690831515021790555050565b600560009054906101000a900473ffffffffffffffffffffffffffffffffffffffff1681565b600080fd5b600073ffffffffffffffffffffffffffffffffffffffff82169050919050565b60006109be82610993565b9050919050565b6109ce816109b3565b81146109d957600080fd5b50565b6000813590506109eb816109c5565b92915050565b600060208284031215610a0757610a0661098e565b5b6000610a15848285016109dc565b91505092915050565b6000819050919050565b610a3181610a1e565b82525050565b6000602082019050610a4c6000830184610a28565b92915050565b610a5b81610a1e565b8114610a6657600080fd5b50565b600081359050610a7881610a52565b92915050565b600060208284031215610a9457610a9361098e565b5b6000610aa284828501610a69565b91505092915050565b610ab4816109b3565b82525050565b6000602082019050610acf6000830184610aab565b92915050565b60008115159050919050565b610aea81610ad5565b82525050565b6000602082019050610b056000830184610ae1565b92915050565b6000819050919050565b6000610b30610b2b610b2684610993565b610b0b565b610993565b9050919050565b6000610b4282610b15565b9050919050565b6000610b5482610b37565b9050919050565b610b6481610b49565b82525050565b6000602082019050610b7f6000830184610b5b565b92915050565b6000604082019050610b9a6000830185610a28565b610ba76020830184610a28565b9392505050565b7f4e487b7100000000000000000000000000000000000000000000000000000000600052601160045260246000fd5b6000610be882610a1e565b9150610bf383610a1e565b9250828201905080821115610c0b57610c0a610bae565b5b92915050565b6000610c1c82610a1e565b91507fffffffffffffffffffffffffffffffffffffffffffffffffffffffffffffffff8203610c4e57610c4d610bae565b5b600182019050919050565b600082825260208201905092915050565b7f426f6e64696e67206375727665206973206e6f7420636f6d706c657465000000600082015250565b6000610ca0601d83610c59565b9150610cab82610c6a565b602082019050919050565b60006020820190508181036000830152610ccf81610c93565b9050919050565b7f496e76616c69642073636f726500000000000000000000000000000000000000600082015250565b6000610d0c600d83610c59565b9150610d1782610cd6565b602082019050919050565b60006020820190508181036000830152610d3b81610cff565b9050919050565b7f4e6f20636f6e747269627574696f6e0000000000000000000000000000000000600082015250565b6000610d78600f83610c59565b9150610d8382610d42565b602082019050919050565b60006020820190508181036000830152610da781610d6b565b9050919050565b7f416c726561647920636c61696d65640000000000000000000000000000000000600082015250565b6000610de4600f83610c59565b9150610def82610dae565b602082019050919050565b60006020820190508181036000830152610e1381610dd7565b9050919050565b600081519050610e2981610a52565b92915050565b600060208284031215610e4557610e4461098e565b5b6000610e5384828501610e1a565b91505092915050565b6000610e6782610a1e565b9150610e7283610a1e565b9250828202610e8081610a1e565b91508282048414831517610e9757610e96610bae565b5b5092915050565b7f4e487b7100000000000000000000000000000000000000000000000000000000600052601260045260246000fd5b6000610ed882610a1e565b9150610ee383610a1e565b925082610ef357610ef2610e9e565b5b828204905092915050565b6000604082019050610f136000830185610aab565b610f206020830184610a28565b9392505050565b610f3081610ad5565b8114610f3b57600080fd5b50565b600081519050610f4d81610f27565b92915050565b600060208284031215610f6957610f6861098e565b5b6000610f7784828501610f3e565b9150509291505056fea2646970667358221220f63f955f1e7dbc621892a22ead0329eee3f419a895486076f58790c2329ec8dc64736f6c634300081c0033",
  "linkReferences": {},
  "deployedLinkReferences": {}
}