{
  "_format": "hh-sol-artifact-1",
  "contractName": "Pool",
  "sourceName": "contracts/Pool.sol",
  "abi": [
    {
      "inputs": [
        {
          "internalType": "address",
          "name": "_token",
          "type": "address"
        }
      ],
      "stateMutability": "nonpayable",
      "type": "constructor"
    },
    {
      "anonymous": false,
      "inputs": [
        {
          "indexed": true,
          "internalType": "address",
          "name": "user",
          "type": "address"
        },
        {
          "indexed": false,
          "internalType": "uint256",
          "name": "amount",
          "type": "uint256"
        }
      ],
      "name": "ApprovalGiven",
      "type": "event"
    },
    {
      "anonymous": false,
      "inputs": [
        {
          "indexed": false,
          "internalType": "uint256",
          "name": "amount",
          "type": "uint256"
        }
      ],
      "name": "Deposited",
      "type": "event"
    },
    {
      "anonymous": false,
      "inputs": [
        {
          "indexed": true,
          "internalType": "address",
          "name": "user",
          "type": "address"
        },
        {
          "indexed": false,
          "internalType": "uint256",
          "name": "ethAmount",
          "type": "uint256"
        },
        {
          "indexed": false,
          "internalType": "uint256",
          "name": "tokenAmount",
          "type": "uint256"
        }
      ],
      "name": "SwappedEthForToken",
      "type": "event"
    },
    {
      "anonymous": false,
      "inputs": [
        {
          "indexed": true,
          "internalType": "address",
          "name": "user",
          "type": "address"
        },
        {
          "indexed": false,
          "internalType": "uint256",
          "name": "tokenAmount",
          "type": "uint256"
        },
        {
          "indexed": false,
          "internalType": "uint256",
          "name": "ethAmount",
          "type": "uint256"
        }
      ],
      "name": "SwappedTokenForEth",
      "type": "event"
    },
    {
      "inputs": [
        {
          "internalType": "uint256",
          "name": "amount",
          "type": "uint256"
        }
      ],
      "name": "approvePool",
      "outputs": [],
      "stateMutability": "nonpayable",
      "type": "function"
    },
    {
      "inputs": [],
      "name": "getBalance",
      "outputs": [
        {
          "internalType": "uint256",
          "name": "",
          "type": "uint256"
        }
      ],
      "stateMutability": "view",
      "type": "function"
    },
    {
      "inputs": [
        {
          "internalType": "uint256",
          "name": "tokenAmount",
          "type": "uint256"
        }
      ],
      "name": "getEthAmount",
      "outputs": [
        {
          "internalType": "uint256",
          "name": "",
          "type": "uint256"
        }
      ],
      "stateMutability": "pure",
      "type": "function"
    },
    {
      "inputs": [
        {
          "internalType": "uint256",
          "name": "ethAmount",
          "type": "uint256"
        }
      ],
      "name": "getTokenAmount",
      "outputs": [
        {
          "internalType": "uint256",
          "name": "",
          "type": "uint256"
        }
      ],
      "stateMutability": "pure",
      "type": "function"
    },
    {
      "inputs": [],
      "name": "swapEthForToken",
      "outputs": [],
      "stateMutability": "payable",
      "type": "function"
    },
    {
      "inputs": [
        {
          "internalType": "uint256",
          "name": "tokenAmount",
          "type": "uint256"
        }
      ],
      "name": "swapTokenForEth",
      "outputs": [],
      "stateMutability": "nonpayable",
      "type": "function"
    },
    {
      "inputs": [],
      "name": "token",
      "outputs": [
        {
          "internalType": "contract IToken",
          "name": "",
          "type": "address"
        }
      ],
      "stateMutability": "view",
      "type": "function"
    },
    {
      "stateMutability": "payable",
      "type": "receive"
    }
  ],
  "bytecode": "0x60a060405234801561001057600080fd5b50604051610e81380380610e818339818101604052810190610032919061019a565b3373ffffffffffffffffffffffffffffffffffffffff1660808173ffffffffffffffffffffffffffffffffffffffff1681525050806000806101000a81548173ffffffffffffffffffffffffffffffffffffffff021916908373ffffffffffffffffffffffffffffffffffffffff16021790555060008054906101000a900473ffffffffffffffffffffffffffffffffffffffff1673ffffffffffffffffffffffffffffffffffffffff16634437152a306040518263ffffffff1660e01b81526004016100ff91906101d6565b600060405180830381600087803b15801561011957600080fd5b505af115801561012d573d6000803e3d6000fd5b50505050506101f1565b600080fd5b600073ffffffffffffffffffffffffffffffffffffffff82169050919050565b60006101678261013c565b9050919050565b6101778161015c565b811461018257600080fd5b50565b6000815190506101948161016e565b92915050565b6000602082840312156101b0576101af610137565b5b60006101be84828501610185565b91505092915050565b6101d08161015c565b82525050565b60006020820190506101eb60008301846101c7565b92915050565b608051610c7861020960003960005050610c786000f3fe6080604052600436106100745760003560e01c80638fc7a25d1161004e5780638fc7a25d14610115578063ae86041d14610152578063c2507ac11461017b578063fc0c546a146101b8576100b2565b806312065fe0146100b757806330506732146100e25780638b4d30fe146100ec576100b2565b366100b2577f2a89b2e3d580398d6dc2db5e0f336b52602bbaa51afa9bb5cdf59239cf0d2bea346040516100a89190610731565b60405180910390a1005b600080fd5b3480156100c357600080fd5b506100cc6101e3565b6040516100d99190610731565b60405180910390f35b6100ea6101eb565b005b3480156100f857600080fd5b50610113600480360381019061010e919061077d565b610409565b005b34801561012157600080fd5b5061013c6004803603810190610137919061077d565b6104f9565b6040516101499190610731565b60405180910390f35b34801561015e57600080fd5b506101796004803603810190610174919061077d565b61050f565b005b34801561018757600080fd5b506101a2600480360381019061019d919061077d565b6106de565b6040516101af9190610731565b60405180910390f35b3480156101c457600080fd5b506101cd6106f4565b6040516101da9190610829565b60405180910390f35b600047905090565b6000341161022e576040517f08c379a0000000000000000000000000000000000000000000000000000000008152600401610225906108a1565b60405180910390fd5b6000610239346106de565b90508060008054906101000a900473ffffffffffffffffffffffffffffffffffffffff1673ffffffffffffffffffffffffffffffffffffffff166370a08231306040518263ffffffff1660e01b815260040161029591906108e2565b602060405180830381865afa1580156102b2573d6000803e3d6000fd5b505050506040513d601f19601f820116820180604052508101906102d69190610912565b1015610317576040517f08c379a000000000000000000000000000000000000000000000000000000000815260040161030e9061098b565b60405180910390fd5b60008054906101000a900473ffffffffffffffffffffffffffffffffffffffff1673ffffffffffffffffffffffffffffffffffffffff1663a9059cbb33836040518363ffffffff1660e01b81526004016103729291906109ab565b6020604051808303816000875af1158015610391573d6000803e3d6000fd5b505050506040513d601f19601f820116820180604052508101906103b59190610a0c565b503373ffffffffffffffffffffffffffffffffffffffff167f39040f1b16fb5c9ae016912fd9917ff2bb0f901c3e39da18d8e97923075062ae34836040516103fe929190610a39565b60405180910390a250565b60008054906101000a900473ffffffffffffffffffffffffffffffffffffffff1673ffffffffffffffffffffffffffffffffffffffff1663095ea7b330836040518363ffffffff1660e01b81526004016104649291906109ab565b6020604051808303816000875af1158015610483573d6000803e3d6000fd5b505050506040513d601f19601f820116820180604052508101906104a79190610a0c565b503373ffffffffffffffffffffffffffffffffffffffff167f72d615aca2dfc5b17988697924f5b6d5a51d2b998b7f5fa50d72219c802db8c2826040516104ee9190610731565b60405180910390a250565b60006064826105089190610ac0565b9050919050565b60008111610552576040517f08c379a000000000000000000000000000000000000000000000000000000000815260040161054990610b3d565b60405180910390fd5b600061055d826104f9565b9050804710156105a2576040517f08c379a000000000000000000000000000000000000000000000000000000000815260040161059990610ba9565b60405180910390fd5b60008054906101000a900473ffffffffffffffffffffffffffffffffffffffff1673ffffffffffffffffffffffffffffffffffffffff166323b872dd3330856040518463ffffffff1660e01b81526004016105ff93929190610bc9565b6020604051808303816000875af115801561061e573d6000803e3d6000fd5b505050506040513d601f19601f820116820180604052508101906106429190610a0c565b503373ffffffffffffffffffffffffffffffffffffffff166108fc829081150290604051600060405180830381858888f19350505050158015610689573d6000803e3d6000fd5b503373ffffffffffffffffffffffffffffffffffffffff167fe6a0ac9edb56d3310bb86e3364aec84c13c6541ed565eddf1bef47698aff472d83836040516106d2929190610a39565b60405180910390a25050565b60006064826106ed9190610c00565b9050919050565b60008054906101000a900473ffffffffffffffffffffffffffffffffffffffff1681565b6000819050919050565b61072b81610718565b82525050565b60006020820190506107466000830184610722565b92915050565b600080fd5b61075a81610718565b811461076557600080fd5b50565b60008135905061077781610751565b92915050565b6000602082840312156107935761079261074c565b5b60006107a184828501610768565b91505092915050565b600073ffffffffffffffffffffffffffffffffffffffff82169050919050565b6000819050919050565b60006107ef6107ea6107e5846107aa565b6107ca565b6107aa565b9050919050565b6000610801826107d4565b9050919050565b6000610813826107f6565b9050919050565b61082381610808565b82525050565b600060208201905061083e600083018461081a565b92915050565b600082825260208201905092915050565b7f4d7573742073656e642045544820746f20737761700000000000000000000000600082015250565b600061088b601583610844565b915061089682610855565b602082019050919050565b600060208201905081810360008301526108ba8161087e565b9050919050565b60006108cc826107aa565b9050919050565b6108dc816108c1565b82525050565b60006020820190506108f760008301846108d3565b92915050565b60008151905061090c81610751565b92915050565b6000602082840312156109285761092761074c565b5b6000610936848285016108fd565b91505092915050565b7f4e6f7420656e6f75676820746f6b656e7320696e20706f6f6c00000000000000600082015250565b6000610975601983610844565b91506109808261093f565b602082019050919050565b600060208201905081810360008301526109a481610968565b9050919050565b60006040820190506109c060008301856108d3565b6109cd6020830184610722565b9392505050565b60008115159050919050565b6109e9816109d4565b81146109f457600080fd5b50565b600081519050610a06816109e0565b92915050565b600060208284031215610a2257610a2161074c565b5b6000610a30848285016109f7565b91505092915050565b6000604082019050610a4e6000830185610722565b610a5b6020830184610722565b9392505050565b7f4e487b7100000000000000000000000000000000000000000000000000000000600052601260045260246000fd5b7f4e487b7100000000000000000000000000000000000000000000000000000000600052601160045260246000fd5b6000610acb82610718565b9150610ad683610718565b925082610ae657610ae5610a62565b5b828204905092915050565b7f4d7573742073656e6420746f6b656e7320746f20737761700000000000000000600082015250565b6000610b27601883610844565b9150610b3282610af1565b602082019050919050565b60006020820190508181036000830152610b5681610b1a565b9050919050565b7f4e6f7420656e6f7567682045544820696e20706f6f6c00000000000000000000600082015250565b6000610b93601683610844565b9150610b9e82610b5d565b602082019050919050565b60006020820190508181036000830152610bc281610b86565b9050919050565b6000606082019050610bde60008301866108d3565b610beb60208301856108d3565b610bf86040830184610722565b949350505050565b6000610c0b82610718565b9150610c1683610718565b9250828202610c2481610718565b91508282048414831517610c3b57610c3a610a91565b5b509291505056fea2646970667358221220a9d558ab603fde7e49c2aa013c1b72a5bdf00b8cb9ca094fbfa5a613a6fdeb6164736f6c634300081c0033",
  "linkReferences": {},
  "deployedLinkReferences": {}
}