{"contracts/Pair.sol":{"Pair":{"abi":[{"inputs":[{"internalType":"address","name":"factory_","type":"address"},{"internalType":"address","name":"token0","type":"address"},{"internalType":"address","name":"token1","type":"address"}],"stateMutability":"nonpayable","type":"constructor"},{"inputs":[],"name":"ReentrancyGuardReentrantCall","type":"error"},{"anonymous":false,"inputs":[{"indexed":false,"internalType":"uint256","name":"reserve0","type":"uint256"},{"indexed":false,"internalType":"uint256","name":"reserve1","type":"uint256"},{"indexed":false,"internalType":"address","name":"lp","type":"address"}],"name":"Burn","type":"event"},{"anonymous":false,"inputs":[{"indexed":false,"internalType":"uint256","name":"reserve0","type":"uint256"},{"indexed":false,"internalType":"uint256","name":"reserve1","type":"uint256"},{"indexed":false,"internalType":"address","name":"lp","type":"address"}],"name":"Mint","type":"event"},{"anonymous":false,"inputs":[{"indexed":false,"internalType":"uint256","name":"amount0In","type":"uint256"},{"indexed":false,"internalType":"uint256","name":"amount0Out","type":"uint256"},{"indexed":false,"internalType":"uint256","name":"amount1In","type":"uint256"},{"indexed":false,"internalType":"uint256","name":"amount1Out","type":"uint256"}],"name":"Swap","type":"event"},{"inputs":[],"name":"MINIMUM_LIQUIDITY","outputs":[{"internalType":"uint256","name":"","type":"uint256"}],"stateMutability":"pure","type":"function"},{"inputs":[{"internalType":"address","name":"_user","type":"address"},{"internalType":"address","name":"_token","type":"address"},{"internalType":"uint256","name":"amount","type":"uint256"}],"name":"approval","outputs":[{"internalType":"bool","name":"","type":"bool"}],"stateMutability":"nonpayable","type":"function"},{"inputs":[],"name":"balance","outputs":[{"internalType":"uint256","name":"","type":"uint256"}],"stateMutability":"view","type":"function"},{"inputs":[{"internalType":"uint256","name":"reserve0","type":"uint256"},{"internalType":"uint256","name":"reserve1","type":"uint256"},{"internalType":"address","name":"_lp","type":"address"}],"name":"burn","outputs":[{"internalType":"bool","name":"","type":"bool"}],"stateMutability":"nonpayable","type":"function"},{"inputs":[],"name":"factory","outputs":[{"internalType":"address","name":"","type":"address"}],"stateMutability":"view","type":"function"},{"inputs":[],"name":"getReserves","outputs":[{"internalType":"uint256","name":"","type":"uint256"},{"internalType":"uint256","name":"","type":"uint256"},{"internalType":"uint256","name":"","type":"uint256"}],"stateMutability":"view","type":"function"},{"inputs":[],"name":"kLast","outputs":[{"internalType":"uint256","name":"","type":"uint256"}],"stateMutability":"view","type":"function"},{"inputs":[],"name":"liquidityProvider","outputs":[{"internalType":"address","name":"","type":"address"}],"stateMutability":"view","type":"function"},{"inputs":[{"internalType":"uint256","name":"reserve0","type":"uint256"},{"internalType":"uint256","name":"reserve1","type":"uint256"},{"internalType":"address","name":"_lp","type":"address"}],"name":"mint","outputs":[{"internalType":"bool","name":"","type":"bool"}],"stateMutability":"nonpayable","type":"function"},{"inputs":[],"name":"priceALast","outputs":[{"internalType":"uint256","name":"","type":"uint256"}],"stateMutability":"view","type":"function"},{"inputs":[],"name":"priceBLast","outputs":[{"internalType":"uint256","name":"","type":"uint256"}],"stateMutability":"view","type":"function"},{"inputs":[{"internalType":"uint256","name":"amount0In","type":"uint256"},{"internalType":"uint256","name":"amount0Out","type":"uint256"},{"internalType":"uint256","name":"amount1In","type":"uint256"},{"internalType":"uint256","name":"amount1Out","type":"uint256"}],"name":"swap","outputs":[{"internalType":"bool","name":"","type":"bool"}],"stateMutability":"nonpayable","type":"function"},{"inputs":[],"name":"tokenA","outputs":[{"internalType":"address","name":"","type":"address"}],"stateMutability":"view","type":"function"},{"inputs":[],"name":"tokenB","outputs":[{"internalType":"address","name":"","type":"address"}],"stateMutability":"view","type":"function"},{"inputs":[{"internalType":"address","name":"_address","type":"address"},{"internalType":"uint256","name":"amount","type":"uint256"}],"name":"transferETH","outputs":[{"internalType":"bool","name":"","type":"bool"}],"stateMutability":"nonpayable","type":"function"},{"stateMutability":"payable","type":"receive"}],"evm":{"bytecode":{"linkReferences":{},"object":"608060405234801561001057600080fd5b506040516115cb3803806115cb833981810160405281019061003291906102b5565b6001600081905550600073ffffffffffffffffffffffffffffffffffffffff168373ffffffffffffffffffffffffffffffffffffffff16036100a9576040517f08c379a00000000000000000000000000000000000000000000000000000000081526004016100a090610365565b60405180910390fd5b600073ffffffffffffffffffffffffffffffffffffffff168273ffffffffffffffffffffffffffffffffffffffff1603610118576040517f08c379a000000000000000000000000000000000000000000000000000000000815260040161010f90610365565b60405180910390fd5b600073ffffffffffffffffffffffffffffffffffffffff168173ffffffffffffffffffffffffffffffffffffffff1603610187576040517f08c379a000000000000000000000000000000000000000000000000000000000815260040161017e90610365565b60405180910390fd5b82600160006101000a81548173ffffffffffffffffffffffffffffffffffffffff021916908373ffffffffffffffffffffffffffffffffffffffff16021790555081600260006101000a81548173ffffffffffffffffffffffffffffffffffffffff021916908373ffffffffffffffffffffffffffffffffffffffff16021790555080600360006101000a81548173ffffffffffffffffffffffffffffffffffffffff021916908373ffffffffffffffffffffffffffffffffffffffff160217905550505050610385565b600080fd5b600073ffffffffffffffffffffffffffffffffffffffff82169050919050565b600061028282610257565b9050919050565b61029281610277565b811461029d57600080fd5b50565b6000815190506102af81610289565b92915050565b6000806000606084860312156102ce576102cd610252565b5b60006102dc868287016102a0565b93505060206102ed868287016102a0565b92505060406102fe868287016102a0565b9150509250925092565b600082825260208201905092915050565b7f5a65726f2061646472657373657320617265206e6f7420616c6c6f7765642e00600082015250565b600061034f601f83610308565b915061035a82610319565b602082019050919050565b6000602082019050818103600083015261037e81610342565b9050919050565b611237806103946000396000f3fe6080604052600436106100ec5760003560e01c80635f64b55b1161008a578063b69ef8a811610059578063b69ef8a81461031b578063ba9a7a5614610346578063c45a015514610371578063e7d3fe6b1461039c576100f3565b80635f64b55b1461024b5780637464fc3d14610276578063749388c4146102a15780637b1a4909146102de576100f3565b80635673b02d116100c65780635673b02d1461017b5780635b8bec55146101b85780635c52a5f2146101e35780635c9d693814610220576100f3565b80630902f1ac146100f85780630e06dfc9146101255780630fc63d1014610150576100f3565b366100f357005b600080fd5b34801561010457600080fd5b5061010d6103d9565b60405161011c93929190610be7565b60405180910390f35b34801561013157600080fd5b5061013a6103fb565b6040516101479190610c1e565b60405180910390f35b34801561015c57600080fd5b50610165610418565b6040516101729190610c7a565b60405180910390f35b34801561018757600080fd5b506101a2600480360381019061019d9190610cc6565b610442565b6040516101af9190610d48565b60405180910390f35b3480156101c457600080fd5b506101cd610552565b6040516101da9190610c7a565b60405180910390f35b3480156101ef57600080fd5b5061020a60048036038101906102059190610d8f565b61057c565b6040516102179190610d48565b60405180910390f35b34801561022c57600080fd5b506102356105a8565b6040516102429190610c1e565b60405180910390f35b34801561025757600080fd5b506102606105c5565b60405161026d9190610c7a565b60405180910390f35b34801561028257600080fd5b5061028b6105ef565b6040516102989190610c1e565b60405180910390f35b3480156102ad57600080fd5b506102c860048036038101906102c39190610de2565b6105fc565b6040516102d59190610d48565b60405180910390f35b3480156102ea57600080fd5b5061030560048036038101906103009190610e35565b6107e7565b6040516103129190610d48565b60405180910390f35b34801561032757600080fd5b506103306108cd565b60405161033d9190610c1e565b60405180910390f35b34801561035257600080fd5b5061035b6108d5565b6040516103689190610c1e565b60405180910390f35b34801561037d57600080fd5b506103866108e5565b6040516103939190610c7a565b60405180910390f35b3480156103a857600080fd5b506103c360048036038101906103be9190610de2565b61090f565b6040516103d09190610d48565b60405180910390f35b6000806000600560000154600560010154600560020154925092509250909192565b60006005600101546005600001546104139190610ed3565b905090565b6000600260009054906101000a900473ffffffffffffffffffffffffffffffffffffffff16905090565b60008084866005600001546104579190610f04565b6104619190610f38565b9050600083856005600101546104779190610f04565b6104819190610f38565b9050600084866005600201546104979190610f04565b6104a19190610f38565b90506040518060a00160405280848152602001838152602001828152602001600560030154815260200142815250600560008201518160000155602082015181600101556040820151816002015560608201518160030155608082015181600401559050507f298c349c742327269dc8de6ad66687767310c948ea309df826f5bd103e19d2078888888860405161053b9493929190610f6c565b60405180910390a160019350505050949350505050565b6000600460009054906101000a900473ffffffffffffffffffffffffffffffffffffffff16905090565b6000610586610a0f565b6000610593858585610a55565b9050809150506105a1610bc4565b9392505050565b60006005600001546005600101546105c09190610ed3565b905090565b6000600360009054906101000a900473ffffffffffffffffffffffffffffffffffffffff16905090565b6000600560030154905090565b60008073ffffffffffffffffffffffffffffffffffffffff168273ffffffffffffffffffffffffffffffffffffffff160361066c576040517f08c379a00000000000000000000000000000000000000000000000000000000081526004016106639061100e565b60405180910390fd5b8173ffffffffffffffffffffffffffffffffffffffff16600460009054906101000a900473ffffffffffffffffffffffffffffffffffffffff1673ffffffffffffffffffffffffffffffffffffffff16146106fc576040517f08c379a00000000000000000000000000000000000000000000000000000000081526004016106f3906110a0565b60405180910390fd5b60008460056000015461070f9190610f38565b90506000846005600101546107249190610f38565b90506000856005600201546107399190610f38565b90506040518060a00160405280848152602001838152602001828152602001600560030154815260200142815250600560008201518160000155602082015181600101556040820151816002015560608201518160030155608082015181600401559050507f254cba6bcaacd15ef1bba85e06c1d71c8cf7a3e036ad089903ba04bad25aaccc8787876040516107d1939291906110c0565b60405180910390a1600193505050509392505050565b60008073ffffffffffffffffffffffffffffffffffffffff168373ffffffffffffffffffffffffffffffffffffffff1603610857576040517f08c379a000000000000000000000000000000000000000000000000000000000815260040161084e9061100e565b60405180910390fd5b60008373ffffffffffffffffffffffffffffffffffffffff168360405161087d90611128565b60006040518083038185875af1925050503d80600081146108ba576040519150601f19603f3d011682016040523d82523d6000602084013e6108bf565b606091505b505090508091505092915050565b600047905090565b6000670de0b6b3a7640000905090565b6000600160009054906101000a900473ffffffffffffffffffffffffffffffffffffffff16905090565b600081600460006101000a81548173ffffffffffffffffffffffffffffffffffffffff021916908373ffffffffffffffffffffffffffffffffffffffff1602179055506040518060a001604052808581526020018481526020016109716108d5565b815260200161097e6108d5565b86610989919061113d565b815260200142815250600560008201518160000155602082015181600101556040820151816002015560608201518160030155608082015181600401559050507f8334f87aeaf76e52b061d93ee968e51fdd3ad53ca04e80271249227997aab3a08484846040516109fc939291906110c0565b60405180910390a1600190509392505050565b600260005403610a4b576040517f3ee5aeb500000000000000000000000000000000000000000000000000000000815260040160405180910390fd5b6002600081905550565b60008073ffffffffffffffffffffffffffffffffffffffff168473ffffffffffffffffffffffffffffffffffffffff1603610ac5576040517f08c379a0000000000000000000000000000000000000000000000000000000008152600401610abc9061100e565b60405180910390fd5b600073ffffffffffffffffffffffffffffffffffffffff168373ffffffffffffffffffffffffffffffffffffffff1603610b34576040517f08c379a0000000000000000000000000000000000000000000000000000000008152600401610b2b9061100e565b60405180910390fd5b60008390508073ffffffffffffffffffffffffffffffffffffffff1663095ea7b386856040518363ffffffff1660e01b8152600401610b7492919061117f565b6020604051808303816000875af1158015610b93573d6000803e3d6000fd5b505050506040513d601f19601f82011682018060405250810190610bb791906111d4565b5060019150509392505050565b6001600081905550565b6000819050919050565b610be181610bce565b82525050565b6000606082019050610bfc6000830186610bd8565b610c096020830185610bd8565b610c166040830184610bd8565b949350505050565b6000602082019050610c336000830184610bd8565b92915050565b600073ffffffffffffffffffffffffffffffffffffffff82169050919050565b6000610c6482610c39565b9050919050565b610c7481610c59565b82525050565b6000602082019050610c8f6000830184610c6b565b92915050565b600080fd5b610ca381610bce565b8114610cae57600080fd5b50565b600081359050610cc081610c9a565b92915050565b60008060008060808587031215610ce057610cdf610c95565b5b6000610cee87828801610cb1565b9450506020610cff87828801610cb1565b9350506040610d1087828801610cb1565b9250506060610d2187828801610cb1565b91505092959194509250565b60008115159050919050565b610d4281610d2d565b82525050565b6000602082019050610d5d6000830184610d39565b92915050565b610d6c81610c59565b8114610d7757600080fd5b50565b600081359050610d8981610d63565b92915050565b600080600060608486031215610da857610da7610c95565b5b6000610db686828701610d7a565b9350506020610dc786828701610d7a565b9250506040610dd886828701610cb1565b9150509250925092565b600080600060608486031215610dfb57610dfa610c95565b5b6000610e0986828701610cb1565b9350506020610e1a86828701610cb1565b9250506040610e2b86828701610d7a565b9150509250925092565b60008060408385031215610e4c57610e4b610c95565b5b6000610e5a85828601610d7a565b9250506020610e6b85828601610cb1565b9150509250929050565b7f4e487b7100000000000000000000000000000000000000000000000000000000600052601260045260246000fd5b7f4e487b7100000000000000000000000000000000000000000000000000000000600052601160045260246000fd5b6000610ede82610bce565b9150610ee983610bce565b925082610ef957610ef8610e75565b5b828204905092915050565b6000610f0f82610bce565b9150610f1a83610bce565b9250828201905080821115610f3257610f31610ea4565b5b92915050565b6000610f4382610bce565b9150610f4e83610bce565b9250828203905081811115610f6657610f65610ea4565b5b92915050565b6000608082019050610f816000830187610bd8565b610f8e6020830186610bd8565b610f9b6040830185610bd8565b610fa86060830184610bd8565b95945050505050565b600082825260208201905092915050565b7f5a65726f2061646472657373657320617265206e6f7420616c6c6f7765642e00600082015250565b6000610ff8601f83610fb1565b915061100382610fc2565b602082019050919050565b6000602082019050818103600083015261102781610feb565b9050919050565b7f4f6e6c79204c7020686f6c646572732063616e2063616c6c207468697320667560008201527f6e6374696f6e2e00000000000000000000000000000000000000000000000000602082015250565b600061108a602783610fb1565b91506110958261102e565b604082019050919050565b600060208201905081810360008301526110b98161107d565b9050919050565b60006060820190506110d56000830186610bd8565b6110e26020830185610bd8565b6110ef6040830184610c6b565b949350505050565b600081905092915050565b50565b60006111126000836110f7565b915061111d82611102565b600082019050919050565b600061113382611105565b9150819050919050565b600061114882610bce565b915061115383610bce565b925082820261116181610bce565b9150828204841483151761117857611177610ea4565b5b5092915050565b60006040820190506111946000830185610c6b565b6111a16020830184610bd8565b9392505050565b6111b181610d2d565b81146111bc57600080fd5b50565b6000815190506111ce816111a8565b92915050565b6000602082840312156111ea576111e9610c95565b5b60006111f8848285016111bf565b9150509291505056fea26469706673582212200529e21dcc924a253914627c434d9868cfb4429a9e9ebf15bcfc022f7469c01664736f6c634300081c0033","opcodes":"PUSH1 0x80 PUSH1 0x40 MSTORE CALLVALUE DUP1 ISZERO PUSH2 0x10 JUMPI PUSH1 0x0 DUP1 REVERT JUMPDEST POP PUSH1 0x40 MLOAD PUSH2 0x15CB CODESIZE SUB DUP1 PUSH2 0x15CB DUP4 CODECOPY DUP2 DUP2 ADD PUSH1 0x40 MSTORE DUP2 ADD SWAP1 PUSH2 0x32 SWAP2 SWAP1 PUSH2 0x2B5 JUMP JUMPDEST PUSH1 0x1 PUSH1 0x0 DUP2 SWAP1 SSTORE POP PUSH1 0x0 PUSH20 0xFFFFFFFFFFFFFFFFFFFFFFFFFFFFFFFFFFFFFFFF AND DUP4 PUSH20 0xFFFFFFFFFFFFFFFFFFFFFFFFFFFFFFFFFFFFFFFF AND SUB PUSH2 0xA9 JUMPI PUSH1 0x40 MLOAD PUSH32 0x8C379A000000000000000000000000000000000000000000000000000000000 DUP2 MSTORE PUSH1 0x4 ADD PUSH2 0xA0 SWAP1 PUSH2 0x365 JUMP JUMPDEST PUSH1 0x40 MLOAD DUP1 SWAP2 SUB SWAP1 REVERT JUMPDEST PUSH1 0x0 PUSH20 0xFFFFFFFFFFFFFFFFFFFFFFFFFFFFFFFFFFFFFFFF AND DUP3 PUSH20 0xFFFFFFFFFFFFFFFFFFFFFFFFFFFFFFFFFFFFFFFF AND SUB PUSH2 0x118 JUMPI PUSH1 0x40 MLOAD PUSH32 0x8C379A000000000000000000000000000000000000000000000000000000000 DUP2 MSTORE PUSH1 0x4 ADD PUSH2 0x10F SWAP1 PUSH2 0x365 JUMP JUMPDEST PUSH1 0x40 MLOAD DUP1 SWAP2 SUB SWAP1 REVERT JUMPDEST PUSH1 0x0 PUSH20 0xFFFFFFFFFFFFFFFFFFFFFFFFFFFFFFFFFFFFFFFF AND DUP2 PUSH20 0xFFFFFFFFFFFFFFFFFFFFFFFFFFFFFFFFFFFFFFFF AND SUB PUSH2 0x187 JUMPI PUSH1 0x40 MLOAD PUSH32 0x8C379A000000000000000000000000000000000000000000000000000000000 DUP2 MSTORE PUSH1 0x4 ADD PUSH2 0x17E SWAP1 PUSH2 0x365 JUMP JUMPDEST PUSH1 0x40 MLOAD DUP1 SWAP2 SUB SWAP1 REVERT JUMPDEST DUP3 PUSH1 0x1 PUSH1 0x0 PUSH2 0x100 EXP DUP2 SLOAD DUP2 PUSH20 0xFFFFFFFFFFFFFFFFFFFFFFFFFFFFFFFFFFFFFFFF MUL NOT AND SWAP1 DUP4 PUSH20 0xFFFFFFFFFFFFFFFFFFFFFFFFFFFFFFFFFFFFFFFF AND MUL OR SWAP1 SSTORE POP DUP2 PUSH1 0x2 PUSH1 0x0 PUSH2 0x100 EXP DUP2 SLOAD DUP2 PUSH20 0xFFFFFFFFFFFFFFFFFFFFFFFFFFFFFFFFFFFFFFFF MUL NOT AND SWAP1 DUP4 PUSH20 0xFFFFFFFFFFFFFFFFFFFFFFFFFFFFFFFFFFFFFFFF AND MUL OR SWAP1 SSTORE POP DUP1 PUSH1 0x3 PUSH1 0x0 PUSH2 0x100 EXP DUP2 SLOAD DUP2 PUSH20 0xFFFFFFFFFFFFFFFFFFFFFFFFFFFFFFFFFFFFFFFF MUL NOT AND SWAP1 DUP4 PUSH20 0xFFFFFFFFFFFFFFFFFFFFFFFFFFFFFFFFFFFFFFFF AND MUL OR SWAP1 SSTORE POP POP POP POP PUSH2 0x385 JUMP JUMPDEST PUSH1 0x0 DUP1 REVERT JUMPDEST PUSH1 0x0 PUSH20 0xFFFFFFFFFFFFFFFFFFFFFFFFFFFFFFFFFFFFFFFF DUP3 AND SWAP1 POP SWAP2 SWAP1 POP JUMP JUMPDEST PUSH1 0x0 PUSH2 0x282 DUP3 PUSH2 0x257 JUMP JUMPDEST SWAP1 POP SWAP2 SWAP1 POP JUMP JUMPDEST PUSH2 0x292 DUP2 PUSH2 0x277 JUMP JUMPDEST DUP2 EQ PUSH2 0x29D JUMPI PUSH1 0x0 DUP1 REVERT JUMPDEST POP JUMP JUMPDEST PUSH1 0x0 DUP2 MLOAD SWAP1 POP PUSH2 0x2AF DUP2 PUSH2 0x289 JUMP JUMPDEST SWAP3 SWAP2 POP POP JUMP JUMPDEST PUSH1 0x0 DUP1 PUSH1 0x0 PUSH1 0x60 DUP5 DUP7 SUB SLT ISZERO PUSH2 0x2CE JUMPI PUSH2 0x2CD PUSH2 0x252 JUMP JUMPDEST JUMPDEST PUSH1 0x0 PUSH2 0x2DC DUP7 DUP3 DUP8 ADD PUSH2 0x2A0 JUMP JUMPDEST SWAP4 POP POP PUSH1 0x20 PUSH2 0x2ED DUP7 DUP3 DUP8 ADD PUSH2 0x2A0 JUMP JUMPDEST SWAP3 POP POP PUSH1 0x40 PUSH2 0x2FE DUP7 DUP3 DUP8 ADD PUSH2 0x2A0 JUMP JUMPDEST SWAP2 POP POP SWAP3 POP SWAP3 POP SWAP3 JUMP JUMPDEST PUSH1 0x0 DUP3 DUP3 MSTORE PUSH1 0x20 DUP3 ADD SWAP1 POP SWAP3 SWAP2 POP POP JUMP JUMPDEST PUSH32 0x5A65726F2061646472657373657320617265206E6F7420616C6C6F7765642E00 PUSH1 0x0 DUP3 ADD MSTORE POP JUMP JUMPDEST PUSH1 0x0 PUSH2 0x34F PUSH1 0x1F DUP4 PUSH2 0x308 JUMP JUMPDEST SWAP2 POP PUSH2 0x35A DUP3 PUSH2 0x319 JUMP JUMPDEST PUSH1 0x20 DUP3 ADD SWAP1 POP SWAP2 SWAP1 POP JUMP JUMPDEST PUSH1 0x0 PUSH1 0x20 DUP3 ADD SWAP1 POP DUP2 DUP2 SUB PUSH1 0x0 DUP4 ADD MSTORE PUSH2 0x37E DUP2 PUSH2 0x342 JUMP JUMPDEST SWAP1 POP SWAP2 SWAP1 POP JUMP JUMPDEST PUSH2 0x1237 DUP1 PUSH2 0x394 PUSH1 0x0 CODECOPY PUSH1 0x0 RETURN INVALID PUSH1 0x80 PUSH1 0x40 MSTORE PUSH1 0x4 CALLDATASIZE LT PUSH2 0xEC JUMPI PUSH1 0x0 CALLDATALOAD PUSH1 0xE0 SHR DUP1 PUSH4 0x5F64B55B GT PUSH2 0x8A JUMPI DUP1 PUSH4 0xB69EF8A8 GT PUSH2 0x59 JUMPI DUP1 PUSH4 0xB69EF8A8 EQ PUSH2 0x31B JUMPI DUP1 PUSH4 0xBA9A7A56 EQ PUSH2 0x346 JUMPI DUP1 PUSH4 0xC45A0155 EQ PUSH2 0x371 JUMPI DUP1 PUSH4 0xE7D3FE6B EQ PUSH2 0x39C JUMPI PUSH2 0xF3 JUMP JUMPDEST DUP1 PUSH4 0x5F64B55B EQ PUSH2 0x24B JUMPI DUP1 PUSH4 0x7464FC3D EQ PUSH2 0x276 JUMPI DUP1 PUSH4 0x749388C4 EQ PUSH2 0x2A1 JUMPI DUP1 PUSH4 0x7B1A4909 EQ PUSH2 0x2DE JUMPI PUSH2 0xF3 JUMP JUMPDEST DUP1 PUSH4 0x5673B02D GT PUSH2 0xC6 JUMPI DUP1 PUSH4 0x5673B02D EQ PUSH2 0x17B JUMPI DUP1 PUSH4 0x5B8BEC55 EQ PUSH2 0x1B8 JUMPI DUP1 PUSH4 0x5C52A5F2 EQ PUSH2 0x1E3 JUMPI DUP1 PUSH4 0x5C9D6938 EQ PUSH2 0x220 JUMPI PUSH2 0xF3 JUMP JUMPDEST DUP1 PUSH4 0x902F1AC EQ PUSH2 0xF8 JUMPI DUP1 PUSH4 0xE06DFC9 EQ PUSH2 0x125 JUMPI DUP1 PUSH4 0xFC63D10 EQ PUSH2 0x150 JUMPI PUSH2 0xF3 JUMP JUMPDEST CALLDATASIZE PUSH2 0xF3 JUMPI STOP JUMPDEST PUSH1 0x0 DUP1 REVERT JUMPDEST CALLVALUE DUP1 ISZERO PUSH2 0x104 JUMPI PUSH1 0x0 DUP1 REVERT JUMPDEST POP PUSH2 0x10D PUSH2 0x3D9 JUMP JUMPDEST PUSH1 0x40 MLOAD PUSH2 0x11C SWAP4 SWAP3 SWAP2 SWAP1 PUSH2 0xBE7 JUMP JUMPDEST PUSH1 0x40 MLOAD DUP1 SWAP2 SUB SWAP1 RETURN JUMPDEST CALLVALUE DUP1 ISZERO PUSH2 0x131 JUMPI PUSH1 0x0 DUP1 REVERT JUMPDEST POP PUSH2 0x13A PUSH2 0x3FB JUMP JUMPDEST PUSH1 0x40 MLOAD PUSH2 0x147 SWAP2 SWAP1 PUSH2 0xC1E JUMP JUMPDEST PUSH1 0x40 MLOAD DUP1 SWAP2 SUB SWAP1 RETURN JUMPDEST CALLVALUE DUP1 ISZERO PUSH2 0x15C JUMPI PUSH1 0x0 DUP1 REVERT JUMPDEST POP PUSH2 0x165 PUSH2 0x418 JUMP JUMPDEST PUSH1 0x40 MLOAD PUSH2 0x172 SWAP2 SWAP1 PUSH2 0xC7A JUMP JUMPDEST PUSH1 0x40 MLOAD DUP1 SWAP2 SUB SWAP1 RETURN JUMPDEST CALLVALUE DUP1 ISZERO PUSH2 0x187 JUMPI PUSH1 0x0 DUP1 REVERT JUMPDEST POP PUSH2 0x1A2 PUSH1 0x4 DUP1 CALLDATASIZE SUB DUP2 ADD SWAP1 PUSH2 0x19D SWAP2 SWAP1 PUSH2 0xCC6 JUMP JUMPDEST PUSH2 0x442 JUMP JUMPDEST PUSH1 0x40 MLOAD PUSH2 0x1AF SWAP2 SWAP1 PUSH2 0xD48 JUMP JUMPDEST PUSH1 0x40 MLOAD DUP1 SWAP2 SUB SWAP1 RETURN JUMPDEST CALLVALUE DUP1 ISZERO PUSH2 0x1C4 JUMPI PUSH1 0x0 DUP1 REVERT JUMPDEST POP PUSH2 0x1CD PUSH2 0x552 JUMP JUMPDEST PUSH1 0x40 MLOAD PUSH2 0x1DA SWAP2 SWAP1 PUSH2 0xC7A JUMP JUMPDEST PUSH1 0x40 MLOAD DUP1 SWAP2 SUB SWAP1 RETURN JUMPDEST CALLVALUE DUP1 ISZERO PUSH2 0x1EF JUMPI PUSH1 0x0 DUP1 REVERT JUMPDEST POP PUSH2 0x20A PUSH1 0x4 DUP1 CALLDATASIZE SUB DUP2 ADD SWAP1 PUSH2 0x205 SWAP2 SWAP1 PUSH2 0xD8F JUMP JUMPDEST PUSH2 0x57C JUMP JUMPDEST PUSH1 0x40 MLOAD PUSH2 0x217 SWAP2 SWAP1 PUSH2 0xD48 JUMP JUMPDEST PUSH1 0x40 MLOAD DUP1 SWAP2 SUB SWAP1 RETURN JUMPDEST CALLVALUE DUP1 ISZERO PUSH2 0x22C JUMPI PUSH1 0x0 DUP1 REVERT JUMPDEST POP PUSH2 0x235 PUSH2 0x5A8 JUMP JUMPDEST PUSH1 0x40 MLOAD PUSH2 0x242 SWAP2 SWAP1 PUSH2 0xC1E JUMP JUMPDEST PUSH1 0x40 MLOAD DUP1 SWAP2 SUB SWAP1 RETURN JUMPDEST CALLVALUE DUP1 ISZERO PUSH2 0x257 JUMPI PUSH1 0x0 DUP1 REVERT JUMPDEST POP PUSH2 0x260 PUSH2 0x5C5 JUMP JUMPDEST PUSH1 0x40 MLOAD PUSH2 0x26D SWAP2 SWAP1 PUSH2 0xC7A JUMP JUMPDEST PUSH1 0x40 MLOAD DUP1 SWAP2 SUB SWAP1 RETURN JUMPDEST CALLVALUE DUP1 ISZERO PUSH2 0x282 JUMPI PUSH1 0x0 DUP1 REVERT JUMPDEST POP PUSH2 0x28B PUSH2 0x5EF JUMP JUMPDEST PUSH1 0x40 MLOAD PUSH2 0x298 SWAP2 SWAP1 PUSH2 0xC1E JUMP JUMPDEST PUSH1 0x40 MLOAD DUP1 SWAP2 SUB SWAP1 RETURN JUMPDEST CALLVALUE DUP1 ISZERO PUSH2 0x2AD JUMPI PUSH1 0x0 DUP1 REVERT JUMPDEST POP PUSH2 0x2C8 PUSH1 0x4 DUP1 CALLDATASIZE SUB DUP2 ADD SWAP1 PUSH2 0x2C3 SWAP2 SWAP1 PUSH2 0xDE2 JUMP JUMPDEST PUSH2 0x5FC JUMP JUMPDEST PUSH1 0x40 MLOAD PUSH2 0x2D5 SWAP2 SWAP1 PUSH2 0xD48 JUMP JUMPDEST PUSH1 0x40 MLOAD DUP1 SWAP2 SUB SWAP1 RETURN JUMPDEST CALLVALUE DUP1 ISZERO PUSH2 0x2EA JUMPI PUSH1 0x0 DUP1 REVERT JUMPDEST POP PUSH2 0x305 PUSH1 0x4 DUP1 CALLDATASIZE SUB DUP2 ADD SWAP1 PUSH2 0x300 SWAP2 SWAP1 PUSH2 0xE35 JUMP JUMPDEST PUSH2 0x7E7 JUMP JUMPDEST PUSH1 0x40 MLOAD PUSH2 0x312 SWAP2 SWAP1 PUSH2 0xD48 JUMP JUMPDEST PUSH1 0x40 MLOAD DUP1 SWAP2 SUB SWAP1 RETURN JUMPDEST CALLVALUE DUP1 ISZERO PUSH2 0x327 JUMPI PUSH1 0x0 DUP1 REVERT JUMPDEST POP PUSH2 0x330 PUSH2 0x8CD JUMP JUMPDEST PUSH1 0x40 MLOAD PUSH2 0x33D SWAP2 SWAP1 PUSH2 0xC1E JUMP JUMPDEST PUSH1 0x40 MLOAD DUP1 SWAP2 SUB SWAP1 RETURN JUMPDEST CALLVALUE DUP1 ISZERO PUSH2 0x352 JUMPI PUSH1 0x0 DUP1 REVERT JUMPDEST POP PUSH2 0x35B PUSH2 0x8D5 JUMP JUMPDEST PUSH1 0x40 MLOAD PUSH2 0x368 SWAP2 SWAP1 PUSH2 0xC1E JUMP JUMPDEST PUSH1 0x40 MLOAD DUP1 SWAP2 SUB SWAP1 RETURN JUMPDEST CALLVALUE DUP1 ISZERO PUSH2 0x37D JUMPI PUSH1 0x0 DUP1 REVERT JUMPDEST POP PUSH2 0x386 PUSH2 0x8E5 JUMP JUMPDEST PUSH1 0x40 MLOAD PUSH2 0x393 SWAP2 SWAP1 PUSH2 0xC7A JUMP JUMPDEST PUSH1 0x40 MLOAD DUP1 SWAP2 SUB SWAP1 RETURN JUMPDEST CALLVALUE DUP1 ISZERO PUSH2 0x3A8 JUMPI PUSH1 0x0 DUP1 REVERT JUMPDEST POP PUSH2 0x3C3 PUSH1 0x4 DUP1 CALLDATASIZE SUB DUP2 ADD SWAP1 PUSH2 0x3BE SWAP2 SWAP1 PUSH2 0xDE2 JUMP JUMPDEST PUSH2 0x90F JUMP JUMPDEST PUSH1 0x40 MLOAD PUSH2 0x3D0 SWAP2 SWAP1 PUSH2 0xD48 JUMP JUMPDEST PUSH1 0x40 MLOAD DUP1 SWAP2 SUB SWAP1 RETURN JUMPDEST PUSH1 0x0 DUP1 PUSH1 0x0 PUSH1 0x5 PUSH1 0x0 ADD SLOAD PUSH1 0x5 PUSH1 0x1 ADD SLOAD PUSH1 0x5 PUSH1 0x2 ADD SLOAD SWAP3 POP SWAP3 POP SWAP3 POP SWAP1 SWAP2 SWAP3 JUMP JUMPDEST PUSH1 0x0 PUSH1 0x5 PUSH1 0x1 ADD SLOAD PUSH1 0x5 PUSH1 0x0 ADD SLOAD PUSH2 0x413 SWAP2 SWAP1 PUSH2 0xED3 JUMP JUMPDEST SWAP1 POP SWAP1 JUMP JUMPDEST PUSH1 0x0 PUSH1 0x2 PUSH1 0x0 SWAP1 SLOAD SWAP1 PUSH2 0x100 EXP SWAP1 DIV PUSH20 0xFFFFFFFFFFFFFFFFFFFFFFFFFFFFFFFFFFFFFFFF AND SWAP1 POP SWAP1 JUMP JUMPDEST PUSH1 0x0 DUP1 DUP5 DUP7 PUSH1 0x5 PUSH1 0x0 ADD SLOAD PUSH2 0x457 SWAP2 SWAP1 PUSH2 0xF04 JUMP JUMPDEST PUSH2 0x461 SWAP2 SWAP1 PUSH2 0xF38 JUMP JUMPDEST SWAP1 POP PUSH1 0x0 DUP4 DUP6 PUSH1 0x5 PUSH1 0x1 ADD SLOAD PUSH2 0x477 SWAP2 SWAP1 PUSH2 0xF04 JUMP JUMPDEST PUSH2 0x481 SWAP2 SWAP1 PUSH2 0xF38 JUMP JUMPDEST SWAP1 POP PUSH1 0x0 DUP5 DUP7 PUSH1 0x5 PUSH1 0x2 ADD SLOAD PUSH2 0x497 SWAP2 SWAP1 PUSH2 0xF04 JUMP JUMPDEST PUSH2 0x4A1 SWAP2 SWAP1 PUSH2 0xF38 JUMP JUMPDEST SWAP1 POP PUSH1 0x40 MLOAD DUP1 PUSH1 0xA0 ADD PUSH1 0x40 MSTORE DUP1 DUP5 DUP2 MSTORE PUSH1 0x20 ADD DUP4 DUP2 MSTORE PUSH1 0x20 ADD DUP3 DUP2 MSTORE PUSH1 0x20 ADD PUSH1 0x5 PUSH1 0x3 ADD SLOAD DUP2 MSTORE PUSH1 0x20 ADD TIMESTAMP DUP2 MSTORE POP PUSH1 0x5 PUSH1 0x0 DUP3 ADD MLOAD DUP2 PUSH1 0x0 ADD SSTORE PUSH1 0x20 DUP3 ADD MLOAD DUP2 PUSH1 0x1 ADD SSTORE PUSH1 0x40 DUP3 ADD MLOAD DUP2 PUSH1 0x2 ADD SSTORE PUSH1 0x60 DUP3 ADD MLOAD DUP2 PUSH1 0x3 ADD SSTORE PUSH1 0x80 DUP3 ADD MLOAD DUP2 PUSH1 0x4 ADD SSTORE SWAP1 POP POP PUSH32 0x298C349C742327269DC8DE6AD66687767310C948EA309DF826F5BD103E19D207 DUP9 DUP9 DUP9 DUP9 PUSH1 0x40 MLOAD PUSH2 0x53B SWAP5 SWAP4 SWAP3 SWAP2 SWAP1 PUSH2 0xF6C JUMP JUMPDEST PUSH1 0x40 MLOAD DUP1 SWAP2 SUB SWAP1 LOG1 PUSH1 0x1 SWAP4 POP POP POP POP SWAP5 SWAP4 POP POP POP POP JUMP JUMPDEST PUSH1 0x0 PUSH1 0x4 PUSH1 0x0 SWAP1 SLOAD SWAP1 PUSH2 0x100 EXP SWAP1 DIV PUSH20 0xFFFFFFFFFFFFFFFFFFFFFFFFFFFFFFFFFFFFFFFF AND SWAP1 POP SWAP1 JUMP JUMPDEST PUSH1 0x0 PUSH2 0x586 PUSH2 0xA0F JUMP JUMPDEST PUSH1 0x0 PUSH2 0x593 DUP6 DUP6 DUP6 PUSH2 0xA55 JUMP JUMPDEST SWAP1 POP DUP1 SWAP2 POP POP PUSH2 0x5A1 PUSH2 0xBC4 JUMP JUMPDEST SWAP4 SWAP3 POP POP POP JUMP JUMPDEST PUSH1 0x0 PUSH1 0x5 PUSH1 0x0 ADD SLOAD PUSH1 0x5 PUSH1 0x1 ADD SLOAD PUSH2 0x5C0 SWAP2 SWAP1 PUSH2 0xED3 JUMP JUMPDEST SWAP1 POP SWAP1 JUMP JUMPDEST PUSH1 0x0 PUSH1 0x3 PUSH1 0x0 SWAP1 SLOAD SWAP1 PUSH2 0x100 EXP SWAP1 DIV PUSH20 0xFFFFFFFFFFFFFFFFFFFFFFFFFFFFFFFFFFFFFFFF AND SWAP1 POP SWAP1 JUMP JUMPDEST PUSH1 0x0 PUSH1 0x5 PUSH1 0x3 ADD SLOAD SWAP1 POP SWAP1 JUMP JUMPDEST PUSH1 0x0 DUP1 PUSH20 0xFFFFFFFFFFFFFFFFFFFFFFFFFFFFFFFFFFFFFFFF AND DUP3 PUSH20 0xFFFFFFFFFFFFFFFFFFFFFFFFFFFFFFFFFFFFFFFF AND SUB PUSH2 0x66C JUMPI PUSH1 0x40 MLOAD PUSH32 0x8C379A000000000000000000000000000000000000000000000000000000000 DUP2 MSTORE PUSH1 0x4 ADD PUSH2 0x663 SWAP1 PUSH2 0x100E JUMP JUMPDEST PUSH1 0x40 MLOAD DUP1 SWAP2 SUB SWAP1 REVERT JUMPDEST DUP2 PUSH20 0xFFFFFFFFFFFFFFFFFFFFFFFFFFFFFFFFFFFFFFFF AND PUSH1 0x4 PUSH1 0x0 SWAP1 SLOAD SWAP1 PUSH2 0x100 EXP SWAP1 DIV PUSH20 0xFFFFFFFFFFFFFFFFFFFFFFFFFFFFFFFFFFFFFFFF AND PUSH20 0xFFFFFFFFFFFFFFFFFFFFFFFFFFFFFFFFFFFFFFFF AND EQ PUSH2 0x6FC JUMPI PUSH1 0x40 MLOAD PUSH32 0x8C379A000000000000000000000000000000000000000000000000000000000 DUP2 MSTORE PUSH1 0x4 ADD PUSH2 0x6F3 SWAP1 PUSH2 0x10A0 JUMP JUMPDEST PUSH1 0x40 MLOAD DUP1 SWAP2 SUB SWAP1 REVERT JUMPDEST PUSH1 0x0 DUP5 PUSH1 0x5 PUSH1 0x0 ADD SLOAD PUSH2 0x70F SWAP2 SWAP1 PUSH2 0xF38 JUMP JUMPDEST SWAP1 POP PUSH1 0x0 DUP5 PUSH1 0x5 PUSH1 0x1 ADD SLOAD PUSH2 0x724 SWAP2 SWAP1 PUSH2 0xF38 JUMP JUMPDEST SWAP1 POP PUSH1 0x0 DUP6 PUSH1 0x5 PUSH1 0x2 ADD SLOAD PUSH2 0x739 SWAP2 SWAP1 PUSH2 0xF38 JUMP JUMPDEST SWAP1 POP PUSH1 0x40 MLOAD DUP1 PUSH1 0xA0 ADD PUSH1 0x40 MSTORE DUP1 DUP5 DUP2 MSTORE PUSH1 0x20 ADD DUP4 DUP2 MSTORE PUSH1 0x20 ADD DUP3 DUP2 MSTORE PUSH1 0x20 ADD PUSH1 0x5 PUSH1 0x3 ADD SLOAD DUP2 MSTORE PUSH1 0x20 ADD TIMESTAMP DUP2 MSTORE POP PUSH1 0x5 PUSH1 0x0 DUP3 ADD MLOAD DUP2 PUSH1 0x0 ADD SSTORE PUSH1 0x20 DUP3 ADD MLOAD DUP2 PUSH1 0x1 ADD SSTORE PUSH1 0x40 DUP3 ADD MLOAD DUP2 PUSH1 0x2 ADD SSTORE PUSH1 0x60 DUP3 ADD MLOAD DUP2 PUSH1 0x3 ADD SSTORE PUSH1 0x80 DUP3 ADD MLOAD DUP2 PUSH1 0x4 ADD SSTORE SWAP1 POP POP PUSH32 0x254CBA6BCAACD15EF1BBA85E06C1D71C8CF7A3E036AD089903BA04BAD25AACCC DUP8 DUP8 DUP8 PUSH1 0x40 MLOAD PUSH2 0x7D1 SWAP4 SWAP3 SWAP2 SWAP1 PUSH2 0x10C0 JUMP JUMPDEST PUSH1 0x40 MLOAD DUP1 SWAP2 SUB SWAP1 LOG1 PUSH1 0x1 SWAP4 POP POP POP POP SWAP4 SWAP3 POP POP POP JUMP JUMPDEST PUSH1 0x0 DUP1 PUSH20 0xFFFFFFFFFFFFFFFFFFFFFFFFFFFFFFFFFFFFFFFF AND DUP4 PUSH20 0xFFFFFFFFFFFFFFFFFFFFFFFFFFFFFFFFFFFFFFFF AND SUB PUSH2 0x857 JUMPI PUSH1 0x40 MLOAD PUSH32 0x8C379A000000000000000000000000000000000000000000000000000000000 DUP2 MSTORE PUSH1 0x4 ADD PUSH2 0x84E SWAP1 PUSH2 0x100E JUMP JUMPDEST PUSH1 0x40 MLOAD DUP1 SWAP2 SUB SWAP1 REVERT JUMPDEST PUSH1 0x0 DUP4 PUSH20 0xFFFFFFFFFFFFFFFFFFFFFFFFFFFFFFFFFFFFFFFF AND DUP4 PUSH1 0x40 MLOAD PUSH2 0x87D SWAP1 PUSH2 0x1128 JUMP JUMPDEST PUSH1 0x0 PUSH1 0x40 MLOAD DUP1 DUP4 SUB DUP2 DUP6 DUP8 GAS CALL SWAP3 POP POP POP RETURNDATASIZE DUP1 PUSH1 0x0 DUP2 EQ PUSH2 0x8BA JUMPI PUSH1 0x40 MLOAD SWAP2 POP PUSH1 0x1F NOT PUSH1 0x3F RETURNDATASIZE ADD AND DUP3 ADD PUSH1 0x40 MSTORE RETURNDATASIZE DUP3 MSTORE RETURNDATASIZE PUSH1 0x0 PUSH1 0x20 DUP5 ADD RETURNDATACOPY PUSH2 0x8BF JUMP JUMPDEST PUSH1 0x60 SWAP2 POP JUMPDEST POP POP SWAP1 POP DUP1 SWAP2 POP POP SWAP3 SWAP2 POP POP JUMP JUMPDEST PUSH1 0x0 SELFBALANCE SWAP1 POP SWAP1 JUMP JUMPDEST PUSH1 0x0 PUSH8 0xDE0B6B3A7640000 SWAP1 POP SWAP1 JUMP JUMPDEST PUSH1 0x0 PUSH1 0x1 PUSH1 0x0 SWAP1 SLOAD SWAP1 PUSH2 0x100 EXP SWAP1 DIV PUSH20 0xFFFFFFFFFFFFFFFFFFFFFFFFFFFFFFFFFFFFFFFF AND SWAP1 POP SWAP1 JUMP JUMPDEST PUSH1 0x0 DUP2 PUSH1 0x4 PUSH1 0x0 PUSH2 0x100 EXP DUP2 SLOAD DUP2 PUSH20 0xFFFFFFFFFFFFFFFFFFFFFFFFFFFFFFFFFFFFFFFF MUL NOT AND SWAP1 DUP4 PUSH20 0xFFFFFFFFFFFFFFFFFFFFFFFFFFFFFFFFFFFFFFFF AND MUL OR SWAP1 SSTORE POP PUSH1 0x40 MLOAD DUP1 PUSH1 0xA0 ADD PUSH1 0x40 MSTORE DUP1 DUP6 DUP2 MSTORE PUSH1 0x20 ADD DUP5 DUP2 MSTORE PUSH1 0x20 ADD PUSH2 0x971 PUSH2 0x8D5 JUMP JUMPDEST DUP2 MSTORE PUSH1 0x20 ADD PUSH2 0x97E PUSH2 0x8D5 JUMP JUMPDEST DUP7 PUSH2 0x989 SWAP2 SWAP1 PUSH2 0x113D JUMP JUMPDEST DUP2 MSTORE PUSH1 0x20 ADD TIMESTAMP DUP2 MSTORE POP PUSH1 0x5 PUSH1 0x0 DUP3 ADD MLOAD DUP2 PUSH1 0x0 ADD SSTORE PUSH1 0x20 DUP3 ADD MLOAD DUP2 PUSH1 0x1 ADD SSTORE PUSH1 0x40 DUP3 ADD MLOAD DUP2 PUSH1 0x2 ADD SSTORE PUSH1 0x60 DUP3 ADD MLOAD DUP2 PUSH1 0x3 ADD SSTORE PUSH1 0x80 DUP3 ADD MLOAD DUP2 PUSH1 0x4 ADD SSTORE SWAP1 POP POP PUSH32 0x8334F87AEAF76E52B061D93EE968E51FDD3AD53CA04E80271249227997AAB3A0 DUP5 DUP5 DUP5 PUSH1 0x40 MLOAD PUSH2 0x9FC SWAP4 SWAP3 SWAP2 SWAP1 PUSH2 0x10C0 JUMP JUMPDEST PUSH1 0x40 MLOAD DUP1 SWAP2 SUB SWAP1 LOG1 PUSH1 0x1 SWAP1 POP SWAP4 SWAP3 POP POP POP JUMP JUMPDEST PUSH1 0x2 PUSH1 0x0 SLOAD SUB PUSH2 0xA4B JUMPI PUSH1 0x40 MLOAD PUSH32 0x3EE5AEB500000000000000000000000000000000000000000000000000000000 DUP2 MSTORE PUSH1 0x4 ADD PUSH1 0x40 MLOAD DUP1 SWAP2 SUB SWAP1 REVERT JUMPDEST PUSH1 0x2 PUSH1 0x0 DUP2 SWAP1 SSTORE POP JUMP JUMPDEST PUSH1 0x0 DUP1 PUSH20 0xFFFFFFFFFFFFFFFFFFFFFFFFFFFFFFFFFFFFFFFF AND DUP5 PUSH20 0xFFFFFFFFFFFFFFFFFFFFFFFFFFFFFFFFFFFFFFFF AND SUB PUSH2 0xAC5 JUMPI PUSH1 0x40 MLOAD PUSH32 0x8C379A000000000000000000000000000000000000000000000000000000000 DUP2 MSTORE PUSH1 0x4 ADD PUSH2 0xABC SWAP1 PUSH2 0x100E JUMP JUMPDEST PUSH1 0x40 MLOAD DUP1 SWAP2 SUB SWAP1 REVERT JUMPDEST PUSH1 0x0 PUSH20 0xFFFFFFFFFFFFFFFFFFFFFFFFFFFFFFFFFFFFFFFF AND DUP4 PUSH20 0xFFFFFFFFFFFFFFFFFFFFFFFFFFFFFFFFFFFFFFFF AND SUB PUSH2 0xB34 JUMPI PUSH1 0x40 MLOAD PUSH32 0x8C379A000000000000000000000000000000000000000000000000000000000 DUP2 MSTORE PUSH1 0x4 ADD PUSH2 0xB2B SWAP1 PUSH2 0x100E JUMP JUMPDEST PUSH1 0x40 MLOAD DUP1 SWAP2 SUB SWAP1 REVERT JUMPDEST PUSH1 0x0 DUP4 SWAP1 POP DUP1 PUSH20 0xFFFFFFFFFFFFFFFFFFFFFFFFFFFFFFFFFFFFFFFF AND PUSH4 0x95EA7B3 DUP7 DUP6 PUSH1 0x40 MLOAD DUP4 PUSH4 0xFFFFFFFF AND PUSH1 0xE0 SHL DUP2 MSTORE PUSH1 0x4 ADD PUSH2 0xB74 SWAP3 SWAP2 SWAP1 PUSH2 0x117F JUMP JUMPDEST PUSH1 0x20 PUSH1 0x40 MLOAD DUP1 DUP4 SUB DUP2 PUSH1 0x0 DUP8 GAS CALL ISZERO DUP1 ISZERO PUSH2 0xB93 JUMPI RETURNDATASIZE PUSH1 0x0 DUP1 RETURNDATACOPY RETURNDATASIZE PUSH1 0x0 REVERT JUMPDEST POP POP POP POP PUSH1 0x40 MLOAD RETURNDATASIZE PUSH1 0x1F NOT PUSH1 0x1F DUP3 ADD AND DUP3 ADD DUP1 PUSH1 0x40 MSTORE POP DUP2 ADD SWAP1 PUSH2 0xBB7 SWAP2 SWAP1 PUSH2 0x11D4 JUMP JUMPDEST POP PUSH1 0x1 SWAP2 POP POP SWAP4 SWAP3 POP POP POP JUMP JUMPDEST PUSH1 0x1 PUSH1 0x0 DUP2 SWAP1 SSTORE POP JUMP JUMPDEST PUSH1 0x0 DUP2 SWAP1 POP SWAP2 SWAP1 POP JUMP JUMPDEST PUSH2 0xBE1 DUP2 PUSH2 0xBCE JUMP JUMPDEST DUP3 MSTORE POP POP JUMP JUMPDEST PUSH1 0x0 PUSH1 0x60 DUP3 ADD SWAP1 POP PUSH2 0xBFC PUSH1 0x0 DUP4 ADD DUP7 PUSH2 0xBD8 JUMP JUMPDEST PUSH2 0xC09 PUSH1 0x20 DUP4 ADD DUP6 PUSH2 0xBD8 JUMP JUMPDEST PUSH2 0xC16 PUSH1 0x40 DUP4 ADD DUP5 PUSH2 0xBD8 JUMP JUMPDEST SWAP5 SWAP4 POP POP POP POP JUMP JUMPDEST PUSH1 0x0 PUSH1 0x20 DUP3 ADD SWAP1 POP PUSH2 0xC33 PUSH1 0x0 DUP4 ADD DUP5 PUSH2 0xBD8 JUMP JUMPDEST SWAP3 SWAP2 POP POP JUMP JUMPDEST PUSH1 0x0 PUSH20 0xFFFFFFFFFFFFFFFFFFFFFFFFFFFFFFFFFFFFFFFF DUP3 AND SWAP1 POP SWAP2 SWAP1 POP JUMP JUMPDEST PUSH1 0x0 PUSH2 0xC64 DUP3 PUSH2 0xC39 JUMP JUMPDEST SWAP1 POP SWAP2 SWAP1 POP JUMP JUMPDEST PUSH2 0xC74 DUP2 PUSH2 0xC59 JUMP JUMPDEST DUP3 MSTORE POP POP JUMP JUMPDEST PUSH1 0x0 PUSH1 0x20 DUP3 ADD SWAP1 POP PUSH2 0xC8F PUSH1 0x0 DUP4 ADD DUP5 PUSH2 0xC6B JUMP JUMPDEST SWAP3 SWAP2 POP POP JUMP JUMPDEST PUSH1 0x0 DUP1 REVERT JUMPDEST PUSH2 0xCA3 DUP2 PUSH2 0xBCE JUMP JUMPDEST DUP2 EQ PUSH2 0xCAE JUMPI PUSH1 0x0 DUP1 REVERT JUMPDEST POP JUMP JUMPDEST PUSH1 0x0 DUP2 CALLDATALOAD SWAP1 POP PUSH2 0xCC0 DUP2 PUSH2 0xC9A JUMP JUMPDEST SWAP3 SWAP2 POP POP JUMP JUMPDEST PUSH1 0x0 DUP1 PUSH1 0x0 DUP1 PUSH1 0x80 DUP6 DUP8 SUB SLT ISZERO PUSH2 0xCE0 JUMPI PUSH2 0xCDF PUSH2 0xC95 JUMP JUMPDEST JUMPDEST PUSH1 0x0 PUSH2 0xCEE DUP8 DUP3 DUP9 ADD PUSH2 0xCB1 JUMP JUMPDEST SWAP5 POP POP PUSH1 0x20 PUSH2 0xCFF DUP8 DUP3 DUP9 ADD PUSH2 0xCB1 JUMP JUMPDEST SWAP4 POP POP PUSH1 0x40 PUSH2 0xD10 DUP8 DUP3 DUP9 ADD PUSH2 0xCB1 JUMP JUMPDEST SWAP3 POP POP PUSH1 0x60 PUSH2 0xD21 DUP8 DUP3 DUP9 ADD PUSH2 0xCB1 JUMP JUMPDEST SWAP2 POP POP SWAP3 SWAP6 SWAP2 SWAP5 POP SWAP3 POP JUMP JUMPDEST PUSH1 0x0 DUP2 ISZERO ISZERO SWAP1 POP SWAP2 SWAP1 POP JUMP JUMPDEST PUSH2 0xD42 DUP2 PUSH2 0xD2D JUMP JUMPDEST DUP3 MSTORE POP POP JUMP JUMPDEST PUSH1 0x0 PUSH1 0x20 DUP3 ADD SWAP1 POP PUSH2 0xD5D PUSH1 0x0 DUP4 ADD DUP5 PUSH2 0xD39 JUMP JUMPDEST SWAP3 SWAP2 POP POP JUMP JUMPDEST PUSH2 0xD6C DUP2 PUSH2 0xC59 JUMP JUMPDEST DUP2 EQ PUSH2 0xD77 JUMPI PUSH1 0x0 DUP1 REVERT JUMPDEST POP JUMP JUMPDEST PUSH1 0x0 DUP2 CALLDATALOAD SWAP1 POP PUSH2 0xD89 DUP2 PUSH2 0xD63 JUMP JUMPDEST SWAP3 SWAP2 POP POP JUMP JUMPDEST PUSH1 0x0 DUP1 PUSH1 0x0 PUSH1 0x60 DUP5 DUP7 SUB SLT ISZERO PUSH2 0xDA8 JUMPI PUSH2 0xDA7 PUSH2 0xC95 JUMP JUMPDEST JUMPDEST PUSH1 0x0 PUSH2 0xDB6 DUP7 DUP3 DUP8 ADD PUSH2 0xD7A JUMP JUMPDEST SWAP4 POP POP PUSH1 0x20 PUSH2 0xDC7 DUP7 DUP3 DUP8 ADD PUSH2 0xD7A JUMP JUMPDEST SWAP3 POP POP PUSH1 0x40 PUSH2 0xDD8 DUP7 DUP3 DUP8 ADD PUSH2 0xCB1 JUMP JUMPDEST SWAP2 POP POP SWAP3 POP SWAP3 POP SWAP3 JUMP JUMPDEST PUSH1 0x0 DUP1 PUSH1 0x0 PUSH1 0x60 DUP5 DUP7 SUB SLT ISZERO PUSH2 0xDFB JUMPI PUSH2 0xDFA PUSH2 0xC95 JUMP JUMPDEST JUMPDEST PUSH1 0x0 PUSH2 0xE09 DUP7 DUP3 DUP8 ADD PUSH2 0xCB1 JUMP JUMPDEST SWAP4 POP POP PUSH1 0x20 PUSH2 0xE1A DUP7 DUP3 DUP8 ADD PUSH2 0xCB1 JUMP JUMPDEST SWAP3 POP POP PUSH1 0x40 PUSH2 0xE2B DUP7 DUP3 DUP8 ADD PUSH2 0xD7A JUMP JUMPDEST SWAP2 POP POP SWAP3 POP SWAP3 POP SWAP3 JUMP JUMPDEST PUSH1 0x0 DUP1 PUSH1 0x40 DUP4 DUP6 SUB SLT ISZERO PUSH2 0xE4C JUMPI PUSH2 0xE4B PUSH2 0xC95 JUMP JUMPDEST JUMPDEST PUSH1 0x0 PUSH2 0xE5A DUP6 DUP3 DUP7 ADD PUSH2 0xD7A JUMP JUMPDEST SWAP3 POP POP PUSH1 0x20 PUSH2 0xE6B DUP6 DUP3 DUP7 ADD PUSH2 0xCB1 JUMP JUMPDEST SWAP2 POP POP SWAP3 POP SWAP3 SWAP1 POP JUMP JUMPDEST PUSH32 0x4E487B7100000000000000000000000000000000000000000000000000000000 PUSH1 0x0 MSTORE PUSH1 0x12 PUSH1 0x4 MSTORE PUSH1 0x24 PUSH1 0x0 REVERT JUMPDEST PUSH32 0x4E487B7100000000000000000000000000000000000000000000000000000000 PUSH1 0x0 MSTORE PUSH1 0x11 PUSH1 0x4 MSTORE PUSH1 0x24 PUSH1 0x0 REVERT JUMPDEST PUSH1 0x0 PUSH2 0xEDE DUP3 PUSH2 0xBCE JUMP JUMPDEST SWAP2 POP PUSH2 0xEE9 DUP4 PUSH2 0xBCE JUMP JUMPDEST SWAP3 POP DUP3 PUSH2 0xEF9 JUMPI PUSH2 0xEF8 PUSH2 0xE75 JUMP JUMPDEST JUMPDEST DUP3 DUP3 DIV SWAP1 POP SWAP3 SWAP2 POP POP JUMP JUMPDEST PUSH1 0x0 PUSH2 0xF0F DUP3 PUSH2 0xBCE JUMP JUMPDEST SWAP2 POP PUSH2 0xF1A DUP4 PUSH2 0xBCE JUMP JUMPDEST SWAP3 POP DUP3 DUP3 ADD SWAP1 POP DUP1 DUP3 GT ISZERO PUSH2 0xF32 JUMPI PUSH2 0xF31 PUSH2 0xEA4 JUMP JUMPDEST JUMPDEST SWAP3 SWAP2 POP POP JUMP JUMPDEST PUSH1 0x0 PUSH2 0xF43 DUP3 PUSH2 0xBCE JUMP JUMPDEST SWAP2 POP PUSH2 0xF4E DUP4 PUSH2 0xBCE JUMP JUMPDEST SWAP3 POP DUP3 DUP3 SUB SWAP1 POP DUP2 DUP2 GT ISZERO PUSH2 0xF66 JUMPI PUSH2 0xF65 PUSH2 0xEA4 JUMP JUMPDEST JUMPDEST SWAP3 SWAP2 POP POP JUMP JUMPDEST PUSH1 0x0 PUSH1 0x80 DUP3 ADD SWAP1 POP PUSH2 0xF81 PUSH1 0x0 DUP4 ADD DUP8 PUSH2 0xBD8 JUMP JUMPDEST PUSH2 0xF8E PUSH1 0x20 DUP4 ADD DUP7 PUSH2 0xBD8 JUMP JUMPDEST PUSH2 0xF9B PUSH1 0x40 DUP4 ADD DUP6 PUSH2 0xBD8 JUMP JUMPDEST PUSH2 0xFA8 PUSH1 0x60 DUP4 ADD DUP5 PUSH2 0xBD8 JUMP JUMPDEST SWAP6 SWAP5 POP POP POP POP POP JUMP JUMPDEST PUSH1 0x0 DUP3 DUP3 MSTORE PUSH1 0x20 DUP3 ADD SWAP1 POP SWAP3 SWAP2 POP POP JUMP JUMPDEST PUSH32 0x5A65726F2061646472657373657320617265206E6F7420616C6C6F7765642E00 PUSH1 0x0 DUP3 ADD MSTORE POP JUMP JUMPDEST PUSH1 0x0 PUSH2 0xFF8 PUSH1 0x1F DUP4 PUSH2 0xFB1 JUMP JUMPDEST SWAP2 POP PUSH2 0x1003 DUP3 PUSH2 0xFC2 JUMP JUMPDEST PUSH1 0x20 DUP3 ADD SWAP1 POP SWAP2 SWAP1 POP JUMP JUMPDEST PUSH1 0x0 PUSH1 0x20 DUP3 ADD SWAP1 POP DUP2 DUP2 SUB PUSH1 0x0 DUP4 ADD MSTORE PUSH2 0x1027 DUP2 PUSH2 0xFEB JUMP JUMPDEST SWAP1 POP SWAP2 SWAP1 POP JUMP JUMPDEST PUSH32 0x4F6E6C79204C7020686F6C646572732063616E2063616C6C2074686973206675 PUSH1 0x0 DUP3 ADD MSTORE PUSH32 0x6E6374696F6E2E00000000000000000000000000000000000000000000000000 PUSH1 0x20 DUP3 ADD MSTORE POP JUMP JUMPDEST PUSH1 0x0 PUSH2 0x108A PUSH1 0x27 DUP4 PUSH2 0xFB1 JUMP JUMPDEST SWAP2 POP PUSH2 0x1095 DUP3 PUSH2 0x102E JUMP JUMPDEST PUSH1 0x40 DUP3 ADD SWAP1 POP SWAP2 SWAP1 POP JUMP JUMPDEST PUSH1 0x0 PUSH1 0x20 DUP3 ADD SWAP1 POP DUP2 DUP2 SUB PUSH1 0x0 DUP4 ADD MSTORE PUSH2 0x10B9 DUP2 PUSH2 0x107D JUMP JUMPDEST SWAP1 POP SWAP2 SWAP1 POP JUMP JUMPDEST PUSH1 0x0 PUSH1 0x60 DUP3 ADD SWAP1 POP PUSH2 0x10D5 PUSH1 0x0 DUP4 ADD DUP7 PUSH2 0xBD8 JUMP JUMPDEST PUSH2 0x10E2 PUSH1 0x20 DUP4 ADD DUP6 PUSH2 0xBD8 JUMP JUMPDEST PUSH2 0x10EF PUSH1 0x40 DUP4 ADD DUP5 PUSH2 0xC6B JUMP JUMPDEST SWAP5 SWAP4 POP POP POP POP JUMP JUMPDEST PUSH1 0x0 DUP2 SWAP1 POP SWAP3 SWAP2 POP POP JUMP JUMPDEST POP JUMP JUMPDEST PUSH1 0x0 PUSH2 0x1112 PUSH1 0x0 DUP4 PUSH2 0x10F7 JUMP JUMPDEST SWAP2 POP PUSH2 0x111D DUP3 PUSH2 0x1102 JUMP JUMPDEST PUSH1 0x0 DUP3 ADD SWAP1 POP SWAP2 SWAP1 POP JUMP JUMPDEST PUSH1 0x0 PUSH2 0x1133 DUP3 PUSH2 0x1105 JUMP JUMPDEST SWAP2 POP DUP2 SWAP1 POP SWAP2 SWAP1 POP JUMP JUMPDEST PUSH1 0x0 PUSH2 0x1148 DUP3 PUSH2 0xBCE JUMP JUMPDEST SWAP2 POP PUSH2 0x1153 DUP4 PUSH2 0xBCE JUMP JUMPDEST SWAP3 POP DUP3 DUP3 MUL PUSH2 0x1161 DUP2 PUSH2 0xBCE JUMP JUMPDEST SWAP2 POP DUP3 DUP3 DIV DUP5 EQ DUP4 ISZERO OR PUSH2 0x1178 JUMPI PUSH2 0x1177 PUSH2 0xEA4 JUMP JUMPDEST JUMPDEST POP SWAP3 SWAP2 POP POP JUMP JUMPDEST PUSH1 0x0 PUSH1 0x40 DUP3 ADD SWAP1 POP PUSH2 0x1194 PUSH1 0x0 DUP4 ADD DUP6 PUSH2 0xC6B JUMP JUMPDEST PUSH2 0x11A1 PUSH1 0x20 DUP4 ADD DUP5 PUSH2 0xBD8 JUMP JUMPDEST SWAP4 SWAP3 POP POP POP JUMP JUMPDEST PUSH2 0x11B1 DUP2 PUSH2 0xD2D JUMP JUMPDEST DUP2 EQ PUSH2 0x11BC JUMPI PUSH1 0x0 DUP1 REVERT JUMPDEST POP JUMP JUMPDEST PUSH1 0x0 DUP2 MLOAD SWAP1 POP PUSH2 0x11CE DUP2 PUSH2 0x11A8 JUMP JUMPDEST SWAP3 SWAP2 POP POP JUMP JUMPDEST PUSH1 0x0 PUSH1 0x20 DUP3 DUP5 SUB SLT ISZERO PUSH2 0x11EA JUMPI PUSH2 0x11E9 PUSH2 0xC95 JUMP JUMPDEST JUMPDEST PUSH1 0x0 PUSH2 0x11F8 DUP5 DUP3 DUP6 ADD PUSH2 0x11BF JUMP JUMPDEST SWAP2 POP POP SWAP3 SWAP2 POP POP JUMP INVALID LOG2 PUSH5 0x6970667358 0x22 SLT KECCAK256 SDIV 0x29 0xE2 SAR 0xCC SWAP3 BLOBBASEFEE 0x25 CODECOPY EQ PUSH3 0x7C434D SWAP9 PUSH9 0xCFB4429A9E9EBF15BC 0xFC MUL 0x2F PUSH21 0x69C01664736F6C634300081C003300000000000000 "},"methodIdentifiers":{"MINIMUM_LIQUIDITY()":"ba9a7a56","approval(address,address,uint256)":"5c52a5f2","balance()":"b69ef8a8","burn(uint256,uint256,address)":"749388c4","factory()":"c45a0155","getReserves()":"0902f1ac","kLast()":"7464fc3d","liquidityProvider()":"5b8bec55","mint(uint256,uint256,address)":"e7d3fe6b","priceALast()":"5c9d6938","priceBLast()":"0e06dfc9","swap(uint256,uint256,uint256,uint256)":"5673b02d","tokenA()":"0fc63d10","tokenB()":"5f64b55b","transferETH(address,uint256)":"7b1a4909"}}}}}