{"contracts/SuccessCurve.sol":{"SuccessBondingCurve":{"abi":[{"inputs":[{"internalType":"address","name":"_rewardToken","type":"address"}],"stateMutability":"nonpayable","type":"constructor"},{"anonymous":false,"inputs":[{"indexed":false,"internalType":"uint256","name":"newProgress","type":"uint256"},{"indexed":false,"internalType":"uint256","name":"correlationScore","type":"uint256"}],"name":"BondingCurveUpdated","type":"event"},{"inputs":[],"name":"SCALE_FACTOR","outputs":[{"internalType":"uint256","name":"","type":"uint256"}],"stateMutability":"view","type":"function"},{"inputs":[],"name":"bondingCurveProgress","outputs":[{"internalType":"uint256","name":"","type":"uint256"}],"stateMutability":"view","type":"function"},{"inputs":[{"internalType":"uint256","name":"correlationScore","type":"uint256"}],"name":"checkEligibility","outputs":[],"stateMutability":"nonpayable","type":"function"},{"inputs":[],"name":"claimDevReward","outputs":[],"stateMutability":"nonpayable","type":"function"},{"inputs":[{"internalType":"address","name":"","type":"address"}],"name":"claimed","outputs":[{"internalType":"bool","name":"","type":"bool"}],"stateMutability":"view","type":"function"},{"inputs":[],"name":"contributionCount","outputs":[{"internalType":"uint256","name":"","type":"uint256"}],"stateMutability":"view","type":"function"},{"inputs":[{"internalType":"address","name":"","type":"address"}],"name":"contributions","outputs":[{"internalType":"uint256","name":"","type":"uint256"}],"stateMutability":"view","type":"function"},{"inputs":[],"name":"getBondingCurveProgress","outputs":[{"internalType":"uint256","name":"","type":"uint256"}],"stateMutability":"view","type":"function"},{"inputs":[{"internalType":"address","name":"contributor","type":"address"}],"name":"getContribution","outputs":[{"internalType":"uint256","name":"","type":"uint256"}],"stateMutability":"view","type":"function"},{"inputs":[],"name":"isComplete","outputs":[{"internalType":"bool","name":"","type":"bool"}],"stateMutability":"view","type":"function"},{"inputs":[],"name":"owner","outputs":[{"internalType":"address","name":"","type":"address"}],"stateMutability":"view","type":"function"},{"inputs":[],"name":"rewardToken","outputs":[{"internalType":"contract IToken","name":"","type":"address"}],"stateMutability":"view","type":"function"},{"inputs":[{"internalType":"uint256","name":"correlationScore","type":"uint256"}],"name":"updateBondingCurve","outputs":[],"stateMutability":"nonpayable","type":"function"},{"inputs":[],"name":"withdraw","outputs":[],"stateMutability":"nonpayable","type":"function"}],"evm":{"bytecode":{"linkReferences":{},"object":"608060405234801561001057600080fd5b5060405161113938038061113983398181016040528101906100329190610147565b336000806101000a81548173ffffffffffffffffffffffffffffffffffffffff021916908373ffffffffffffffffffffffffffffffffffffffff16021790555060006001819055506000600260006101000a81548160ff021916908315150217905550600060048190555080600560006101000a81548173ffffffffffffffffffffffffffffffffffffffff021916908373ffffffffffffffffffffffffffffffffffffffff16021790555050610174565b600080fd5b600073ffffffffffffffffffffffffffffffffffffffff82169050919050565b6000610114826100e9565b9050919050565b61012481610109565b811461012f57600080fd5b50565b6000815190506101418161011b565b92915050565b60006020828403121561015d5761015c6100e4565b5b600061016b84828501610132565b91505092915050565b610fb6806101836000396000f3fe608060405234801561001057600080fd5b50600436106100ea5760003560e01c8063897802dc1161008c578063c884ef8311610066578063c884ef8314610227578063ce4b5bbe14610257578063d95cc08514610275578063f7c618c11461027f576100ea565b8063897802dc146101cd5780638da5cb5b146101eb578063b2fa1c9e14610209576100ea565b806342e94c90116100c857806342e94c90146101455780635b18056b1461017557806367558d46146101935780637b39fed6146101b1576100ea565b806321eff7fc146100ef578063335de0fc1461011f5780633ccfd60b1461013b575b600080fd5b610109600480360381019061010491906109f1565b61029d565b6040516101169190610a37565b60405180910390f35b61013960048036038101906101349190610a7e565b6102e6565b005b6101436103c1565b005b61015f600480360381019061015a91906109f1565b610479565b60405161016c9190610a37565b60405180910390f35b61017d610491565b60405161018a9190610a37565b60405180910390f35b61019b610497565b6040516101a89190610a37565b60405180910390f35b6101cb60048036038101906101c69190610a7e565b6104a1565b005b6101d56105b6565b6040516101e29190610a37565b60405180910390f35b6101f36105bc565b6040516102009190610aba565b60405180910390f35b6102116105e0565b60405161021e9190610af0565b60405180910390f35b610241600480360381019061023c91906109f1565b6105f3565b60405161024e9190610af0565b60405180910390f35b61025f610613565b60405161026c9190610a37565b60405180910390f35b61027d610618565b005b610287610968565b6040516102949190610b6a565b60405180910390f35b6000600360008373ffffffffffffffffffffffffffffffffffffffff1673ffffffffffffffffffffffffffffffffffffffff168152602001908152602001600020549050919050565b60646001541061034b576001600260006101000a81548160ff0219169083151502179055507fd4de06ad89a301c9f346b56e6bec71f5866b2c56f30da88147a5e4d0c62fa68f6001548260405161033e929190610b85565b60405180910390a16103be565b600081905080600160008282546103629190610bdd565b925050819055507fd4de06ad89a301c9f346b56e6bec71f5866b2c56f30da88147a5e4d0c62fa68f6001548360405161039c929190610b85565b60405180910390a1600460008154809291906103b790610c11565b9190505550505b50565b600260009054906101000a900460ff16610410576040517f08c379a000000000000000000000000000000000000000000000000000000000815260040161040790610cb6565b60405180910390fd5b60008054906101000a900473ffffffffffffffffffffffffffffffffffffffff1673ffffffffffffffffffffffffffffffffffffffff166108fc479081150290604051600060405180830381858888f19350505050158015610476573d6000803e3d6000fd5b50565b60036020528060005260406000206000915090505481565b60045481565b6000600154905090565b60648111156104e5576040517f08c379a00000000000000000000000000000000000000000000000000000000081526004016104dc90610d22565b60405180910390fd5b600260009054906101000a900460ff166105b35760288111156105b2573073ffffffffffffffffffffffffffffffffffffffff1663335de0fc826040518263ffffffff1660e01b815260040161053b9190610a37565b600060405180830381600087803b15801561055557600080fd5b505af1158015610569573d6000803e3d6000fd5b5050505080600360003373ffffffffffffffffffffffffffffffffffffffff1673ffffffffffffffffffffffffffffffffffffffff168152602001908152602001600020819055505b5b50565b60015481565b60008054906101000a900473ffffffffffffffffffffffffffffffffffffffff1681565b600260009054906101000a900460ff1681565b60066020528060005260406000206000915054906101000a900460ff1681565b606481565b600260009054906101000a900460ff16610667576040517f08c379a000000000000000000000000000000000000000000000000000000000815260040161065e90610cb6565b60405180910390fd5b6000600360003373ffffffffffffffffffffffffffffffffffffffff1673ffffffffffffffffffffffffffffffffffffffff16815260200190815260200160002054116106e9576040517f08c379a00000000000000000000000000000000000000000000000000000000081526004016106e090610d8e565b60405180910390fd5b600660003373ffffffffffffffffffffffffffffffffffffffff1673ffffffffffffffffffffffffffffffffffffffff16815260200190815260200160002060009054906101000a900460ff1615610776576040517f08c379a000000000000000000000000000000000000000000000000000000000815260040161076d90610dfa565b60405180910390fd5b60006064600560009054906101000a900473ffffffffffffffffffffffffffffffffffffffff1673ffffffffffffffffffffffffffffffffffffffff166370a08231306040518263ffffffff1660e01b81526004016107d59190610aba565b602060405180830381865afa1580156107f2573d6000803e3d6000fd5b505050506040513d601f19601f820116820180604052508101906108169190610e2f565b600360003373ffffffffffffffffffffffffffffffffffffffff1673ffffffffffffffffffffffffffffffffffffffff168152602001908152602001600020546108609190610e5c565b61086a9190610ecd565b9050600560009054906101000a900473ffffffffffffffffffffffffffffffffffffffff1673ffffffffffffffffffffffffffffffffffffffff1663a9059cbb33836040518363ffffffff1660e01b81526004016108c9929190610efe565b6020604051808303816000875af11580156108e8573d6000803e3d6000fd5b505050506040513d601f19601f8201168201806040525081019061090c9190610f53565b506001600660003373ffffffffffffffffffffffffffffffffffffffff1673ffffffffffffffffffffffffffffffffffffffff16815260200190815260200160002060006101000a81548160ff02191690831515021790555050565b600560009054906101000a900473ffffffffffffffffffffffffffffffffffffffff1681565b600080fd5b600073ffffffffffffffffffffffffffffffffffffffff82169050919050565b60006109be82610993565b9050919050565b6109ce816109b3565b81146109d957600080fd5b50565b6000813590506109eb816109c5565b92915050565b600060208284031215610a0757610a0661098e565b5b6000610a15848285016109dc565b91505092915050565b6000819050919050565b610a3181610a1e565b82525050565b6000602082019050610a4c6000830184610a28565b92915050565b610a5b81610a1e565b8114610a6657600080fd5b50565b600081359050610a7881610a52565b92915050565b600060208284031215610a9457610a9361098e565b5b6000610aa284828501610a69565b91505092915050565b610ab4816109b3565b82525050565b6000602082019050610acf6000830184610aab565b92915050565b60008115159050919050565b610aea81610ad5565b82525050565b6000602082019050610b056000830184610ae1565b92915050565b6000819050919050565b6000610b30610b2b610b2684610993565b610b0b565b610993565b9050919050565b6000610b4282610b15565b9050919050565b6000610b5482610b37565b9050919050565b610b6481610b49565b82525050565b6000602082019050610b7f6000830184610b5b565b92915050565b6000604082019050610b9a6000830185610a28565b610ba76020830184610a28565b9392505050565b7f4e487b7100000000000000000000000000000000000000000000000000000000600052601160045260246000fd5b6000610be882610a1e565b9150610bf383610a1e565b9250828201905080821115610c0b57610c0a610bae565b5b92915050565b6000610c1c82610a1e565b91507fffffffffffffffffffffffffffffffffffffffffffffffffffffffffffffffff8203610c4e57610c4d610bae565b5b600182019050919050565b600082825260208201905092915050565b7f426f6e64696e67206375727665206973206e6f7420636f6d706c657465000000600082015250565b6000610ca0601d83610c59565b9150610cab82610c6a565b602082019050919050565b60006020820190508181036000830152610ccf81610c93565b9050919050565b7f496e76616c69642073636f726500000000000000000000000000000000000000600082015250565b6000610d0c600d83610c59565b9150610d1782610cd6565b602082019050919050565b60006020820190508181036000830152610d3b81610cff565b9050919050565b7f4e6f20636f6e747269627574696f6e0000000000000000000000000000000000600082015250565b6000610d78600f83610c59565b9150610d8382610d42565b602082019050919050565b60006020820190508181036000830152610da781610d6b565b9050919050565b7f416c726561647920636c61696d65640000000000000000000000000000000000600082015250565b6000610de4600f83610c59565b9150610def82610dae565b602082019050919050565b60006020820190508181036000830152610e1381610dd7565b9050919050565b600081519050610e2981610a52565b92915050565b600060208284031215610e4557610e4461098e565b5b6000610e5384828501610e1a565b91505092915050565b6000610e6782610a1e565b9150610e7283610a1e565b9250828202610e8081610a1e565b91508282048414831517610e9757610e96610bae565b5b5092915050565b7f4e487b7100000000000000000000000000000000000000000000000000000000600052601260045260246000fd5b6000610ed882610a1e565b9150610ee383610a1e565b925082610ef357610ef2610e9e565b5b828204905092915050565b6000604082019050610f136000830185610aab565b610f206020830184610a28565b9392505050565b610f3081610ad5565b8114610f3b57600080fd5b50565b600081519050610f4d81610f27565b92915050565b600060208284031215610f6957610f6861098e565b5b6000610f7784828501610f3e565b9150509291505056fea2646970667358221220f63f955f1e7dbc621892a22ead0329eee3f419a895486076f58790c2329ec8dc64736f6c634300081c0033","opcodes":"PUSH1 0x80 PUSH1 0x40 MSTORE CALLVALUE DUP1 ISZERO PUSH2 0x10 JUMPI PUSH1 0x0 DUP1 REVERT JUMPDEST POP PUSH1 0x40 MLOAD PUSH2 0x1139 CODESIZE SUB DUP1 PUSH2 0x1139 DUP4 CODECOPY DUP2 DUP2 ADD PUSH1 0x40 MSTORE DUP2 ADD SWAP1 PUSH2 0x32 SWAP2 SWAP1 PUSH2 0x147 JUMP JUMPDEST CALLER PUSH1 0x0 DUP1 PUSH2 0x100 EXP DUP2 SLOAD DUP2 PUSH20 0xFFFFFFFFFFFFFFFFFFFFFFFFFFFFFFFFFFFFFFFF MUL NOT AND SWAP1 DUP4 PUSH20 0xFFFFFFFFFFFFFFFFFFFFFFFFFFFFFFFFFFFFFFFF AND MUL OR SWAP1 SSTORE POP PUSH1 0x0 PUSH1 0x1 DUP2 SWAP1 SSTORE POP PUSH1 0x0 PUSH1 0x2 PUSH1 0x0 PUSH2 0x100 EXP DUP2 SLOAD DUP2 PUSH1 0xFF MUL NOT AND SWAP1 DUP4 ISZERO ISZERO MUL OR SWAP1 SSTORE POP PUSH1 0x0 PUSH1 0x4 DUP2 SWAP1 SSTORE POP DUP1 PUSH1 0x5 PUSH1 0x0 PUSH2 0x100 EXP DUP2 SLOAD DUP2 PUSH20 0xFFFFFFFFFFFFFFFFFFFFFFFFFFFFFFFFFFFFFFFF MUL NOT AND SWAP1 DUP4 PUSH20 0xFFFFFFFFFFFFFFFFFFFFFFFFFFFFFFFFFFFFFFFF AND MUL OR SWAP1 SSTORE POP POP PUSH2 0x174 JUMP JUMPDEST PUSH1 0x0 DUP1 REVERT JUMPDEST PUSH1 0x0 PUSH20 0xFFFFFFFFFFFFFFFFFFFFFFFFFFFFFFFFFFFFFFFF DUP3 AND SWAP1 POP SWAP2 SWAP1 POP JUMP JUMPDEST PUSH1 0x0 PUSH2 0x114 DUP3 PUSH2 0xE9 JUMP JUMPDEST SWAP1 POP SWAP2 SWAP1 POP JUMP JUMPDEST PUSH2 0x124 DUP2 PUSH2 0x109 JUMP JUMPDEST DUP2 EQ PUSH2 0x12F JUMPI PUSH1 0x0 DUP1 REVERT JUMPDEST POP JUMP JUMPDEST PUSH1 0x0 DUP2 MLOAD SWAP1 POP PUSH2 0x141 DUP2 PUSH2 0x11B JUMP JUMPDEST SWAP3 SWAP2 POP POP JUMP JUMPDEST PUSH1 0x0 PUSH1 0x20 DUP3 DUP5 SUB SLT ISZERO PUSH2 0x15D JUMPI PUSH2 0x15C PUSH2 0xE4 JUMP JUMPDEST JUMPDEST PUSH1 0x0 PUSH2 0x16B DUP5 DUP3 DUP6 ADD PUSH2 0x132 JUMP JUMPDEST SWAP2 POP POP SWAP3 SWAP2 POP POP JUMP JUMPDEST PUSH2 0xFB6 DUP1 PUSH2 0x183 PUSH1 0x0 CODECOPY PUSH1 0x0 RETURN INVALID PUSH1 0x80 PUSH1 0x40 MSTORE CALLVALUE DUP1 ISZERO PUSH2 0x10 JUMPI PUSH1 0x0 DUP1 REVERT JUMPDEST POP PUSH1 0x4 CALLDATASIZE LT PUSH2 0xEA JUMPI PUSH1 0x0 CALLDATALOAD PUSH1 0xE0 SHR DUP1 PUSH4 0x897802DC GT PUSH2 0x8C JUMPI DUP1 PUSH4 0xC884EF83 GT PUSH2 0x66 JUMPI DUP1 PUSH4 0xC884EF83 EQ PUSH2 0x227 JUMPI DUP1 PUSH4 0xCE4B5BBE EQ PUSH2 0x257 JUMPI DUP1 PUSH4 0xD95CC085 EQ PUSH2 0x275 JUMPI DUP1 PUSH4 0xF7C618C1 EQ PUSH2 0x27F JUMPI PUSH2 0xEA JUMP JUMPDEST DUP1 PUSH4 0x897802DC EQ PUSH2 0x1CD JUMPI DUP1 PUSH4 0x8DA5CB5B EQ PUSH2 0x1EB JUMPI DUP1 PUSH4 0xB2FA1C9E EQ PUSH2 0x209 JUMPI PUSH2 0xEA JUMP JUMPDEST DUP1 PUSH4 0x42E94C90 GT PUSH2 0xC8 JUMPI DUP1 PUSH4 0x42E94C90 EQ PUSH2 0x145 JUMPI DUP1 PUSH4 0x5B18056B EQ PUSH2 0x175 JUMPI DUP1 PUSH4 0x67558D46 EQ PUSH2 0x193 JUMPI DUP1 PUSH4 0x7B39FED6 EQ PUSH2 0x1B1 JUMPI PUSH2 0xEA JUMP JUMPDEST DUP1 PUSH4 0x21EFF7FC EQ PUSH2 0xEF JUMPI DUP1 PUSH4 0x335DE0FC EQ PUSH2 0x11F JUMPI DUP1 PUSH4 0x3CCFD60B EQ PUSH2 0x13B JUMPI JUMPDEST PUSH1 0x0 DUP1 REVERT JUMPDEST PUSH2 0x109 PUSH1 0x4 DUP1 CALLDATASIZE SUB DUP2 ADD SWAP1 PUSH2 0x104 SWAP2 SWAP1 PUSH2 0x9F1 JUMP JUMPDEST PUSH2 0x29D JUMP JUMPDEST PUSH1 0x40 MLOAD PUSH2 0x116 SWAP2 SWAP1 PUSH2 0xA37 JUMP JUMPDEST PUSH1 0x40 MLOAD DUP1 SWAP2 SUB SWAP1 RETURN JUMPDEST PUSH2 0x139 PUSH1 0x4 DUP1 CALLDATASIZE SUB DUP2 ADD SWAP1 PUSH2 0x134 SWAP2 SWAP1 PUSH2 0xA7E JUMP JUMPDEST PUSH2 0x2E6 JUMP JUMPDEST STOP JUMPDEST PUSH2 0x143 PUSH2 0x3C1 JUMP JUMPDEST STOP JUMPDEST PUSH2 0x15F PUSH1 0x4 DUP1 CALLDATASIZE SUB DUP2 ADD SWAP1 PUSH2 0x15A SWAP2 SWAP1 PUSH2 0x9F1 JUMP JUMPDEST PUSH2 0x479 JUMP JUMPDEST PUSH1 0x40 MLOAD PUSH2 0x16C SWAP2 SWAP1 PUSH2 0xA37 JUMP JUMPDEST PUSH1 0x40 MLOAD DUP1 SWAP2 SUB SWAP1 RETURN JUMPDEST PUSH2 0x17D PUSH2 0x491 JUMP JUMPDEST PUSH1 0x40 MLOAD PUSH2 0x18A SWAP2 SWAP1 PUSH2 0xA37 JUMP JUMPDEST PUSH1 0x40 MLOAD DUP1 SWAP2 SUB SWAP1 RETURN JUMPDEST PUSH2 0x19B PUSH2 0x497 JUMP JUMPDEST PUSH1 0x40 MLOAD PUSH2 0x1A8 SWAP2 SWAP1 PUSH2 0xA37 JUMP JUMPDEST PUSH1 0x40 MLOAD DUP1 SWAP2 SUB SWAP1 RETURN JUMPDEST PUSH2 0x1CB PUSH1 0x4 DUP1 CALLDATASIZE SUB DUP2 ADD SWAP1 PUSH2 0x1C6 SWAP2 SWAP1 PUSH2 0xA7E JUMP JUMPDEST PUSH2 0x4A1 JUMP JUMPDEST STOP JUMPDEST PUSH2 0x1D5 PUSH2 0x5B6 JUMP JUMPDEST PUSH1 0x40 MLOAD PUSH2 0x1E2 SWAP2 SWAP1 PUSH2 0xA37 JUMP JUMPDEST PUSH1 0x40 MLOAD DUP1 SWAP2 SUB SWAP1 RETURN JUMPDEST PUSH2 0x1F3 PUSH2 0x5BC JUMP JUMPDEST PUSH1 0x40 MLOAD PUSH2 0x200 SWAP2 SWAP1 PUSH2 0xABA JUMP JUMPDEST PUSH1 0x40 MLOAD DUP1 SWAP2 SUB SWAP1 RETURN JUMPDEST PUSH2 0x211 PUSH2 0x5E0 JUMP JUMPDEST PUSH1 0x40 MLOAD PUSH2 0x21E SWAP2 SWAP1 PUSH2 0xAF0 JUMP JUMPDEST PUSH1 0x40 MLOAD DUP1 SWAP2 SUB SWAP1 RETURN JUMPDEST PUSH2 0x241 PUSH1 0x4 DUP1 CALLDATASIZE SUB DUP2 ADD SWAP1 PUSH2 0x23C SWAP2 SWAP1 PUSH2 0x9F1 JUMP JUMPDEST PUSH2 0x5F3 JUMP JUMPDEST PUSH1 0x40 MLOAD PUSH2 0x24E SWAP2 SWAP1 PUSH2 0xAF0 JUMP JUMPDEST PUSH1 0x40 MLOAD DUP1 SWAP2 SUB SWAP1 RETURN JUMPDEST PUSH2 0x25F PUSH2 0x613 JUMP JUMPDEST PUSH1 0x40 MLOAD PUSH2 0x26C SWAP2 SWAP1 PUSH2 0xA37 JUMP JUMPDEST PUSH1 0x40 MLOAD DUP1 SWAP2 SUB SWAP1 RETURN JUMPDEST PUSH2 0x27D PUSH2 0x618 JUMP JUMPDEST STOP JUMPDEST PUSH2 0x287 PUSH2 0x968 JUMP JUMPDEST PUSH1 0x40 MLOAD PUSH2 0x294 SWAP2 SWAP1 PUSH2 0xB6A JUMP JUMPDEST PUSH1 0x40 MLOAD DUP1 SWAP2 SUB SWAP1 RETURN JUMPDEST PUSH1 0x0 PUSH1 0x3 PUSH1 0x0 DUP4 PUSH20 0xFFFFFFFFFFFFFFFFFFFFFFFFFFFFFFFFFFFFFFFF AND PUSH20 0xFFFFFFFFFFFFFFFFFFFFFFFFFFFFFFFFFFFFFFFF AND DUP2 MSTORE PUSH1 0x20 ADD SWAP1 DUP2 MSTORE PUSH1 0x20 ADD PUSH1 0x0 KECCAK256 SLOAD SWAP1 POP SWAP2 SWAP1 POP JUMP JUMPDEST PUSH1 0x64 PUSH1 0x1 SLOAD LT PUSH2 0x34B JUMPI PUSH1 0x1 PUSH1 0x2 PUSH1 0x0 PUSH2 0x100 EXP DUP2 SLOAD DUP2 PUSH1 0xFF MUL NOT AND SWAP1 DUP4 ISZERO ISZERO MUL OR SWAP1 SSTORE POP PUSH32 0xD4DE06AD89A301C9F346B56E6BEC71F5866B2C56F30DA88147A5E4D0C62FA68F PUSH1 0x1 SLOAD DUP3 PUSH1 0x40 MLOAD PUSH2 0x33E SWAP3 SWAP2 SWAP1 PUSH2 0xB85 JUMP JUMPDEST PUSH1 0x40 MLOAD DUP1 SWAP2 SUB SWAP1 LOG1 PUSH2 0x3BE JUMP JUMPDEST PUSH1 0x0 DUP2 SWAP1 POP DUP1 PUSH1 0x1 PUSH1 0x0 DUP3 DUP3 SLOAD PUSH2 0x362 SWAP2 SWAP1 PUSH2 0xBDD JUMP JUMPDEST SWAP3 POP POP DUP2 SWAP1 SSTORE POP PUSH32 0xD4DE06AD89A301C9F346B56E6BEC71F5866B2C56F30DA88147A5E4D0C62FA68F PUSH1 0x1 SLOAD DUP4 PUSH1 0x40 MLOAD PUSH2 0x39C SWAP3 SWAP2 SWAP1 PUSH2 0xB85 JUMP JUMPDEST PUSH1 0x40 MLOAD DUP1 SWAP2 SUB SWAP1 LOG1 PUSH1 0x4 PUSH1 0x0 DUP2 SLOAD DUP1 SWAP3 SWAP2 SWAP1 PUSH2 0x3B7 SWAP1 PUSH2 0xC11 JUMP JUMPDEST SWAP2 SWAP1 POP SSTORE POP POP JUMPDEST POP JUMP JUMPDEST PUSH1 0x2 PUSH1 0x0 SWAP1 SLOAD SWAP1 PUSH2 0x100 EXP SWAP1 DIV PUSH1 0xFF AND PUSH2 0x410 JUMPI PUSH1 0x40 MLOAD PUSH32 0x8C379A000000000000000000000000000000000000000000000000000000000 DUP2 MSTORE PUSH1 0x4 ADD PUSH2 0x407 SWAP1 PUSH2 0xCB6 JUMP JUMPDEST PUSH1 0x40 MLOAD DUP1 SWAP2 SUB SWAP1 REVERT JUMPDEST PUSH1 0x0 DUP1 SLOAD SWAP1 PUSH2 0x100 EXP SWAP1 DIV PUSH20 0xFFFFFFFFFFFFFFFFFFFFFFFFFFFFFFFFFFFFFFFF AND PUSH20 0xFFFFFFFFFFFFFFFFFFFFFFFFFFFFFFFFFFFFFFFF AND PUSH2 0x8FC SELFBALANCE SWAP1 DUP2 ISZERO MUL SWAP1 PUSH1 0x40 MLOAD PUSH1 0x0 PUSH1 0x40 MLOAD DUP1 DUP4 SUB DUP2 DUP6 DUP9 DUP9 CALL SWAP4 POP POP POP POP ISZERO DUP1 ISZERO PUSH2 0x476 JUMPI RETURNDATASIZE PUSH1 0x0 DUP1 RETURNDATACOPY RETURNDATASIZE PUSH1 0x0 REVERT JUMPDEST POP JUMP JUMPDEST PUSH1 0x3 PUSH1 0x20 MSTORE DUP1 PUSH1 0x0 MSTORE PUSH1 0x40 PUSH1 0x0 KECCAK256 PUSH1 0x0 SWAP2 POP SWAP1 POP SLOAD DUP2 JUMP JUMPDEST PUSH1 0x4 SLOAD DUP2 JUMP JUMPDEST PUSH1 0x0 PUSH1 0x1 SLOAD SWAP1 POP SWAP1 JUMP JUMPDEST PUSH1 0x64 DUP2 GT ISZERO PUSH2 0x4E5 JUMPI PUSH1 0x40 MLOAD PUSH32 0x8C379A000000000000000000000000000000000000000000000000000000000 DUP2 MSTORE PUSH1 0x4 ADD PUSH2 0x4DC SWAP1 PUSH2 0xD22 JUMP JUMPDEST PUSH1 0x40 MLOAD DUP1 SWAP2 SUB SWAP1 REVERT JUMPDEST PUSH1 0x2 PUSH1 0x0 SWAP1 SLOAD SWAP1 PUSH2 0x100 EXP SWAP1 DIV PUSH1 0xFF AND PUSH2 0x5B3 JUMPI PUSH1 0x28 DUP2 GT ISZERO PUSH2 0x5B2 JUMPI ADDRESS PUSH20 0xFFFFFFFFFFFFFFFFFFFFFFFFFFFFFFFFFFFFFFFF AND PUSH4 0x335DE0FC DUP3 PUSH1 0x40 MLOAD DUP3 PUSH4 0xFFFFFFFF AND PUSH1 0xE0 SHL DUP2 MSTORE PUSH1 0x4 ADD PUSH2 0x53B SWAP2 SWAP1 PUSH2 0xA37 JUMP JUMPDEST PUSH1 0x0 PUSH1 0x40 MLOAD DUP1 DUP4 SUB DUP2 PUSH1 0x0 DUP8 DUP1 EXTCODESIZE ISZERO DUP1 ISZERO PUSH2 0x555 JUMPI PUSH1 0x0 DUP1 REVERT JUMPDEST POP GAS CALL ISZERO DUP1 ISZERO PUSH2 0x569 JUMPI RETURNDATASIZE PUSH1 0x0 DUP1 RETURNDATACOPY RETURNDATASIZE PUSH1 0x0 REVERT JUMPDEST POP POP POP POP DUP1 PUSH1 0x3 PUSH1 0x0 CALLER PUSH20 0xFFFFFFFFFFFFFFFFFFFFFFFFFFFFFFFFFFFFFFFF AND PUSH20 0xFFFFFFFFFFFFFFFFFFFFFFFFFFFFFFFFFFFFFFFF AND DUP2 MSTORE PUSH1 0x20 ADD SWAP1 DUP2 MSTORE PUSH1 0x20 ADD PUSH1 0x0 KECCAK256 DUP2 SWAP1 SSTORE POP JUMPDEST JUMPDEST POP JUMP JUMPDEST PUSH1 0x1 SLOAD DUP2 JUMP JUMPDEST PUSH1 0x0 DUP1 SLOAD SWAP1 PUSH2 0x100 EXP SWAP1 DIV PUSH20 0xFFFFFFFFFFFFFFFFFFFFFFFFFFFFFFFFFFFFFFFF AND DUP2 JUMP JUMPDEST PUSH1 0x2 PUSH1 0x0 SWAP1 SLOAD SWAP1 PUSH2 0x100 EXP SWAP1 DIV PUSH1 0xFF AND DUP2 JUMP JUMPDEST PUSH1 0x6 PUSH1 0x20 MSTORE DUP1 PUSH1 0x0 MSTORE PUSH1 0x40 PUSH1 0x0 KECCAK256 PUSH1 0x0 SWAP2 POP SLOAD SWAP1 PUSH2 0x100 EXP SWAP1 DIV PUSH1 0xFF AND DUP2 JUMP JUMPDEST PUSH1 0x64 DUP2 JUMP JUMPDEST PUSH1 0x2 PUSH1 0x0 SWAP1 SLOAD SWAP1 PUSH2 0x100 EXP SWAP1 DIV PUSH1 0xFF AND PUSH2 0x667 JUMPI PUSH1 0x40 MLOAD PUSH32 0x8C379A000000000000000000000000000000000000000000000000000000000 DUP2 MSTORE PUSH1 0x4 ADD PUSH2 0x65E SWAP1 PUSH2 0xCB6 JUMP JUMPDEST PUSH1 0x40 MLOAD DUP1 SWAP2 SUB SWAP1 REVERT JUMPDEST PUSH1 0x0 PUSH1 0x3 PUSH1 0x0 CALLER PUSH20 0xFFFFFFFFFFFFFFFFFFFFFFFFFFFFFFFFFFFFFFFF AND PUSH20 0xFFFFFFFFFFFFFFFFFFFFFFFFFFFFFFFFFFFFFFFF AND DUP2 MSTORE PUSH1 0x20 ADD SWAP1 DUP2 MSTORE PUSH1 0x20 ADD PUSH1 0x0 KECCAK256 SLOAD GT PUSH2 0x6E9 JUMPI PUSH1 0x40 MLOAD PUSH32 0x8C379A000000000000000000000000000000000000000000000000000000000 DUP2 MSTORE PUSH1 0x4 ADD PUSH2 0x6E0 SWAP1 PUSH2 0xD8E JUMP JUMPDEST PUSH1 0x40 MLOAD DUP1 SWAP2 SUB SWAP1 REVERT JUMPDEST PUSH1 0x6 PUSH1 0x0 CALLER PUSH20 0xFFFFFFFFFFFFFFFFFFFFFFFFFFFFFFFFFFFFFFFF AND PUSH20 0xFFFFFFFFFFFFFFFFFFFFFFFFFFFFFFFFFFFFFFFF AND DUP2 MSTORE PUSH1 0x20 ADD SWAP1 DUP2 MSTORE PUSH1 0x20 ADD PUSH1 0x0 KECCAK256 PUSH1 0x0 SWAP1 SLOAD SWAP1 PUSH2 0x100 EXP SWAP1 DIV PUSH1 0xFF AND ISZERO PUSH2 0x776 JUMPI PUSH1 0x40 MLOAD PUSH32 0x8C379A000000000000000000000000000000000000000000000000000000000 DUP2 MSTORE PUSH1 0x4 ADD PUSH2 0x76D SWAP1 PUSH2 0xDFA JUMP JUMPDEST PUSH1 0x40 MLOAD DUP1 SWAP2 SUB SWAP1 REVERT JUMPDEST PUSH1 0x0 PUSH1 0x64 PUSH1 0x5 PUSH1 0x0 SWAP1 SLOAD SWAP1 PUSH2 0x100 EXP SWAP1 DIV PUSH20 0xFFFFFFFFFFFFFFFFFFFFFFFFFFFFFFFFFFFFFFFF AND PUSH20 0xFFFFFFFFFFFFFFFFFFFFFFFFFFFFFFFFFFFFFFFF AND PUSH4 0x70A08231 ADDRESS PUSH1 0x40 MLOAD DUP3 PUSH4 0xFFFFFFFF AND PUSH1 0xE0 SHL DUP2 MSTORE PUSH1 0x4 ADD PUSH2 0x7D5 SWAP2 SWAP1 PUSH2 0xABA JUMP JUMPDEST PUSH1 0x20 PUSH1 0x40 MLOAD DUP1 DUP4 SUB DUP2 DUP7 GAS STATICCALL ISZERO DUP1 ISZERO PUSH2 0x7F2 JUMPI RETURNDATASIZE PUSH1 0x0 DUP1 RETURNDATACOPY RETURNDATASIZE PUSH1 0x0 REVERT JUMPDEST POP POP POP POP PUSH1 0x40 MLOAD RETURNDATASIZE PUSH1 0x1F NOT PUSH1 0x1F DUP3 ADD AND DUP3 ADD DUP1 PUSH1 0x40 MSTORE POP DUP2 ADD SWAP1 PUSH2 0x816 SWAP2 SWAP1 PUSH2 0xE2F JUMP JUMPDEST PUSH1 0x3 PUSH1 0x0 CALLER PUSH20 0xFFFFFFFFFFFFFFFFFFFFFFFFFFFFFFFFFFFFFFFF AND PUSH20 0xFFFFFFFFFFFFFFFFFFFFFFFFFFFFFFFFFFFFFFFF AND DUP2 MSTORE PUSH1 0x20 ADD SWAP1 DUP2 MSTORE PUSH1 0x20 ADD PUSH1 0x0 KECCAK256 SLOAD PUSH2 0x860 SWAP2 SWAP1 PUSH2 0xE5C JUMP JUMPDEST PUSH2 0x86A SWAP2 SWAP1 PUSH2 0xECD JUMP JUMPDEST SWAP1 POP PUSH1 0x5 PUSH1 0x0 SWAP1 SLOAD SWAP1 PUSH2 0x100 EXP SWAP1 DIV PUSH20 0xFFFFFFFFFFFFFFFFFFFFFFFFFFFFFFFFFFFFFFFF AND PUSH20 0xFFFFFFFFFFFFFFFFFFFFFFFFFFFFFFFFFFFFFFFF AND PUSH4 0xA9059CBB CALLER DUP4 PUSH1 0x40 MLOAD DUP4 PUSH4 0xFFFFFFFF AND PUSH1 0xE0 SHL DUP2 MSTORE PUSH1 0x4 ADD PUSH2 0x8C9 SWAP3 SWAP2 SWAP1 PUSH2 0xEFE JUMP JUMPDEST PUSH1 0x20 PUSH1 0x40 MLOAD DUP1 DUP4 SUB DUP2 PUSH1 0x0 DUP8 GAS CALL ISZERO DUP1 ISZERO PUSH2 0x8E8 JUMPI RETURNDATASIZE PUSH1 0x0 DUP1 RETURNDATACOPY RETURNDATASIZE PUSH1 0x0 REVERT JUMPDEST POP POP POP POP PUSH1 0x40 MLOAD RETURNDATASIZE PUSH1 0x1F NOT PUSH1 0x1F DUP3 ADD AND DUP3 ADD DUP1 PUSH1 0x40 MSTORE POP DUP2 ADD SWAP1 PUSH2 0x90C SWAP2 SWAP1 PUSH2 0xF53 JUMP JUMPDEST POP PUSH1 0x1 PUSH1 0x6 PUSH1 0x0 CALLER PUSH20 0xFFFFFFFFFFFFFFFFFFFFFFFFFFFFFFFFFFFFFFFF AND PUSH20 0xFFFFFFFFFFFFFFFFFFFFFFFFFFFFFFFFFFFFFFFF AND DUP2 MSTORE PUSH1 0x20 ADD SWAP1 DUP2 MSTORE PUSH1 0x20 ADD PUSH1 0x0 KECCAK256 PUSH1 0x0 PUSH2 0x100 EXP DUP2 SLOAD DUP2 PUSH1 0xFF MUL NOT AND SWAP1 DUP4 ISZERO ISZERO MUL OR SWAP1 SSTORE POP POP JUMP JUMPDEST PUSH1 0x5 PUSH1 0x0 SWAP1 SLOAD SWAP1 PUSH2 0x100 EXP SWAP1 DIV PUSH20 0xFFFFFFFFFFFFFFFFFFFFFFFFFFFFFFFFFFFFFFFF AND DUP2 JUMP JUMPDEST PUSH1 0x0 DUP1 REVERT JUMPDEST PUSH1 0x0 PUSH20 0xFFFFFFFFFFFFFFFFFFFFFFFFFFFFFFFFFFFFFFFF DUP3 AND SWAP1 POP SWAP2 SWAP1 POP JUMP JUMPDEST PUSH1 0x0 PUSH2 0x9BE DUP3 PUSH2 0x993 JUMP JUMPDEST SWAP1 POP SWAP2 SWAP1 POP JUMP JUMPDEST PUSH2 0x9CE DUP2 PUSH2 0x9B3 JUMP JUMPDEST DUP2 EQ PUSH2 0x9D9 JUMPI PUSH1 0x0 DUP1 REVERT JUMPDEST POP JUMP JUMPDEST PUSH1 0x0 DUP2 CALLDATALOAD SWAP1 POP PUSH2 0x9EB DUP2 PUSH2 0x9C5 JUMP JUMPDEST SWAP3 SWAP2 POP POP JUMP JUMPDEST PUSH1 0x0 PUSH1 0x20 DUP3 DUP5 SUB SLT ISZERO PUSH2 0xA07 JUMPI PUSH2 0xA06 PUSH2 0x98E JUMP JUMPDEST JUMPDEST PUSH1 0x0 PUSH2 0xA15 DUP5 DUP3 DUP6 ADD PUSH2 0x9DC JUMP JUMPDEST SWAP2 POP POP SWAP3 SWAP2 POP POP JUMP JUMPDEST PUSH1 0x0 DUP2 SWAP1 POP SWAP2 SWAP1 POP JUMP JUMPDEST PUSH2 0xA31 DUP2 PUSH2 0xA1E JUMP JUMPDEST DUP3 MSTORE POP POP JUMP JUMPDEST PUSH1 0x0 PUSH1 0x20 DUP3 ADD SWAP1 POP PUSH2 0xA4C PUSH1 0x0 DUP4 ADD DUP5 PUSH2 0xA28 JUMP JUMPDEST SWAP3 SWAP2 POP POP JUMP JUMPDEST PUSH2 0xA5B DUP2 PUSH2 0xA1E JUMP JUMPDEST DUP2 EQ PUSH2 0xA66 JUMPI PUSH1 0x0 DUP1 REVERT JUMPDEST POP JUMP JUMPDEST PUSH1 0x0 DUP2 CALLDATALOAD SWAP1 POP PUSH2 0xA78 DUP2 PUSH2 0xA52 JUMP JUMPDEST SWAP3 SWAP2 POP POP JUMP JUMPDEST PUSH1 0x0 PUSH1 0x20 DUP3 DUP5 SUB SLT ISZERO PUSH2 0xA94 JUMPI PUSH2 0xA93 PUSH2 0x98E JUMP JUMPDEST JUMPDEST PUSH1 0x0 PUSH2 0xAA2 DUP5 DUP3 DUP6 ADD PUSH2 0xA69 JUMP JUMPDEST SWAP2 POP POP SWAP3 SWAP2 POP POP JUMP JUMPDEST PUSH2 0xAB4 DUP2 PUSH2 0x9B3 JUMP JUMPDEST DUP3 MSTORE POP POP JUMP JUMPDEST PUSH1 0x0 PUSH1 0x20 DUP3 ADD SWAP1 POP PUSH2 0xACF PUSH1 0x0 DUP4 ADD DUP5 PUSH2 0xAAB JUMP JUMPDEST SWAP3 SWAP2 POP POP JUMP JUMPDEST PUSH1 0x0 DUP2 ISZERO ISZERO SWAP1 POP SWAP2 SWAP1 POP JUMP JUMPDEST PUSH2 0xAEA DUP2 PUSH2 0xAD5 JUMP JUMPDEST DUP3 MSTORE POP POP JUMP JUMPDEST PUSH1 0x0 PUSH1 0x20 DUP3 ADD SWAP1 POP PUSH2 0xB05 PUSH1 0x0 DUP4 ADD DUP5 PUSH2 0xAE1 JUMP JUMPDEST SWAP3 SWAP2 POP POP JUMP JUMPDEST PUSH1 0x0 DUP2 SWAP1 POP SWAP2 SWAP1 POP JUMP JUMPDEST PUSH1 0x0 PUSH2 0xB30 PUSH2 0xB2B PUSH2 0xB26 DUP5 PUSH2 0x993 JUMP JUMPDEST PUSH2 0xB0B JUMP JUMPDEST PUSH2 0x993 JUMP JUMPDEST SWAP1 POP SWAP2 SWAP1 POP JUMP JUMPDEST PUSH1 0x0 PUSH2 0xB42 DUP3 PUSH2 0xB15 JUMP JUMPDEST SWAP1 POP SWAP2 SWAP1 POP JUMP JUMPDEST PUSH1 0x0 PUSH2 0xB54 DUP3 PUSH2 0xB37 JUMP JUMPDEST SWAP1 POP SWAP2 SWAP1 POP JUMP JUMPDEST PUSH2 0xB64 DUP2 PUSH2 0xB49 JUMP JUMPDEST DUP3 MSTORE POP POP JUMP JUMPDEST PUSH1 0x0 PUSH1 0x20 DUP3 ADD SWAP1 POP PUSH2 0xB7F PUSH1 0x0 DUP4 ADD DUP5 PUSH2 0xB5B JUMP JUMPDEST SWAP3 SWAP2 POP POP JUMP JUMPDEST PUSH1 0x0 PUSH1 0x40 DUP3 ADD SWAP1 POP PUSH2 0xB9A PUSH1 0x0 DUP4 ADD DUP6 PUSH2 0xA28 JUMP JUMPDEST PUSH2 0xBA7 PUSH1 0x20 DUP4 ADD DUP5 PUSH2 0xA28 JUMP JUMPDEST SWAP4 SWAP3 POP POP POP JUMP JUMPDEST PUSH32 0x4E487B7100000000000000000000000000000000000000000000000000000000 PUSH1 0x0 MSTORE PUSH1 0x11 PUSH1 0x4 MSTORE PUSH1 0x24 PUSH1 0x0 REVERT JUMPDEST PUSH1 0x0 PUSH2 0xBE8 DUP3 PUSH2 0xA1E JUMP JUMPDEST SWAP2 POP PUSH2 0xBF3 DUP4 PUSH2 0xA1E JUMP JUMPDEST SWAP3 POP DUP3 DUP3 ADD SWAP1 POP DUP1 DUP3 GT ISZERO PUSH2 0xC0B JUMPI PUSH2 0xC0A PUSH2 0xBAE JUMP JUMPDEST JUMPDEST SWAP3 SWAP2 POP POP JUMP JUMPDEST PUSH1 0x0 PUSH2 0xC1C DUP3 PUSH2 0xA1E JUMP JUMPDEST SWAP2 POP PUSH32 0xFFFFFFFFFFFFFFFFFFFFFFFFFFFFFFFFFFFFFFFFFFFFFFFFFFFFFFFFFFFFFFFF DUP3 SUB PUSH2 0xC4E JUMPI PUSH2 0xC4D PUSH2 0xBAE JUMP JUMPDEST JUMPDEST PUSH1 0x1 DUP3 ADD SWAP1 POP SWAP2 SWAP1 POP JUMP JUMPDEST PUSH1 0x0 DUP3 DUP3 MSTORE PUSH1 0x20 DUP3 ADD SWAP1 POP SWAP3 SWAP2 POP POP JUMP JUMPDEST PUSH32 0x426F6E64696E67206375727665206973206E6F7420636F6D706C657465000000 PUSH1 0x0 DUP3 ADD MSTORE POP JUMP JUMPDEST PUSH1 0x0 PUSH2 0xCA0 PUSH1 0x1D DUP4 PUSH2 0xC59 JUMP JUMPDEST SWAP2 POP PUSH2 0xCAB DUP3 PUSH2 0xC6A JUMP JUMPDEST PUSH1 0x20 DUP3 ADD SWAP1 POP SWAP2 SWAP1 POP JUMP JUMPDEST PUSH1 0x0 PUSH1 0x20 DUP3 ADD SWAP1 POP DUP2 DUP2 SUB PUSH1 0x0 DUP4 ADD MSTORE PUSH2 0xCCF DUP2 PUSH2 0xC93 JUMP JUMPDEST SWAP1 POP SWAP2 SWAP1 POP JUMP JUMPDEST PUSH32 0x496E76616C69642073636F726500000000000000000000000000000000000000 PUSH1 0x0 DUP3 ADD MSTORE POP JUMP JUMPDEST PUSH1 0x0 PUSH2 0xD0C PUSH1 0xD DUP4 PUSH2 0xC59 JUMP JUMPDEST SWAP2 POP PUSH2 0xD17 DUP3 PUSH2 0xCD6 JUMP JUMPDEST PUSH1 0x20 DUP3 ADD SWAP1 POP SWAP2 SWAP1 POP JUMP JUMPDEST PUSH1 0x0 PUSH1 0x20 DUP3 ADD SWAP1 POP DUP2 DUP2 SUB PUSH1 0x0 DUP4 ADD MSTORE PUSH2 0xD3B DUP2 PUSH2 0xCFF JUMP JUMPDEST SWAP1 POP SWAP2 SWAP1 POP JUMP JUMPDEST PUSH32 0x4E6F20636F6E747269627574696F6E0000000000000000000000000000000000 PUSH1 0x0 DUP3 ADD MSTORE POP JUMP JUMPDEST PUSH1 0x0 PUSH2 0xD78 PUSH1 0xF DUP4 PUSH2 0xC59 JUMP JUMPDEST SWAP2 POP PUSH2 0xD83 DUP3 PUSH2 0xD42 JUMP JUMPDEST PUSH1 0x20 DUP3 ADD SWAP1 POP SWAP2 SWAP1 POP JUMP JUMPDEST PUSH1 0x0 PUSH1 0x20 DUP3 ADD SWAP1 POP DUP2 DUP2 SUB PUSH1 0x0 DUP4 ADD MSTORE PUSH2 0xDA7 DUP2 PUSH2 0xD6B JUMP JUMPDEST SWAP1 POP SWAP2 SWAP1 POP JUMP JUMPDEST PUSH32 0x416C726561647920636C61696D65640000000000000000000000000000000000 PUSH1 0x0 DUP3 ADD MSTORE POP JUMP JUMPDEST PUSH1 0x0 PUSH2 0xDE4 PUSH1 0xF DUP4 PUSH2 0xC59 JUMP JUMPDEST SWAP2 POP PUSH2 0xDEF DUP3 PUSH2 0xDAE JUMP JUMPDEST PUSH1 0x20 DUP3 ADD SWAP1 POP SWAP2 SWAP1 POP JUMP JUMPDEST PUSH1 0x0 PUSH1 0x20 DUP3 ADD SWAP1 POP DUP2 DUP2 SUB PUSH1 0x0 DUP4 ADD MSTORE PUSH2 0xE13 DUP2 PUSH2 0xDD7 JUMP JUMPDEST SWAP1 POP SWAP2 SWAP1 POP JUMP JUMPDEST PUSH1 0x0 DUP2 MLOAD SWAP1 POP PUSH2 0xE29 DUP2 PUSH2 0xA52 JUMP JUMPDEST SWAP3 SWAP2 POP POP JUMP JUMPDEST PUSH1 0x0 PUSH1 0x20 DUP3 DUP5 SUB SLT ISZERO PUSH2 0xE45 JUMPI PUSH2 0xE44 PUSH2 0x98E JUMP JUMPDEST JUMPDEST PUSH1 0x0 PUSH2 0xE53 DUP5 DUP3 DUP6 ADD PUSH2 0xE1A JUMP JUMPDEST SWAP2 POP POP SWAP3 SWAP2 POP POP JUMP JUMPDEST PUSH1 0x0 PUSH2 0xE67 DUP3 PUSH2 0xA1E JUMP JUMPDEST SWAP2 POP PUSH2 0xE72 DUP4 PUSH2 0xA1E JUMP JUMPDEST SWAP3 POP DUP3 DUP3 MUL PUSH2 0xE80 DUP2 PUSH2 0xA1E JUMP JUMPDEST SWAP2 POP DUP3 DUP3 DIV DUP5 EQ DUP4 ISZERO OR PUSH2 0xE97 JUMPI PUSH2 0xE96 PUSH2 0xBAE JUMP JUMPDEST JUMPDEST POP SWAP3 SWAP2 POP POP JUMP JUMPDEST PUSH32 0x4E487B7100000000000000000000000000000000000000000000000000000000 PUSH1 0x0 MSTORE PUSH1 0x12 PUSH1 0x4 MSTORE PUSH1 0x24 PUSH1 0x0 REVERT JUMPDEST PUSH1 0x0 PUSH2 0xED8 DUP3 PUSH2 0xA1E JUMP JUMPDEST SWAP2 POP PUSH2 0xEE3 DUP4 PUSH2 0xA1E JUMP JUMPDEST SWAP3 POP DUP3 PUSH2 0xEF3 JUMPI PUSH2 0xEF2 PUSH2 0xE9E JUMP JUMPDEST JUMPDEST DUP3 DUP3 DIV SWAP1 POP SWAP3 SWAP2 POP POP JUMP JUMPDEST PUSH1 0x0 PUSH1 0x40 DUP3 ADD SWAP1 POP PUSH2 0xF13 PUSH1 0x0 DUP4 ADD DUP6 PUSH2 0xAAB JUMP JUMPDEST PUSH2 0xF20 PUSH1 0x20 DUP4 ADD DUP5 PUSH2 0xA28 JUMP JUMPDEST SWAP4 SWAP3 POP POP POP JUMP JUMPDEST PUSH2 0xF30 DUP2 PUSH2 0xAD5 JUMP JUMPDEST DUP2 EQ PUSH2 0xF3B JUMPI PUSH1 0x0 DUP1 REVERT JUMPDEST POP JUMP JUMPDEST PUSH1 0x0 DUP2 MLOAD SWAP1 POP PUSH2 0xF4D DUP2 PUSH2 0xF27 JUMP JUMPDEST SWAP3 SWAP2 POP POP JUMP JUMPDEST PUSH1 0x0 PUSH1 0x20 DUP3 DUP5 SUB SLT ISZERO PUSH2 0xF69 JUMPI PUSH2 0xF68 PUSH2 0x98E JUMP JUMPDEST JUMPDEST PUSH1 0x0 PUSH2 0xF77 DUP5 DUP3 DUP6 ADD PUSH2 0xF3E JUMP JUMPDEST SWAP2 POP POP SWAP3 SWAP2 POP POP JUMP INVALID LOG2 PUSH5 0x6970667358 0x22 SLT KECCAK256 0xF6 EXTCODEHASH SWAP6 PUSH0 0x1E PUSH30 0xBC621892A22EAD0329EEE3F419A895486076F58790C2329EC8DC64736F6C PUSH4 0x4300081C STOP CALLER "},"methodIdentifiers":{"SCALE_FACTOR()":"ce4b5bbe","bondingCurveProgress()":"897802dc","checkEligibility(uint256)":"7b39fed6","claimDevReward()":"d95cc085","claimed(address)":"c884ef83","contributionCount()":"5b18056b","contributions(address)":"42e94c90","getBondingCurveProgress()":"67558d46","getContribution(address)":"21eff7fc","isComplete()":"b2fa1c9e","owner()":"8da5cb5b","rewardToken()":"f7c618c1","updateBondingCurve(uint256)":"335de0fc","withdraw()":"3ccfd60b"}}}}}