{
  "_format": "hh-sol-artifact-1",
  "contractName": "Token",
  "sourceName": "contracts/Token.sol",
  "abi": [
    {
      "inputs": [
        {
          "internalType": "string",
          "name": "tokenName_",
          "type": "string"
        },
        {
          "internalType": "string",
          "name": "tokenSymbol_",
          "type": "string"
        },
        {
          "internalType": "uint256",
          "name": "_maxSupply",
          "type": "uint256"
        },
        {
          "internalType": "uint256",
          "name": "_devSupplyRate",
          "type": "uint256"
        },
        {
          "internalType": "uint256",
          "name": "_investorSupplyRate",
          "type": "uint256"
        },
        {
          "internalType": "uint256",
          "name": "_price",
          "type": "uint256"
        }
      ],
      "stateMutability": "nonpayable",
      "type": "constructor"
    },
    {
      "inputs": [
        {
          "internalType": "address",
          "name": "spender",
          "type": "address"
        },
        {
          "internalType": "uint256",
          "name": "allowance",
          "type": "uint256"
        },
        {
          "internalType": "uint256",
          "name": "needed",
          "type": "uint256"
        }
      ],
      "name": "ERC20InsufficientAllowance",
      "type": "error"
    },
    {
      "inputs": [
        {
          "internalType": "address",
          "name": "sender",
          "type": "address"
        },
        {
          "internalType": "uint256",
          "name": "balance",
          "type": "uint256"
        },
        {
          "internalType": "uint256",
          "name": "needed",
          "type": "uint256"
        }
      ],
      "name": "ERC20InsufficientBalance",
      "type": "error"
    },
    {
      "inputs": [
        {
          "internalType": "address",
          "name": "approver",
          "type": "address"
        }
      ],
      "name": "ERC20InvalidApprover",
      "type": "error"
    },
    {
      "inputs": [
        {
          "internalType": "address",
          "name": "receiver",
          "type": "address"
        }
      ],
      "name": "ERC20InvalidReceiver",
      "type": "error"
    },
    {
      "inputs": [
        {
          "internalType": "address",
          "name": "sender",
          "type": "address"
        }
      ],
      "name": "ERC20InvalidSender",
      "type": "error"
    },
    {
      "inputs": [
        {
          "internalType": "address",
          "name": "spender",
          "type": "address"
        }
      ],
      "name": "ERC20InvalidSpender",
      "type": "error"
    },
    {
      "anonymous": false,
      "inputs": [
        {
          "indexed": true,
          "internalType": "address",
          "name": "owner",
          "type": "address"
        },
        {
          "indexed": true,
          "internalType": "address",
          "name": "spender",
          "type": "address"
        },
        {
          "indexed": false,
          "internalType": "uint256",
          "name": "value",
          "type": "uint256"
        }
      ],
      "name": "Approval",
      "type": "event"
    },
    {
      "anonymous": false,
      "inputs": [
        {
          "indexed": true,
          "internalType": "address",
          "name": "from",
          "type": "address"
        },
        {
          "indexed": true,
          "internalType": "address",
          "name": "to",
          "type": "address"
        },
        {
          "indexed": false,
          "internalType": "uint256",
          "name": "value",
          "type": "uint256"
        }
      ],
      "name": "Transfer",
      "type": "event"
    },
    {
      "inputs": [
        {
          "internalType": "address",
          "name": "owner",
          "type": "address"
        },
        {
          "internalType": "address",
          "name": "spender",
          "type": "address"
        }
      ],
      "name": "allowance",
      "outputs": [
        {
          "internalType": "uint256",
          "name": "",
          "type": "uint256"
        }
      ],
      "stateMutability": "view",
      "type": "function"
    },
    {
      "inputs": [
        {
          "internalType": "address",
          "name": "spender",
          "type": "address"
        },
        {
          "internalType": "uint256",
          "name": "value",
          "type": "uint256"
        }
      ],
      "name": "approve",
      "outputs": [
        {
          "internalType": "bool",
          "name": "",
          "type": "bool"
        }
      ],
      "stateMutability": "nonpayable",
      "type": "function"
    },
    {
      "inputs": [
        {
          "internalType": "address",
          "name": "account",
          "type": "address"
        }
      ],
      "name": "balanceOf",
      "outputs": [
        {
          "internalType": "uint256",
          "name": "",
          "type": "uint256"
        }
      ],
      "stateMutability": "view",
      "type": "function"
    },
    {
      "inputs": [],
      "name": "decimals",
      "outputs": [
        {
          "internalType": "uint8",
          "name": "",
          "type": "uint8"
        }
      ],
      "stateMutability": "view",
      "type": "function"
    },
    {
      "inputs": [],
      "name": "devSupply",
      "outputs": [
        {
          "internalType": "uint256",
          "name": "",
          "type": "uint256"
        }
      ],
      "stateMutability": "view",
      "type": "function"
    },
    {
      "inputs": [],
      "name": "devSupplyRate",
      "outputs": [
        {
          "internalType": "uint256",
          "name": "",
          "type": "uint256"
        }
      ],
      "stateMutability": "view",
      "type": "function"
    },
    {
      "inputs": [
        {
          "internalType": "uint256",
          "name": "amount",
          "type": "uint256"
        }
      ],
      "name": "getCurrentBuyPrice",
      "outputs": [
        {
          "internalType": "uint256",
          "name": "",
          "type": "uint256"
        }
      ],
      "stateMutability": "view",
      "type": "function"
    },
    {
      "inputs": [
        {
          "internalType": "uint256",
          "name": "amount",
          "type": "uint256"
        }
      ],
      "name": "getCurrentSellPrice",
      "outputs": [
        {
          "internalType": "uint256",
          "name": "",
          "type": "uint256"
        }
      ],
      "stateMutability": "view",
      "type": "function"
    },
    {
      "inputs": [],
      "name": "getOwner",
      "outputs": [
        {
          "internalType": "address",
          "name": "",
          "type": "address"
        }
      ],
      "stateMutability": "view",
      "type": "function"
    },
    {
      "inputs": [],
      "name": "getPoolAddress",
      "outputs": [
        {
          "internalType": "address",
          "name": "",
          "type": "address"
        }
      ],
      "stateMutability": "view",
      "type": "function"
    },
    {
      "inputs": [
        {
          "internalType": "uint256",
          "name": "amount",
          "type": "uint256"
        }
      ],
      "name": "increaseTotalSold",
      "outputs": [],
      "stateMutability": "nonpayable",
      "type": "function"
    },
    {
      "inputs": [],
      "name": "initialEth",
      "outputs": [
        {
          "internalType": "uint256",
          "name": "",
          "type": "uint256"
        }
      ],
      "stateMutability": "view",
      "type": "function"
    },
    {
      "inputs": [],
      "name": "investorSupply",
      "outputs": [
        {
          "internalType": "uint256",
          "name": "",
          "type": "uint256"
        }
      ],
      "stateMutability": "view",
      "type": "function"
    },
    {
      "inputs": [],
      "name": "investorSupplyRate",
      "outputs": [
        {
          "internalType": "uint256",
          "name": "",
          "type": "uint256"
        }
      ],
      "stateMutability": "view",
      "type": "function"
    },
    {
      "inputs": [
        {
          "internalType": "address",
          "name": "presale",
          "type": "address"
        }
      ],
      "name": "listPresale",
      "outputs": [],
      "stateMutability": "nonpayable",
      "type": "function"
    },
    {
      "inputs": [],
      "name": "maxSupply",
      "outputs": [
        {
          "internalType": "uint256",
          "name": "",
          "type": "uint256"
        }
      ],
      "stateMutability": "view",
      "type": "function"
    },
    {
      "inputs": [],
      "name": "name",
      "outputs": [
        {
          "internalType": "string",
          "name": "",
          "type": "string"
        }
      ],
      "stateMutability": "view",
      "type": "function"
    },
    {
      "inputs": [],
      "name": "owner",
      "outputs": [
        {
          "internalType": "address",
          "name": "",
          "type": "address"
        }
      ],
      "stateMutability": "view",
      "type": "function"
    },
    {
      "inputs": [],
      "name": "pool",
      "outputs": [
        {
          "internalType": "address",
          "name": "",
          "type": "address"
        }
      ],
      "stateMutability": "view",
      "type": "function"
    },
    {
      "inputs": [],
      "name": "price",
      "outputs": [
        {
          "internalType": "uint256",
          "name": "",
          "type": "uint256"
        }
      ],
      "stateMutability": "view",
      "type": "function"
    },
    {
      "inputs": [
        {
          "internalType": "address",
          "name": "_pool",
          "type": "address"
        }
      ],
      "name": "setPool",
      "outputs": [],
      "stateMutability": "nonpayable",
      "type": "function"
    },
    {
      "inputs": [
        {
          "internalType": "address",
          "name": "_successCurve",
          "type": "address"
        }
      ],
      "name": "setSuccessCurve",
      "outputs": [],
      "stateMutability": "nonpayable",
      "type": "function"
    },
    {
      "inputs": [],
      "name": "subMultiplier",
      "outputs": [
        {
          "internalType": "uint256",
          "name": "",
          "type": "uint256"
        }
      ],
      "stateMutability": "view",
      "type": "function"
    },
    {
      "inputs": [],
      "name": "successCurve",
      "outputs": [
        {
          "internalType": "contract ISuccessBondingCurve",
          "name": "",
          "type": "address"
        }
      ],
      "stateMutability": "view",
      "type": "function"
    },
    {
      "inputs": [],
      "name": "sumMultiplier",
      "outputs": [
        {
          "internalType": "uint256",
          "name": "",
          "type": "uint256"
        }
      ],
      "stateMutability": "view",
      "type": "function"
    },
    {
      "inputs": [],
      "name": "symbol",
      "outputs": [
        {
          "internalType": "string",
          "name": "",
          "type": "string"
        }
      ],
      "stateMutability": "view",
      "type": "function"
    },
    {
      "inputs": [],
      "name": "totalSold",
      "outputs": [
        {
          "internalType": "uint256",
          "name": "",
          "type": "uint256"
        }
      ],
      "stateMutability": "view",
      "type": "function"
    },
    {
      "inputs": [],
      "name": "totalSupply",
      "outputs": [
        {
          "internalType": "uint256",
          "name": "",
          "type": "uint256"
        }
      ],
      "stateMutability": "view",
      "type": "function"
    },
    {
      "inputs": [
        {
          "internalType": "address",
          "name": "to",
          "type": "address"
        },
        {
          "internalType": "uint256",
          "name": "value",
          "type": "uint256"
        }
      ],
      "name": "transfer",
      "outputs": [
        {
          "internalType": "bool",
          "name": "",
          "type": "bool"
        }
      ],
      "stateMutability": "nonpayable",
      "type": "function"
    },
    {
      "inputs": [
        {
          "internalType": "address",
          "name": "from",
          "type": "address"
        },
        {
          "internalType": "address",
          "name": "to",
          "type": "address"
        },
        {
          "internalType": "uint256",
          "name": "value",
          "type": "uint256"
        }
      ],
      "name": "transferFrom",
      "outputs": [
        {
          "internalType": "bool",
          "name": "",
          "type": "bool"
        }
      ],
      "stateMutability": "nonpayable",
      "type": "function"
    }
  ],
  "bytecode": "0x61010060405234801561001157600080fd5b5060405161291c38038061291c833981810160405281019061003391906105a1565b85858160039081610044919061087d565b508060049081610054919061087d565b5050503373ffffffffffffffffffffffffffffffffffffffff1660808173ffffffffffffffffffffffffffffffffffffffff16815250508360a081815250508260c081815250508160e0818152505080600881905550606460e051856100ba919061097e565b6100c491906109ef565b600781905550606460c051856100da919061097e565b6100e491906109ef565b60068190555060006006546007546100fc9190610a20565b856101079190610a54565b905061011b3360065461014960201b60201c565b61012d3060075461014960201b60201c565b61013d308261014960201b60201c565b50505050505050610b45565b600073ffffffffffffffffffffffffffffffffffffffff168273ffffffffffffffffffffffffffffffffffffffff16036101bb5760006040517fec442f050000000000000000000000000000000000000000000000000000000081526004016101b29190610ac9565b60405180910390fd5b6101cd600083836101d160201b60201c565b5050565b600073ffffffffffffffffffffffffffffffffffffffff168373ffffffffffffffffffffffffffffffffffffffff16036102235780600260008282546102179190610a20565b925050819055506102f6565b60008060008573ffffffffffffffffffffffffffffffffffffffff1673ffffffffffffffffffffffffffffffffffffffff168152602001908152602001600020549050818110156102af578381836040517fe450d38c0000000000000000000000000000000000000000000000000000000081526004016102a693929190610af3565b60405180910390fd5b8181036000808673ffffffffffffffffffffffffffffffffffffffff1673ffffffffffffffffffffffffffffffffffffffff16815260200190815260200160002081905550505b600073ffffffffffffffffffffffffffffffffffffffff168273ffffffffffffffffffffffffffffffffffffffff160361033f578060026000828254039250508190555061038c565b806000808473ffffffffffffffffffffffffffffffffffffffff1673ffffffffffffffffffffffffffffffffffffffff168152602001908152602001600020600082825401925050819055505b8173ffffffffffffffffffffffffffffffffffffffff168373ffffffffffffffffffffffffffffffffffffffff167fddf252ad1be2c89b69c2b068fc378daa952ba7f163c4a11628f55a4df523b3ef836040516103e99190610b2a565b60405180910390a3505050565b6000604051905090565b600080fd5b600080fd5b600080fd5b600080fd5b6000601f19601f8301169050919050565b7f4e487b7100000000000000000000000000000000000000000000000000000000600052604160045260246000fd5b61045d82610414565b810181811067ffffffffffffffff8211171561047c5761047b610425565b5b80604052505050565b600061048f6103f6565b905061049b8282610454565b919050565b600067ffffffffffffffff8211156104bb576104ba610425565b5b6104c482610414565b9050602081019050919050565b60005b838110156104ef5780820151818401526020810190506104d4565b60008484015250505050565b600061050e610509846104a0565b610485565b90508281526020810184848401111561052a5761052961040f565b5b6105358482856104d1565b509392505050565b600082601f8301126105525761055161040a565b5b81516105628482602086016104fb565b91505092915050565b6000819050919050565b61057e8161056b565b811461058957600080fd5b50565b60008151905061059b81610575565b92915050565b60008060008060008060c087890312156105be576105bd610400565b5b600087015167ffffffffffffffff8111156105dc576105db610405565b5b6105e889828a0161053d565b965050602087015167ffffffffffffffff81111561060957610608610405565b5b61061589828a0161053d565b955050604061062689828a0161058c565b945050606061063789828a0161058c565b935050608061064889828a0161058c565b92505060a061065989828a0161058c565b9150509295509295509295565b600081519050919050565b7f4e487b7100000000000000000000000000000000000000000000000000000000600052602260045260246000fd5b600060028204905060018216806106b857607f821691505b6020821081036106cb576106ca610671565b5b50919050565b60008190508160005260206000209050919050565b60006020601f8301049050919050565b600082821b905092915050565b6000600883026107337fffffffffffffffffffffffffffffffffffffffffffffffffffffffffffffffff826106f6565b61073d86836106f6565b95508019841693508086168417925050509392505050565b6000819050919050565b600061077a6107756107708461056b565b610755565b61056b565b9050919050565b6000819050919050565b6107948361075f565b6107a86107a082610781565b848454610703565b825550505050565b600090565b6107bd6107b0565b6107c881848461078b565b505050565b5b818110156107ec576107e16000826107b5565b6001810190506107ce565b5050565b601f82111561083157610802816106d1565b61080b846106e6565b8101602085101561081a578190505b61082e610826856106e6565b8301826107cd565b50505b505050565b600082821c905092915050565b600061085460001984600802610836565b1980831691505092915050565b600061086d8383610843565b9150826002028217905092915050565b61088682610666565b67ffffffffffffffff81111561089f5761089e610425565b5b6108a982546106a0565b6108b48282856107f0565b600060209050601f8311600181146108e757600084156108d5578287015190505b6108df8582610861565b865550610947565b601f1984166108f5866106d1565b60005b8281101561091d578489015182556001820191506020850194506020810190506108f8565b8683101561093a5784890151610936601f891682610843565b8355505b6001600288020188555050505b505050505050565b7f4e487b7100000000000000000000000000000000000000000000000000000000600052601160045260246000fd5b60006109898261056b565b91506109948361056b565b92508282026109a28161056b565b915082820484148315176109b9576109b861094f565b5b5092915050565b7f4e487b7100000000000000000000000000000000000000000000000000000000600052601260045260246000fd5b60006109fa8261056b565b9150610a058361056b565b925082610a1557610a146109c0565b5b828204905092915050565b6000610a2b8261056b565b9150610a368361056b565b9250828201905080821115610a4e57610a4d61094f565b5b92915050565b6000610a5f8261056b565b9150610a6a8361056b565b9250828203905081811115610a8257610a8161094f565b5b92915050565b600073ffffffffffffffffffffffffffffffffffffffff82169050919050565b6000610ab382610a88565b9050919050565b610ac381610aa8565b82525050565b6000602082019050610ade6000830184610aba565b92915050565b610aed8161056b565b82525050565b6000606082019050610b086000830186610aba565b610b156020830185610ae4565b610b226040830184610ae4565b949350505050565b6000602082019050610b3f6000830184610ae4565b92915050565b60805160a05160c05160e051611d82610b9a6000396000610b040152600061084f0152600081816109820152610c6701526000818161071301528181610b3601528181610b5c0152610d420152611d826000f3fe608060405234801561001057600080fd5b50600436106101da5760003560e01c80637789f1f211610104578063a035b1fe116100a2578063dc79d06911610071578063dc79d06914610551578063dd62ed3e1461056f578063f586c6d91461059f578063f8ce221c146105bd576101da565b8063a035b1fe146104c7578063a9059cbb146104e5578063c30a133a14610515578063d5abeb0114610533576101da565b8063893d20e8116100de578063893d20e81461044f5780638da5cb5b1461046d5780639106d7ba1461048b57806395d89b41146104a9576101da565b80637789f1f2146103f557806383565f0614610413578063849a81ef14610431576101da565b8063291182911161017c5780634437152a1161014b5780634437152a1461035b5780635758d2fe14610377578063688a5a1e146103a757806370a08231146103c5576101da565b806329118291146102e5578063313ce567146103035780633f8a32a91461032157806341c66d0a1461033d576101da565b806318160ddd116101b857806318160ddd1461024b5780631b337eb41461026957806322262da21461029957806323b872dd146102b5576101da565b806306fdde03146101df578063095ea7b3146101fd57806316f0115b1461022d575b600080fd5b6101e76105d9565b6040516101f4919061158f565b60405180910390f35b6102176004803603810190610212919061164a565b61066b565b60405161022491906116a5565b60405180910390f35b61023561068e565b60405161024291906116cf565b60405180910390f35b6102536106b4565b60405161026091906116f9565b60405180910390f35b610283600480360381019061027e9190611714565b6106be565b60405161029091906116f9565b60405180910390f35b6102b360048036038101906102ae9190611741565b610711565b005b6102cf60048036038101906102ca919061176e565b61081e565b6040516102dc91906116a5565b60405180910390f35b6102ed61084d565b6040516102fa91906116f9565b60405180910390f35b61030b610871565b60405161031891906117dd565b60405180910390f35b61033b60048036038101906103369190611714565b61087a565b005b610345610896565b60405161035291906116f9565b60405180910390f35b61037560048036038101906103709190611741565b61089c565b005b610391600480360381019061038c9190611714565b610a4f565b60405161039e91906116f9565b60405180910390f35b6103af610aa2565b6040516103bc91906116f9565b60405180910390f35b6103df60048036038101906103da9190611741565b610aae565b6040516103ec91906116f9565b60405180910390f35b6103fd610af6565b60405161040a91906116f9565b60405180910390f35b61041b610b02565b60405161042891906116f9565b60405180910390f35b610439610b26565b60405161044691906116f9565b60405180910390f35b610457610b32565b60405161046491906116cf565b60405180910390f35b610475610b5a565b60405161048291906116cf565b60405180910390f35b610493610b7e565b6040516104a091906116f9565b60405180910390f35b6104b1610b84565b6040516104be919061158f565b60405180910390f35b6104cf610c16565b6040516104dc91906116f9565b60405180910390f35b6104ff60048036038101906104fa919061164a565b610c1c565b60405161050c91906116a5565b60405180910390f35b61051d610c3f565b60405161052a9190611857565b60405180910390f35b61053b610c65565b60405161054891906116f9565b60405180910390f35b610559610c89565b60405161056691906116f9565b60405180910390f35b61058960048036038101906105849190611872565b610c8f565b60405161059691906116f9565b60405180910390f35b6105a7610d16565b6040516105b491906116cf565b60405180910390f35b6105d760048036038101906105d29190611741565b610d40565b005b6060600380546105e8906118e1565b80601f0160208091040260200160405190810160405280929190818152602001828054610614906118e1565b80156106615780601f1061063657610100808354040283529160200191610661565b820191906000526020600020905b81548152906001019060200180831161064457829003601f168201915b5050505050905090565b600080610676610f61565b9050610683818585610f69565b600191505092915050565b600560009054906101000a900473ffffffffffffffffffffffffffffffffffffffff1681565b6000600254905090565b600080600854905060005b8381101561070757670de0b6b3a76400006709b6e64a8ec60000836106ee9190611941565b6106f891906119b2565b915080806001019150506106c9565b5080915050919050565b7f000000000000000000000000000000000000000000000000000000000000000073ffffffffffffffffffffffffffffffffffffffff163373ffffffffffffffffffffffffffffffffffffffff161461079f576040517f08c379a000000000000000000000000000000000000000000000000000000000815260040161079690611a2f565b60405180910390fd5b600073ffffffffffffffffffffffffffffffffffffffff168173ffffffffffffffffffffffffffffffffffffffff160361080e576040517f08c379a000000000000000000000000000000000000000000000000000000000815260040161080590611a9b565b60405180910390fd5b61081a8160075461066b565b5050565b600080610829610f61565b9050610836858285610f7b565b61084185858561100f565b60019150509392505050565b7f000000000000000000000000000000000000000000000000000000000000000081565b60006012905090565b80600a600082825461088c9190611abb565b9250508190555050565b60065481565b600073ffffffffffffffffffffffffffffffffffffffff16600560009054906101000a900473ffffffffffffffffffffffffffffffffffffffff1673ffffffffffffffffffffffffffffffffffffffff161461092d576040517f08c379a000000000000000000000000000000000000000000000000000000000815260040161092490611b3b565b60405180910390fd5b80600560006101000a81548173ffffffffffffffffffffffffffffffffffffffff021916908373ffffffffffffffffffffffffffffffffffffffff16021790555060006007546006546109809190611abb565b7f00000000000000000000000000000000000000000000000000000000000000006109ab9190611b5b565b90506109d9600560009054906101000a900473ffffffffffffffffffffffffffffffffffffffff1682610c1c565b50600560009054906101000a900473ffffffffffffffffffffffffffffffffffffffff1673ffffffffffffffffffffffffffffffffffffffff166108fc67016345785d8a00009081150290604051600060405180830381858888f19350505050158015610a4a573d6000803e3d6000fd5b505050565b600080600854905060005b83811015610a9857670de0b6b3a76400006710a741a46278000083610a7f9190611941565b610a8991906119b2565b91508080600101915050610a5a565b5080915050919050565b6710a741a46278000081565b60008060008373ffffffffffffffffffffffffffffffffffffffff1673ffffffffffffffffffffffffffffffffffffffff168152602001908152602001600020549050919050565b6709b6e64a8ec6000081565b7f000000000000000000000000000000000000000000000000000000000000000081565b67016345785d8a000081565b60007f0000000000000000000000000000000000000000000000000000000000000000905090565b7f000000000000000000000000000000000000000000000000000000000000000081565b600a5481565b606060048054610b93906118e1565b80601f0160208091040260200160405190810160405280929190818152602001828054610bbf906118e1565b8015610c0c5780601f10610be157610100808354040283529160200191610c0c565b820191906000526020600020905b815481529060010190602001808311610bef57829003601f168201915b5050505050905090565b60085481565b600080610c27610f61565b9050610c3481858561100f565b600191505092915050565b600960009054906101000a900473ffffffffffffffffffffffffffffffffffffffff1681565b7f000000000000000000000000000000000000000000000000000000000000000081565b60075481565b6000600160008473ffffffffffffffffffffffffffffffffffffffff1673ffffffffffffffffffffffffffffffffffffffff16815260200190815260200160002060008373ffffffffffffffffffffffffffffffffffffffff1673ffffffffffffffffffffffffffffffffffffffff16815260200190815260200160002054905092915050565b6000600560009054906101000a900473ffffffffffffffffffffffffffffffffffffffff16905090565b7f000000000000000000000000000000000000000000000000000000000000000073ffffffffffffffffffffffffffffffffffffffff163373ffffffffffffffffffffffffffffffffffffffff1614610dce576040517f08c379a0000000000000000000000000000000000000000000000000000000008152600401610dc590611bdb565b60405180910390fd5b600073ffffffffffffffffffffffffffffffffffffffff168173ffffffffffffffffffffffffffffffffffffffff1603610e3d576040517f08c379a0000000000000000000000000000000000000000000000000000000008152600401610e3490611c47565b60405180910390fd5b80600960006101000a81548173ffffffffffffffffffffffffffffffffffffffff021916908373ffffffffffffffffffffffffffffffffffffffff1602179055506064600960009054906101000a900473ffffffffffffffffffffffffffffffffffffffff1673ffffffffffffffffffffffffffffffffffffffff166367558d466040518163ffffffff1660e01b8152600401602060405180830381865afa158015610eed573d6000803e3d6000fd5b505050506040513d601f19601f82011682018060405250810190610f119190611c7c565b14610f51576040517f08c379a0000000000000000000000000000000000000000000000000000000008152600401610f4890611cf5565b60405180910390fd5b610f5d81600654610c1c565b5050565b600033905090565b610f768383836001611103565b505050565b6000610f878484610c8f565b90507fffffffffffffffffffffffffffffffffffffffffffffffffffffffffffffffff81146110095781811015610ff9578281836040517ffb8f41b2000000000000000000000000000000000000000000000000000000008152600401610ff093929190611d15565b60405180910390fd5b61100884848484036000611103565b5b50505050565b600073ffffffffffffffffffffffffffffffffffffffff168373ffffffffffffffffffffffffffffffffffffffff16036110815760006040517f96c6fd1e00000000000000000000000000000000000000000000000000000000815260040161107891906116cf565b60405180910390fd5b600073ffffffffffffffffffffffffffffffffffffffff168273ffffffffffffffffffffffffffffffffffffffff16036110f35760006040517fec442f050000000000000000000000000000000000000000000000000000000081526004016110ea91906116cf565b60405180910390fd5b6110fe8383836112da565b505050565b600073ffffffffffffffffffffffffffffffffffffffff168473ffffffffffffffffffffffffffffffffffffffff16036111755760006040517fe602df0500000000000000000000000000000000000000000000000000000000815260040161116c91906116cf565b60405180910390fd5b600073ffffffffffffffffffffffffffffffffffffffff168373ffffffffffffffffffffffffffffffffffffffff16036111e75760006040517f94280d620000000000000000000000000000000000000000000000000000000081526004016111de91906116cf565b60405180910390fd5b81600160008673ffffffffffffffffffffffffffffffffffffffff1673ffffffffffffffffffffffffffffffffffffffff16815260200190815260200160002060008573ffffffffffffffffffffffffffffffffffffffff1673ffffffffffffffffffffffffffffffffffffffff1681526020019081526020016000208190555080156112d4578273ffffffffffffffffffffffffffffffffffffffff168473ffffffffffffffffffffffffffffffffffffffff167f8c5be1e5ebec7d5bd14f71427d1e84f3dd0314c0f7b2291e5b200ac8c7c3b925846040516112cb91906116f9565b60405180910390a35b50505050565b600073ffffffffffffffffffffffffffffffffffffffff168373ffffffffffffffffffffffffffffffffffffffff160361132c5780600260008282546113209190611abb565b925050819055506113ff565b60008060008573ffffffffffffffffffffffffffffffffffffffff1673ffffffffffffffffffffffffffffffffffffffff168152602001908152602001600020549050818110156113b8578381836040517fe450d38c0000000000000000000000000000000000000000000000000000000081526004016113af93929190611d15565b60405180910390fd5b8181036000808673ffffffffffffffffffffffffffffffffffffffff1673ffffffffffffffffffffffffffffffffffffffff16815260200190815260200160002081905550505b600073ffffffffffffffffffffffffffffffffffffffff168273ffffffffffffffffffffffffffffffffffffffff16036114485780600260008282540392505081905550611495565b806000808473ffffffffffffffffffffffffffffffffffffffff1673ffffffffffffffffffffffffffffffffffffffff168152602001908152602001600020600082825401925050819055505b8173ffffffffffffffffffffffffffffffffffffffff168373ffffffffffffffffffffffffffffffffffffffff167fddf252ad1be2c89b69c2b068fc378daa952ba7f163c4a11628f55a4df523b3ef836040516114f291906116f9565b60405180910390a3505050565b600081519050919050565b600082825260208201905092915050565b60005b8381101561153957808201518184015260208101905061151e565b60008484015250505050565b6000601f19601f8301169050919050565b6000611561826114ff565b61156b818561150a565b935061157b81856020860161151b565b61158481611545565b840191505092915050565b600060208201905081810360008301526115a98184611556565b905092915050565b600080fd5b600073ffffffffffffffffffffffffffffffffffffffff82169050919050565b60006115e1826115b6565b9050919050565b6115f1816115d6565b81146115fc57600080fd5b50565b60008135905061160e816115e8565b92915050565b6000819050919050565b61162781611614565b811461163257600080fd5b50565b6000813590506116448161161e565b92915050565b60008060408385031215611661576116606115b1565b5b600061166f858286016115ff565b925050602061168085828601611635565b9150509250929050565b60008115159050919050565b61169f8161168a565b82525050565b60006020820190506116ba6000830184611696565b92915050565b6116c9816115d6565b82525050565b60006020820190506116e460008301846116c0565b92915050565b6116f381611614565b82525050565b600060208201905061170e60008301846116ea565b92915050565b60006020828403121561172a576117296115b1565b5b600061173884828501611635565b91505092915050565b600060208284031215611757576117566115b1565b5b6000611765848285016115ff565b91505092915050565b600080600060608486031215611787576117866115b1565b5b6000611795868287016115ff565b93505060206117a6868287016115ff565b92505060406117b786828701611635565b9150509250925092565b600060ff82169050919050565b6117d7816117c1565b82525050565b60006020820190506117f260008301846117ce565b92915050565b6000819050919050565b600061181d611818611813846115b6565b6117f8565b6115b6565b9050919050565b600061182f82611802565b9050919050565b600061184182611824565b9050919050565b61185181611836565b82525050565b600060208201905061186c6000830184611848565b92915050565b60008060408385031215611889576118886115b1565b5b6000611897858286016115ff565b92505060206118a8858286016115ff565b9150509250929050565b7f4e487b7100000000000000000000000000000000000000000000000000000000600052602260045260246000fd5b600060028204905060018216806118f957607f821691505b60208210810361190c5761190b6118b2565b5b50919050565b7f4e487b7100000000000000000000000000000000000000000000000000000000600052601160045260246000fd5b600061194c82611614565b915061195783611614565b925082820261196581611614565b9150828204841483151761197c5761197b611912565b5b5092915050565b7f4e487b7100000000000000000000000000000000000000000000000000000000600052601260045260246000fd5b60006119bd82611614565b91506119c883611614565b9250826119d8576119d7611983565b5b828204905092915050565b7f4f6e6c79206f776e65722063616e206c6973742070726573616c650000000000600082015250565b6000611a19601b8361150a565b9150611a24826119e3565b602082019050919050565b60006020820190508181036000830152611a4881611a0c565b9050919050565b7f5a65726f2061646472657373657320617265206e6f7420616c6c6f7765642e00600082015250565b6000611a85601f8361150a565b9150611a9082611a4f565b602082019050919050565b60006020820190508181036000830152611ab481611a78565b9050919050565b6000611ac682611614565b9150611ad183611614565b9250828201905080821115611ae957611ae8611912565b5b92915050565b7f506f6f6c20616c72656164792073657400000000000000000000000000000000600082015250565b6000611b2560108361150a565b9150611b3082611aef565b602082019050919050565b60006020820190508181036000830152611b5481611b18565b9050919050565b6000611b6682611614565b9150611b7183611614565b9250828203905081811115611b8957611b88611912565b5b92915050565b7f4f6e6c79206f776e65722063616e207365742073756363657373206375727665600082015250565b6000611bc560208361150a565b9150611bd082611b8f565b602082019050919050565b60006020820190508181036000830152611bf481611bb8565b9050919050565b7f496e76616c696420616464726573730000000000000000000000000000000000600082015250565b6000611c31600f8361150a565b9150611c3c82611bfb565b602082019050919050565b60006020820190508181036000830152611c6081611c24565b9050919050565b600081519050611c768161161e565b92915050565b600060208284031215611c9257611c916115b1565b5b6000611ca084828501611c67565b91505092915050565b7f426f6e64696e67206375727665206973206e6f7420636f6d706c657465000000600082015250565b6000611cdf601d8361150a565b9150611cea82611ca9565b602082019050919050565b60006020820190508181036000830152611d0e81611cd2565b9050919050565b6000606082019050611d2a60008301866116c0565b611d3760208301856116ea565b611d4460408301846116ea565b94935050505056fea2646970667358221220dcfe0f9bad80e63cbac68df84ef61ddd5d0ce0440affb2edea632aaa7b5acda964736f6c634300081c0033",
  "linkReferences": {},
  "deployedLinkReferences": {}
}