{
  "_format": "hh-sol-artifact-1",
  "contractName": "Presale",
  "sourceName": "contracts/Presale.sol",
  "abi": [
    {
      "inputs": [
        {
          "internalType": "address",
          "name": "_token",
          "type": "address"
        },
        {
          "internalType": "uint256",
          "name": "_target",
          "type": "uint256"
        }
      ],
      "stateMutability": "nonpayable",
      "type": "constructor"
    },
    {
      "anonymous": false,
      "inputs": [
        {
          "indexed": false,
          "internalType": "address",
          "name": "buyer",
          "type": "address"
        },
        {
          "indexed": false,
          "internalType": "uint256",
          "name": "amount",
          "type": "uint256"
        }
      ],
      "name": "Bought",
      "type": "event"
    },
    {
      "anonymous": false,
      "inputs": [
        {
          "indexed": false,
          "internalType": "uint256",
          "name": "amount",
          "type": "uint256"
        }
      ],
      "name": "Ended",
      "type": "event"
    },
    {
      "inputs": [
        {
          "internalType": "uint256",
          "name": "amount",
          "type": "uint256"
        }
      ],
      "name": "buyToken",
      "outputs": [],
      "stateMutability": "payable",
      "type": "function"
    },
    {
      "inputs": [],
      "name": "deadline",
      "outputs": [
        {
          "internalType": "uint256",
          "name": "",
          "type": "uint256"
        }
      ],
      "stateMutability": "view",
      "type": "function"
    },
    {
      "inputs": [],
      "name": "target",
      "outputs": [
        {
          "internalType": "uint256",
          "name": "",
          "type": "uint256"
        }
      ],
      "stateMutability": "view",
      "type": "function"
    },
    {
      "inputs": [],
      "name": "token",
      "outputs": [
        {
          "internalType": "contract IToken",
          "name": "",
          "type": "address"
        }
      ],
      "stateMutability": "view",
      "type": "function"
    }
  ],
  "bytecode": "0x60c060405234801561001057600080fd5b50604051610c38380380610c38833981810160405281019061003291906101ff565b62093a8042610041919061026e565b60808181525050816000806101000a81548173ffffffffffffffffffffffffffffffffffffffff021916908373ffffffffffffffffffffffffffffffffffffffff16021790555060008054906101000a900473ffffffffffffffffffffffffffffffffffffffff1673ffffffffffffffffffffffffffffffffffffffff1663f586c6d96040518163ffffffff1660e01b8152600401602060405180830381865afa1580156100f3573d6000803e3d6000fd5b505050506040513d601f19601f8201168201806040525081019061011791906102a2565b600160006101000a81548173ffffffffffffffffffffffffffffffffffffffff021916908373ffffffffffffffffffffffffffffffffffffffff1602179055508060a0818152505050506102cf565b600080fd5b600073ffffffffffffffffffffffffffffffffffffffff82169050919050565b60006101968261016b565b9050919050565b6101a68161018b565b81146101b157600080fd5b50565b6000815190506101c38161019d565b92915050565b6000819050919050565b6101dc816101c9565b81146101e757600080fd5b50565b6000815190506101f9816101d3565b92915050565b6000806040838503121561021657610215610166565b5b6000610224858286016101b4565b9250506020610235858286016101ea565b9150509250929050565b7f4e487b7100000000000000000000000000000000000000000000000000000000600052601160045260246000fd5b6000610279826101c9565b9150610284836101c9565b925082820190508082111561029c5761029b61023f565b5b92915050565b6000602082840312156102b8576102b7610166565b5b60006102c6848285016101b4565b91505092915050565b60805160a05161093e6102fa600039600061049e01526000818160e30152610107015261093e6000f3fe60806040526004361061003f5760003560e01c806329dcb0cf146100445780632d296bf11461006f578063d4b839921461008b578063fc0c546a146100b6575b600080fd5b34801561005057600080fd5b506100596100e1565b60405161006691906104fd565b60405180910390f35b61008960048036038101906100849190610549565b610105565b005b34801561009757600080fd5b506100a061049c565b6040516100ad91906104fd565b60405180910390f35b3480156100c257600080fd5b506100cb6104c0565b6040516100d891906105f5565b60405180910390f35b7f000000000000000000000000000000000000000000000000000000000000000081565b7f00000000000000000000000000000000000000000000000000000000000000004210610167576040517f08c379a000000000000000000000000000000000000000000000000000000000815260040161015e9061066d565b60405180910390fd5b60008160008054906101000a900473ffffffffffffffffffffffffffffffffffffffff1673ffffffffffffffffffffffffffffffffffffffff16635758d2fe846040518263ffffffff1660e01b81526004016101c391906104fd565b602060405180830381865afa1580156101e0573d6000803e3d6000fd5b505050506040513d601f19601f8201168201806040525081019061020491906106a2565b61020e91906106fe565b905080341015610253576040517f08c379a000000000000000000000000000000000000000000000000000000000815260040161024a9061078c565b60405180910390fd5b60008054906101000a900473ffffffffffffffffffffffffffffffffffffffff1673ffffffffffffffffffffffffffffffffffffffff16633f8a32a9836040518263ffffffff1660e01b81526004016102ac91906104fd565b600060405180830381600087803b1580156102c657600080fd5b505af11580156102da573d6000803e3d6000fd5b50505050600160009054906101000a900473ffffffffffffffffffffffffffffffffffffffff1673ffffffffffffffffffffffffffffffffffffffff1634604051610324906107dd565b60006040518083038185875af1925050503d8060008114610361576040519150601f19603f3d011682016040523d82523d6000602084013e610366565b606091505b50505060008054906101000a900473ffffffffffffffffffffffffffffffffffffffff1673ffffffffffffffffffffffffffffffffffffffff166323b872dd60008054906101000a900473ffffffffffffffffffffffffffffffffffffffff1673ffffffffffffffffffffffffffffffffffffffff1663893d20e86040518163ffffffff1660e01b8152600401602060405180830381865afa158015610410573d6000803e3d6000fd5b505050506040513d601f19601f820116820180604052508101906104349190610830565b33856040518463ffffffff1660e01b81526004016104549392919061086c565b6020604051808303816000875af1158015610473573d6000803e3d6000fd5b505050506040513d601f19601f8201168201806040525081019061049791906108db565b505050565b7f000000000000000000000000000000000000000000000000000000000000000081565b60008054906101000a900473ffffffffffffffffffffffffffffffffffffffff1681565b6000819050919050565b6104f7816104e4565b82525050565b600060208201905061051260008301846104ee565b92915050565b600080fd5b610526816104e4565b811461053157600080fd5b50565b6000813590506105438161051d565b92915050565b60006020828403121561055f5761055e610518565b5b600061056d84828501610534565b91505092915050565b600073ffffffffffffffffffffffffffffffffffffffff82169050919050565b6000819050919050565b60006105bb6105b66105b184610576565b610596565b610576565b9050919050565b60006105cd826105a0565b9050919050565b60006105df826105c2565b9050919050565b6105ef816105d4565b82525050565b600060208201905061060a60008301846105e6565b92915050565b600082825260208201905092915050565b7f50726573616c652068617320656e646564000000000000000000000000000000600082015250565b6000610657601183610610565b915061066282610621565b602082019050919050565b600060208201905081810360008301526106868161064a565b9050919050565b60008151905061069c8161051d565b92915050565b6000602082840312156106b8576106b7610518565b5b60006106c68482850161068d565b91505092915050565b7f4e487b7100000000000000000000000000000000000000000000000000000000600052601160045260246000fd5b6000610709826104e4565b9150610714836104e4565b9250828202610722816104e4565b91508282048414831517610739576107386106cf565b5b5092915050565b7f496e73756666696369656e742066756e64730000000000000000000000000000600082015250565b6000610776601283610610565b915061078182610740565b602082019050919050565b600060208201905081810360008301526107a581610769565b9050919050565b600081905092915050565b50565b60006107c76000836107ac565b91506107d2826107b7565b600082019050919050565b60006107e8826107ba565b9150819050919050565b60006107fd82610576565b9050919050565b61080d816107f2565b811461081857600080fd5b50565b60008151905061082a81610804565b92915050565b60006020828403121561084657610845610518565b5b60006108548482850161081b565b91505092915050565b610866816107f2565b82525050565b6000606082019050610881600083018661085d565b61088e602083018561085d565b61089b60408301846104ee565b949350505050565b60008115159050919050565b6108b8816108a3565b81146108c357600080fd5b50565b6000815190506108d5816108af565b92915050565b6000602082840312156108f1576108f0610518565b5b60006108ff848285016108c6565b9150509291505056fea2646970667358221220966a2cff08880e67a215940d78ecf572b7001ebcd32908ef1486fcafb5785da964736f6c634300081c0033",
  "linkReferences": {},
  "deployedLinkReferences": {}
}