{
  "_format": "hh-sol-artifact-1",
  "contractName": "Paigent",
  "sourceName": "contracts/Main.sol",
  "abi": [
    {
      "inputs": [
        {
          "internalType": "address",
          "name": "",
          "type": "address"
        }
      ],
      "name": "projects",
      "outputs": [
        {
          "internalType": "string",
          "name": "name",
          "type": "string"
        },
        {
          "internalType": "string",
          "name": "description",
          "type": "string"
        },
        {
          "internalType": "uint256",
          "name": "goal",
          "type": "uint256"
        },
        {
          "internalType": "uint256",
          "name": "presaleDeadline",
          "type": "uint256"
        },
        {
          "internalType": "uint256",
          "name": "raised",
          "type": "uint256"
        },
        {
          "internalType": "address",
          "name": "owner",
          "type": "address"
        },
        {
          "internalType": "address",
          "name": "token",
          "type": "address"
        },
        {
          "internalType": "address",
          "name": "pool",
          "type": "address"
        },
        {
          "internalType": "address",
          "name": "presale",
          "type": "address"
        }
      ],
      "stateMutability": "view",
      "type": "function"
    },
    {
      "inputs": [
        {
          "internalType": "string",
          "name": "name",
          "type": "string"
        },
        {
          "internalType": "string",
          "name": "description",
          "type": "string"
        },
        {
          "internalType": "uint256",
          "name": "goal",
          "type": "uint256"
        },
        {
          "internalType": "uint256",
          "name": "presaleDeadline",
          "type": "uint256"
        },
        {
          "internalType": "uint256",
          "name": "maxSupply",
          "type": "uint256"
        },
        {
          "internalType": "uint256",
          "name": "devSupplyRate",
          "type": "uint256"
        },
        {
          "internalType": "uint256",
          "name": "investorSupplyRate",
          "type": "uint256"
        },
        {
          "internalType": "uint256",
          "name": "price",
          "type": "uint256"
        }
      ],
      "name": "startProject",
      "outputs": [],
      "stateMutability": "nonpayable",
      "type": "function"
    }
  ],
  "bytecode": "0x6080604052348015600f57600080fd5b5061524f8061001f6000396000f3fe608060405234801561001057600080fd5b50600436106100365760003560e01c8063840e78fd1461003b578063c5e9368814610073575b600080fd5b610055600480360381019061005091906106e4565b61008f565b60405161006a999897969594939291906107c9565b60405180910390f35b61008d600480360381019061008891906109c5565b61026d565b005b60006020528060005260406000206000915090508060000180546100b290610ae2565b80601f01602080910402602001604051908101604052809291908181526020018280546100de90610ae2565b801561012b5780601f106101005761010080835404028352916020019161012b565b820191906000526020600020905b81548152906001019060200180831161010e57829003601f168201915b50505050509080600101805461014090610ae2565b80601f016020809104026020016040519081016040528092919081815260200182805461016c90610ae2565b80156101b95780601f1061018e576101008083540402835291602001916101b9565b820191906000526020600020905b81548152906001019060200180831161019c57829003601f168201915b5050505050908060020154908060030154908060040154908060050160009054906101000a900473ffffffffffffffffffffffffffffffffffffffff16908060060160009054906101000a900473ffffffffffffffffffffffffffffffffffffffff16908060070160009054906101000a900473ffffffffffffffffffffffffffffffffffffffff16908060080160009054906101000a900473ffffffffffffffffffffffffffffffffffffffff16905089565b60008888868686866040516102819061064b565b61029096959493929190610b13565b604051809103906000f0801580156102ac573d6000803e3d6000fd5b5090506000816040516102be90610658565b6102c89190610b82565b604051809103906000f0801580156102e4573d6000803e3d6000fd5b509050600082896040516102f790610665565b610302929190610b9d565b604051809103906000f08015801561031e573d6000803e3d6000fd5b5090508273ffffffffffffffffffffffffffffffffffffffff166322262da2826040518263ffffffff1660e01b815260040161035a9190610b82565b600060405180830381600087803b15801561037457600080fd5b505af1158015610388573d6000803e3d6000fd5b505050508273ffffffffffffffffffffffffffffffffffffffff16634437152a836040518263ffffffff1660e01b81526004016103c59190610b82565b600060405180830381600087803b1580156103df57600080fd5b505af11580156103f3573d6000803e3d6000fd5b5050505060006040518061012001604052808d81526020018c81526020018b81526020018a8152602001600081526020013373ffffffffffffffffffffffffffffffffffffffff1681526020018573ffffffffffffffffffffffffffffffffffffffff1681526020018473ffffffffffffffffffffffffffffffffffffffff1681526020018373ffffffffffffffffffffffffffffffffffffffff168152509050806000803373ffffffffffffffffffffffffffffffffffffffff1673ffffffffffffffffffffffffffffffffffffffff16815260200190815260200160002060008201518160000190816104e89190610d72565b5060208201518160010190816104fe9190610d72565b5060408201518160020155606082015181600301556080820151816004015560a08201518160050160006101000a81548173ffffffffffffffffffffffffffffffffffffffff021916908373ffffffffffffffffffffffffffffffffffffffff16021790555060c08201518160060160006101000a81548173ffffffffffffffffffffffffffffffffffffffff021916908373ffffffffffffffffffffffffffffffffffffffff16021790555060e08201518160070160006101000a81548173ffffffffffffffffffffffffffffffffffffffff021916908373ffffffffffffffffffffffffffffffffffffffff1602179055506101008201518160080160006101000a81548173ffffffffffffffffffffffffffffffffffffffff021916908373ffffffffffffffffffffffffffffffffffffffff160217905550905050505050505050505050505050565b61291c80610e4583390190565b610e818061376183390190565b610c38806145e283390190565b6000604051905090565b600080fd5b600080fd5b600073ffffffffffffffffffffffffffffffffffffffff82169050919050565b60006106b182610686565b9050919050565b6106c1816106a6565b81146106cc57600080fd5b50565b6000813590506106de816106b8565b92915050565b6000602082840312156106fa576106f961067c565b5b6000610708848285016106cf565b91505092915050565b600081519050919050565b600082825260208201905092915050565b60005b8381101561074b578082015181840152602081019050610730565b60008484015250505050565b6000601f19601f8301169050919050565b600061077382610711565b61077d818561071c565b935061078d81856020860161072d565b61079681610757565b840191505092915050565b6000819050919050565b6107b4816107a1565b82525050565b6107c3816106a6565b82525050565b60006101208201905081810360008301526107e4818c610768565b905081810360208301526107f8818b610768565b9050610807604083018a6107ab565b61081460608301896107ab565b61082160808301886107ab565b61082e60a08301876107ba565b61083b60c08301866107ba565b61084860e08301856107ba565b6108566101008301846107ba565b9a9950505050505050505050565b600080fd5b600080fd5b7f4e487b7100000000000000000000000000000000000000000000000000000000600052604160045260246000fd5b6108a682610757565b810181811067ffffffffffffffff821117156108c5576108c461086e565b5b80604052505050565b60006108d8610672565b90506108e4828261089d565b919050565b600067ffffffffffffffff8211156109045761090361086e565b5b61090d82610757565b9050602081019050919050565b82818337600083830152505050565b600061093c610937846108e9565b6108ce565b90508281526020810184848401111561095857610957610869565b5b61096384828561091a565b509392505050565b600082601f8301126109805761097f610864565b5b8135610990848260208601610929565b91505092915050565b6109a2816107a1565b81146109ad57600080fd5b50565b6000813590506109bf81610999565b92915050565b600080600080600080600080610100898b0312156109e6576109e561067c565b5b600089013567ffffffffffffffff811115610a0457610a03610681565b5b610a108b828c0161096b565b985050602089013567ffffffffffffffff811115610a3157610a30610681565b5b610a3d8b828c0161096b565b9750506040610a4e8b828c016109b0565b9650506060610a5f8b828c016109b0565b9550506080610a708b828c016109b0565b94505060a0610a818b828c016109b0565b93505060c0610a928b828c016109b0565b92505060e0610aa38b828c016109b0565b9150509295985092959890939650565b7f4e487b7100000000000000000000000000000000000000000000000000000000600052602260045260246000fd5b60006002820490506001821680610afa57607f821691505b602082108103610b0d57610b0c610ab3565b5b50919050565b600060c0820190508181036000830152610b2d8189610768565b90508181036020830152610b418188610768565b9050610b5060408301876107ab565b610b5d60608301866107ab565b610b6a60808301856107ab565b610b7760a08301846107ab565b979650505050505050565b6000602082019050610b9760008301846107ba565b92915050565b6000604082019050610bb260008301856107ba565b610bbf60208301846107ab565b9392505050565b60008190508160005260206000209050919050565b60006020601f8301049050919050565b600082821b905092915050565b600060088302610c287fffffffffffffffffffffffffffffffffffffffffffffffffffffffffffffffff82610beb565b610c328683610beb565b95508019841693508086168417925050509392505050565b6000819050919050565b6000610c6f610c6a610c65846107a1565b610c4a565b6107a1565b9050919050565b6000819050919050565b610c8983610c54565b610c9d610c9582610c76565b848454610bf8565b825550505050565b600090565b610cb2610ca5565b610cbd818484610c80565b505050565b5b81811015610ce157610cd6600082610caa565b600181019050610cc3565b5050565b601f821115610d2657610cf781610bc6565b610d0084610bdb565b81016020851015610d0f578190505b610d23610d1b85610bdb565b830182610cc2565b50505b505050565b600082821c905092915050565b6000610d4960001984600802610d2b565b1980831691505092915050565b6000610d628383610d38565b9150826002028217905092915050565b610d7b82610711565b67ffffffffffffffff811115610d9457610d9361086e565b5b610d9e8254610ae2565b610da9828285610ce5565b600060209050601f831160018114610ddc5760008415610dca578287015190505b610dd48582610d56565b865550610e3c565b601f198416610dea86610bc6565b60005b82811015610e1257848901518255600182019150602085019450602081019050610ded565b86831015610e2f5784890151610e2b601f891682610d38565b8355505b6001600288020188555050505b50505050505056fe61010060405234801561001157600080fd5b5060405161291c38038061291c833981810160405281019061003391906105a1565b85858160039081610044919061087d565b508060049081610054919061087d565b5050503373ffffffffffffffffffffffffffffffffffffffff1660808173ffffffffffffffffffffffffffffffffffffffff16815250508360a081815250508260c081815250508160e0818152505080600881905550606460e051856100ba919061097e565b6100c491906109ef565b600781905550606460c051856100da919061097e565b6100e491906109ef565b60068190555060006006546007546100fc9190610a20565b856101079190610a54565b905061011b3360065461014960201b60201c565b61012d3060075461014960201b60201c565b61013d308261014960201b60201c565b50505050505050610b45565b600073ffffffffffffffffffffffffffffffffffffffff168273ffffffffffffffffffffffffffffffffffffffff16036101bb5760006040517fec442f050000000000000000000000000000000000000000000000000000000081526004016101b29190610ac9565b60405180910390fd5b6101cd600083836101d160201b60201c565b5050565b600073ffffffffffffffffffffffffffffffffffffffff168373ffffffffffffffffffffffffffffffffffffffff16036102235780600260008282546102179190610a20565b925050819055506102f6565b60008060008573ffffffffffffffffffffffffffffffffffffffff1673ffffffffffffffffffffffffffffffffffffffff168152602001908152602001600020549050818110156102af578381836040517fe450d38c0000000000000000000000000000000000000000000000000000000081526004016102a693929190610af3565b60405180910390fd5b8181036000808673ffffffffffffffffffffffffffffffffffffffff1673ffffffffffffffffffffffffffffffffffffffff16815260200190815260200160002081905550505b600073ffffffffffffffffffffffffffffffffffffffff168273ffffffffffffffffffffffffffffffffffffffff160361033f578060026000828254039250508190555061038c565b806000808473ffffffffffffffffffffffffffffffffffffffff1673ffffffffffffffffffffffffffffffffffffffff168152602001908152602001600020600082825401925050819055505b8173ffffffffffffffffffffffffffffffffffffffff168373ffffffffffffffffffffffffffffffffffffffff167fddf252ad1be2c89b69c2b068fc378daa952ba7f163c4a11628f55a4df523b3ef836040516103e99190610b2a565b60405180910390a3505050565b6000604051905090565b600080fd5b600080fd5b600080fd5b600080fd5b6000601f19601f8301169050919050565b7f4e487b7100000000000000000000000000000000000000000000000000000000600052604160045260246000fd5b61045d82610414565b810181811067ffffffffffffffff8211171561047c5761047b610425565b5b80604052505050565b600061048f6103f6565b905061049b8282610454565b919050565b600067ffffffffffffffff8211156104bb576104ba610425565b5b6104c482610414565b9050602081019050919050565b60005b838110156104ef5780820151818401526020810190506104d4565b60008484015250505050565b600061050e610509846104a0565b610485565b90508281526020810184848401111561052a5761052961040f565b5b6105358482856104d1565b509392505050565b600082601f8301126105525761055161040a565b5b81516105628482602086016104fb565b91505092915050565b6000819050919050565b61057e8161056b565b811461058957600080fd5b50565b60008151905061059b81610575565b92915050565b60008060008060008060c087890312156105be576105bd610400565b5b600087015167ffffffffffffffff8111156105dc576105db610405565b5b6105e889828a0161053d565b965050602087015167ffffffffffffffff81111561060957610608610405565b5b61061589828a0161053d565b955050604061062689828a0161058c565b945050606061063789828a0161058c565b935050608061064889828a0161058c565b92505060a061065989828a0161058c565b9150509295509295509295565b600081519050919050565b7f4e487b7100000000000000000000000000000000000000000000000000000000600052602260045260246000fd5b600060028204905060018216806106b857607f821691505b6020821081036106cb576106ca610671565b5b50919050565b60008190508160005260206000209050919050565b60006020601f8301049050919050565b600082821b905092915050565b6000600883026107337fffffffffffffffffffffffffffffffffffffffffffffffffffffffffffffffff826106f6565b61073d86836106f6565b95508019841693508086168417925050509392505050565b6000819050919050565b600061077a6107756107708461056b565b610755565b61056b565b9050919050565b6000819050919050565b6107948361075f565b6107a86107a082610781565b848454610703565b825550505050565b600090565b6107bd6107b0565b6107c881848461078b565b505050565b5b818110156107ec576107e16000826107b5565b6001810190506107ce565b5050565b601f82111561083157610802816106d1565b61080b846106e6565b8101602085101561081a578190505b61082e610826856106e6565b8301826107cd565b50505b505050565b600082821c905092915050565b600061085460001984600802610836565b1980831691505092915050565b600061086d8383610843565b9150826002028217905092915050565b61088682610666565b67ffffffffffffffff81111561089f5761089e610425565b5b6108a982546106a0565b6108b48282856107f0565b600060209050601f8311600181146108e757600084156108d5578287015190505b6108df8582610861565b865550610947565b601f1984166108f5866106d1565b60005b8281101561091d578489015182556001820191506020850194506020810190506108f8565b8683101561093a5784890151610936601f891682610843565b8355505b6001600288020188555050505b505050505050565b7f4e487b7100000000000000000000000000000000000000000000000000000000600052601160045260246000fd5b60006109898261056b565b91506109948361056b565b92508282026109a28161056b565b915082820484148315176109b9576109b861094f565b5b5092915050565b7f4e487b7100000000000000000000000000000000000000000000000000000000600052601260045260246000fd5b60006109fa8261056b565b9150610a058361056b565b925082610a1557610a146109c0565b5b828204905092915050565b6000610a2b8261056b565b9150610a368361056b565b9250828201905080821115610a4e57610a4d61094f565b5b92915050565b6000610a5f8261056b565b9150610a6a8361056b565b9250828203905081811115610a8257610a8161094f565b5b92915050565b600073ffffffffffffffffffffffffffffffffffffffff82169050919050565b6000610ab382610a88565b9050919050565b610ac381610aa8565b82525050565b6000602082019050610ade6000830184610aba565b92915050565b610aed8161056b565b82525050565b6000606082019050610b086000830186610aba565b610b156020830185610ae4565b610b226040830184610ae4565b949350505050565b6000602082019050610b3f6000830184610ae4565b92915050565b60805160a05160c05160e051611d82610b9a6000396000610b040152600061084f0152600081816109820152610c6701526000818161071301528181610b3601528181610b5c0152610d420152611d826000f3fe608060405234801561001057600080fd5b50600436106101da5760003560e01c80637789f1f211610104578063a035b1fe116100a2578063dc79d06911610071578063dc79d06914610551578063dd62ed3e1461056f578063f586c6d91461059f578063f8ce221c146105bd576101da565b8063a035b1fe146104c7578063a9059cbb146104e5578063c30a133a14610515578063d5abeb0114610533576101da565b8063893d20e8116100de578063893d20e81461044f5780638da5cb5b1461046d5780639106d7ba1461048b57806395d89b41146104a9576101da565b80637789f1f2146103f557806383565f0614610413578063849a81ef14610431576101da565b8063291182911161017c5780634437152a1161014b5780634437152a1461035b5780635758d2fe14610377578063688a5a1e146103a757806370a08231146103c5576101da565b806329118291146102e5578063313ce567146103035780633f8a32a91461032157806341c66d0a1461033d576101da565b806318160ddd116101b857806318160ddd1461024b5780631b337eb41461026957806322262da21461029957806323b872dd146102b5576101da565b806306fdde03146101df578063095ea7b3146101fd57806316f0115b1461022d575b600080fd5b6101e76105d9565b6040516101f4919061158f565b60405180910390f35b6102176004803603810190610212919061164a565b61066b565b60405161022491906116a5565b60405180910390f35b61023561068e565b60405161024291906116cf565b60405180910390f35b6102536106b4565b60405161026091906116f9565b60405180910390f35b610283600480360381019061027e9190611714565b6106be565b60405161029091906116f9565b60405180910390f35b6102b360048036038101906102ae9190611741565b610711565b005b6102cf60048036038101906102ca919061176e565b61081e565b6040516102dc91906116a5565b60405180910390f35b6102ed61084d565b6040516102fa91906116f9565b60405180910390f35b61030b610871565b60405161031891906117dd565b60405180910390f35b61033b60048036038101906103369190611714565b61087a565b005b610345610896565b60405161035291906116f9565b60405180910390f35b61037560048036038101906103709190611741565b61089c565b005b610391600480360381019061038c9190611714565b610a4f565b60405161039e91906116f9565b60405180910390f35b6103af610aa2565b6040516103bc91906116f9565b60405180910390f35b6103df60048036038101906103da9190611741565b610aae565b6040516103ec91906116f9565b60405180910390f35b6103fd610af6565b60405161040a91906116f9565b60405180910390f35b61041b610b02565b60405161042891906116f9565b60405180910390f35b610439610b26565b60405161044691906116f9565b60405180910390f35b610457610b32565b60405161046491906116cf565b60405180910390f35b610475610b5a565b60405161048291906116cf565b60405180910390f35b610493610b7e565b6040516104a091906116f9565b60405180910390f35b6104b1610b84565b6040516104be919061158f565b60405180910390f35b6104cf610c16565b6040516104dc91906116f9565b60405180910390f35b6104ff60048036038101906104fa919061164a565b610c1c565b60405161050c91906116a5565b60405180910390f35b61051d610c3f565b60405161052a9190611857565b60405180910390f35b61053b610c65565b60405161054891906116f9565b60405180910390f35b610559610c89565b60405161056691906116f9565b60405180910390f35b61058960048036038101906105849190611872565b610c8f565b60405161059691906116f9565b60405180910390f35b6105a7610d16565b6040516105b491906116cf565b60405180910390f35b6105d760048036038101906105d29190611741565b610d40565b005b6060600380546105e8906118e1565b80601f0160208091040260200160405190810160405280929190818152602001828054610614906118e1565b80156106615780601f1061063657610100808354040283529160200191610661565b820191906000526020600020905b81548152906001019060200180831161064457829003601f168201915b5050505050905090565b600080610676610f61565b9050610683818585610f69565b600191505092915050565b600560009054906101000a900473ffffffffffffffffffffffffffffffffffffffff1681565b6000600254905090565b600080600854905060005b8381101561070757670de0b6b3a76400006709b6e64a8ec60000836106ee9190611941565b6106f891906119b2565b915080806001019150506106c9565b5080915050919050565b7f000000000000000000000000000000000000000000000000000000000000000073ffffffffffffffffffffffffffffffffffffffff163373ffffffffffffffffffffffffffffffffffffffff161461079f576040517f08c379a000000000000000000000000000000000000000000000000000000000815260040161079690611a2f565b60405180910390fd5b600073ffffffffffffffffffffffffffffffffffffffff168173ffffffffffffffffffffffffffffffffffffffff160361080e576040517f08c379a000000000000000000000000000000000000000000000000000000000815260040161080590611a9b565b60405180910390fd5b61081a8160075461066b565b5050565b600080610829610f61565b9050610836858285610f7b565b61084185858561100f565b60019150509392505050565b7f000000000000000000000000000000000000000000000000000000000000000081565b60006012905090565b80600a600082825461088c9190611abb565b9250508190555050565b60065481565b600073ffffffffffffffffffffffffffffffffffffffff16600560009054906101000a900473ffffffffffffffffffffffffffffffffffffffff1673ffffffffffffffffffffffffffffffffffffffff161461092d576040517f08c379a000000000000000000000000000000000000000000000000000000000815260040161092490611b3b565b60405180910390fd5b80600560006101000a81548173ffffffffffffffffffffffffffffffffffffffff021916908373ffffffffffffffffffffffffffffffffffffffff16021790555060006007546006546109809190611abb565b7f00000000000000000000000000000000000000000000000000000000000000006109ab9190611b5b565b90506109d9600560009054906101000a900473ffffffffffffffffffffffffffffffffffffffff1682610c1c565b50600560009054906101000a900473ffffffffffffffffffffffffffffffffffffffff1673ffffffffffffffffffffffffffffffffffffffff166108fc67016345785d8a00009081150290604051600060405180830381858888f19350505050158015610a4a573d6000803e3d6000fd5b505050565b600080600854905060005b83811015610a9857670de0b6b3a76400006710a741a46278000083610a7f9190611941565b610a8991906119b2565b91508080600101915050610a5a565b5080915050919050565b6710a741a46278000081565b60008060008373ffffffffffffffffffffffffffffffffffffffff1673ffffffffffffffffffffffffffffffffffffffff168152602001908152602001600020549050919050565b6709b6e64a8ec6000081565b7f000000000000000000000000000000000000000000000000000000000000000081565b67016345785d8a000081565b60007f0000000000000000000000000000000000000000000000000000000000000000905090565b7f000000000000000000000000000000000000000000000000000000000000000081565b600a5481565b606060048054610b93906118e1565b80601f0160208091040260200160405190810160405280929190818152602001828054610bbf906118e1565b8015610c0c5780601f10610be157610100808354040283529160200191610c0c565b820191906000526020600020905b815481529060010190602001808311610bef57829003601f168201915b5050505050905090565b60085481565b600080610c27610f61565b9050610c3481858561100f565b600191505092915050565b600960009054906101000a900473ffffffffffffffffffffffffffffffffffffffff1681565b7f000000000000000000000000000000000000000000000000000000000000000081565b60075481565b6000600160008473ffffffffffffffffffffffffffffffffffffffff1673ffffffffffffffffffffffffffffffffffffffff16815260200190815260200160002060008373ffffffffffffffffffffffffffffffffffffffff1673ffffffffffffffffffffffffffffffffffffffff16815260200190815260200160002054905092915050565b6000600560009054906101000a900473ffffffffffffffffffffffffffffffffffffffff16905090565b7f000000000000000000000000000000000000000000000000000000000000000073ffffffffffffffffffffffffffffffffffffffff163373ffffffffffffffffffffffffffffffffffffffff1614610dce576040517f08c379a0000000000000000000000000000000000000000000000000000000008152600401610dc590611bdb565b60405180910390fd5b600073ffffffffffffffffffffffffffffffffffffffff168173ffffffffffffffffffffffffffffffffffffffff1603610e3d576040517f08c379a0000000000000000000000000000000000000000000000000000000008152600401610e3490611c47565b60405180910390fd5b80600960006101000a81548173ffffffffffffffffffffffffffffffffffffffff021916908373ffffffffffffffffffffffffffffffffffffffff1602179055506064600960009054906101000a900473ffffffffffffffffffffffffffffffffffffffff1673ffffffffffffffffffffffffffffffffffffffff166367558d466040518163ffffffff1660e01b8152600401602060405180830381865afa158015610eed573d6000803e3d6000fd5b505050506040513d601f19601f82011682018060405250810190610f119190611c7c565b14610f51576040517f08c379a0000000000000000000000000000000000000000000000000000000008152600401610f4890611cf5565b60405180910390fd5b610f5d81600654610c1c565b5050565b600033905090565b610f768383836001611103565b505050565b6000610f878484610c8f565b90507fffffffffffffffffffffffffffffffffffffffffffffffffffffffffffffffff81146110095781811015610ff9578281836040517ffb8f41b2000000000000000000000000000000000000000000000000000000008152600401610ff093929190611d15565b60405180910390fd5b61100884848484036000611103565b5b50505050565b600073ffffffffffffffffffffffffffffffffffffffff168373ffffffffffffffffffffffffffffffffffffffff16036110815760006040517f96c6fd1e00000000000000000000000000000000000000000000000000000000815260040161107891906116cf565b60405180910390fd5b600073ffffffffffffffffffffffffffffffffffffffff168273ffffffffffffffffffffffffffffffffffffffff16036110f35760006040517fec442f050000000000000000000000000000000000000000000000000000000081526004016110ea91906116cf565b60405180910390fd5b6110fe8383836112da565b505050565b600073ffffffffffffffffffffffffffffffffffffffff168473ffffffffffffffffffffffffffffffffffffffff16036111755760006040517fe602df0500000000000000000000000000000000000000000000000000000000815260040161116c91906116cf565b60405180910390fd5b600073ffffffffffffffffffffffffffffffffffffffff168373ffffffffffffffffffffffffffffffffffffffff16036111e75760006040517f94280d620000000000000000000000000000000000000000000000000000000081526004016111de91906116cf565b60405180910390fd5b81600160008673ffffffffffffffffffffffffffffffffffffffff1673ffffffffffffffffffffffffffffffffffffffff16815260200190815260200160002060008573ffffffffffffffffffffffffffffffffffffffff1673ffffffffffffffffffffffffffffffffffffffff1681526020019081526020016000208190555080156112d4578273ffffffffffffffffffffffffffffffffffffffff168473ffffffffffffffffffffffffffffffffffffffff167f8c5be1e5ebec7d5bd14f71427d1e84f3dd0314c0f7b2291e5b200ac8c7c3b925846040516112cb91906116f9565b60405180910390a35b50505050565b600073ffffffffffffffffffffffffffffffffffffffff168373ffffffffffffffffffffffffffffffffffffffff160361132c5780600260008282546113209190611abb565b925050819055506113ff565b60008060008573ffffffffffffffffffffffffffffffffffffffff1673ffffffffffffffffffffffffffffffffffffffff168152602001908152602001600020549050818110156113b8578381836040517fe450d38c0000000000000000000000000000000000000000000000000000000081526004016113af93929190611d15565b60405180910390fd5b8181036000808673ffffffffffffffffffffffffffffffffffffffff1673ffffffffffffffffffffffffffffffffffffffff16815260200190815260200160002081905550505b600073ffffffffffffffffffffffffffffffffffffffff168273ffffffffffffffffffffffffffffffffffffffff16036114485780600260008282540392505081905550611495565b806000808473ffffffffffffffffffffffffffffffffffffffff1673ffffffffffffffffffffffffffffffffffffffff168152602001908152602001600020600082825401925050819055505b8173ffffffffffffffffffffffffffffffffffffffff168373ffffffffffffffffffffffffffffffffffffffff167fddf252ad1be2c89b69c2b068fc378daa952ba7f163c4a11628f55a4df523b3ef836040516114f291906116f9565b60405180910390a3505050565b600081519050919050565b600082825260208201905092915050565b60005b8381101561153957808201518184015260208101905061151e565b60008484015250505050565b6000601f19601f8301169050919050565b6000611561826114ff565b61156b818561150a565b935061157b81856020860161151b565b61158481611545565b840191505092915050565b600060208201905081810360008301526115a98184611556565b905092915050565b600080fd5b600073ffffffffffffffffffffffffffffffffffffffff82169050919050565b60006115e1826115b6565b9050919050565b6115f1816115d6565b81146115fc57600080fd5b50565b60008135905061160e816115e8565b92915050565b6000819050919050565b61162781611614565b811461163257600080fd5b50565b6000813590506116448161161e565b92915050565b60008060408385031215611661576116606115b1565b5b600061166f858286016115ff565b925050602061168085828601611635565b9150509250929050565b60008115159050919050565b61169f8161168a565b82525050565b60006020820190506116ba6000830184611696565b92915050565b6116c9816115d6565b82525050565b60006020820190506116e460008301846116c0565b92915050565b6116f381611614565b82525050565b600060208201905061170e60008301846116ea565b92915050565b60006020828403121561172a576117296115b1565b5b600061173884828501611635565b91505092915050565b600060208284031215611757576117566115b1565b5b6000611765848285016115ff565b91505092915050565b600080600060608486031215611787576117866115b1565b5b6000611795868287016115ff565b93505060206117a6868287016115ff565b92505060406117b786828701611635565b9150509250925092565b600060ff82169050919050565b6117d7816117c1565b82525050565b60006020820190506117f260008301846117ce565b92915050565b6000819050919050565b600061181d611818611813846115b6565b6117f8565b6115b6565b9050919050565b600061182f82611802565b9050919050565b600061184182611824565b9050919050565b61185181611836565b82525050565b600060208201905061186c6000830184611848565b92915050565b60008060408385031215611889576118886115b1565b5b6000611897858286016115ff565b92505060206118a8858286016115ff565b9150509250929050565b7f4e487b7100000000000000000000000000000000000000000000000000000000600052602260045260246000fd5b600060028204905060018216806118f957607f821691505b60208210810361190c5761190b6118b2565b5b50919050565b7f4e487b7100000000000000000000000000000000000000000000000000000000600052601160045260246000fd5b600061194c82611614565b915061195783611614565b925082820261196581611614565b9150828204841483151761197c5761197b611912565b5b5092915050565b7f4e487b7100000000000000000000000000000000000000000000000000000000600052601260045260246000fd5b60006119bd82611614565b91506119c883611614565b9250826119d8576119d7611983565b5b828204905092915050565b7f4f6e6c79206f776e65722063616e206c6973742070726573616c650000000000600082015250565b6000611a19601b8361150a565b9150611a24826119e3565b602082019050919050565b60006020820190508181036000830152611a4881611a0c565b9050919050565b7f5a65726f2061646472657373657320617265206e6f7420616c6c6f7765642e00600082015250565b6000611a85601f8361150a565b9150611a9082611a4f565b602082019050919050565b60006020820190508181036000830152611ab481611a78565b9050919050565b6000611ac682611614565b9150611ad183611614565b9250828201905080821115611ae957611ae8611912565b5b92915050565b7f506f6f6c20616c72656164792073657400000000000000000000000000000000600082015250565b6000611b2560108361150a565b9150611b3082611aef565b602082019050919050565b60006020820190508181036000830152611b5481611b18565b9050919050565b6000611b6682611614565b9150611b7183611614565b9250828203905081811115611b8957611b88611912565b5b92915050565b7f4f6e6c79206f776e65722063616e207365742073756363657373206375727665600082015250565b6000611bc560208361150a565b9150611bd082611b8f565b602082019050919050565b60006020820190508181036000830152611bf481611bb8565b9050919050565b7f496e76616c696420616464726573730000000000000000000000000000000000600082015250565b6000611c31600f8361150a565b9150611c3c82611bfb565b602082019050919050565b60006020820190508181036000830152611c6081611c24565b9050919050565b600081519050611c768161161e565b92915050565b600060208284031215611c9257611c916115b1565b5b6000611ca084828501611c67565b91505092915050565b7f426f6e64696e67206375727665206973206e6f7420636f6d706c657465000000600082015250565b6000611cdf601d8361150a565b9150611cea82611ca9565b602082019050919050565b60006020820190508181036000830152611d0e81611cd2565b9050919050565b6000606082019050611d2a60008301866116c0565b611d3760208301856116ea565b611d4460408301846116ea565b94935050505056fea2646970667358221220dcfe0f9bad80e63cbac68df84ef61ddd5d0ce0440affb2edea632aaa7b5acda964736f6c634300081c003360a060405234801561001057600080fd5b50604051610e81380380610e818339818101604052810190610032919061019a565b3373ffffffffffffffffffffffffffffffffffffffff1660808173ffffffffffffffffffffffffffffffffffffffff1681525050806000806101000a81548173ffffffffffffffffffffffffffffffffffffffff021916908373ffffffffffffffffffffffffffffffffffffffff16021790555060008054906101000a900473ffffffffffffffffffffffffffffffffffffffff1673ffffffffffffffffffffffffffffffffffffffff16634437152a306040518263ffffffff1660e01b81526004016100ff91906101d6565b600060405180830381600087803b15801561011957600080fd5b505af115801561012d573d6000803e3d6000fd5b50505050506101f1565b600080fd5b600073ffffffffffffffffffffffffffffffffffffffff82169050919050565b60006101678261013c565b9050919050565b6101778161015c565b811461018257600080fd5b50565b6000815190506101948161016e565b92915050565b6000602082840312156101b0576101af610137565b5b60006101be84828501610185565b91505092915050565b6101d08161015c565b82525050565b60006020820190506101eb60008301846101c7565b92915050565b608051610c7861020960003960005050610c786000f3fe6080604052600436106100745760003560e01c80638fc7a25d1161004e5780638fc7a25d14610115578063ae86041d14610152578063c2507ac11461017b578063fc0c546a146101b8576100b2565b806312065fe0146100b757806330506732146100e25780638b4d30fe146100ec576100b2565b366100b2577f2a89b2e3d580398d6dc2db5e0f336b52602bbaa51afa9bb5cdf59239cf0d2bea346040516100a89190610731565b60405180910390a1005b600080fd5b3480156100c357600080fd5b506100cc6101e3565b6040516100d99190610731565b60405180910390f35b6100ea6101eb565b005b3480156100f857600080fd5b50610113600480360381019061010e919061077d565b610409565b005b34801561012157600080fd5b5061013c6004803603810190610137919061077d565b6104f9565b6040516101499190610731565b60405180910390f35b34801561015e57600080fd5b506101796004803603810190610174919061077d565b61050f565b005b34801561018757600080fd5b506101a2600480360381019061019d919061077d565b6106de565b6040516101af9190610731565b60405180910390f35b3480156101c457600080fd5b506101cd6106f4565b6040516101da9190610829565b60405180910390f35b600047905090565b6000341161022e576040517f08c379a0000000000000000000000000000000000000000000000000000000008152600401610225906108a1565b60405180910390fd5b6000610239346106de565b90508060008054906101000a900473ffffffffffffffffffffffffffffffffffffffff1673ffffffffffffffffffffffffffffffffffffffff166370a08231306040518263ffffffff1660e01b815260040161029591906108e2565b602060405180830381865afa1580156102b2573d6000803e3d6000fd5b505050506040513d601f19601f820116820180604052508101906102d69190610912565b1015610317576040517f08c379a000000000000000000000000000000000000000000000000000000000815260040161030e9061098b565b60405180910390fd5b60008054906101000a900473ffffffffffffffffffffffffffffffffffffffff1673ffffffffffffffffffffffffffffffffffffffff1663a9059cbb33836040518363ffffffff1660e01b81526004016103729291906109ab565b6020604051808303816000875af1158015610391573d6000803e3d6000fd5b505050506040513d601f19601f820116820180604052508101906103b59190610a0c565b503373ffffffffffffffffffffffffffffffffffffffff167f39040f1b16fb5c9ae016912fd9917ff2bb0f901c3e39da18d8e97923075062ae34836040516103fe929190610a39565b60405180910390a250565b60008054906101000a900473ffffffffffffffffffffffffffffffffffffffff1673ffffffffffffffffffffffffffffffffffffffff1663095ea7b330836040518363ffffffff1660e01b81526004016104649291906109ab565b6020604051808303816000875af1158015610483573d6000803e3d6000fd5b505050506040513d601f19601f820116820180604052508101906104a79190610a0c565b503373ffffffffffffffffffffffffffffffffffffffff167f72d615aca2dfc5b17988697924f5b6d5a51d2b998b7f5fa50d72219c802db8c2826040516104ee9190610731565b60405180910390a250565b60006064826105089190610ac0565b9050919050565b60008111610552576040517f08c379a000000000000000000000000000000000000000000000000000000000815260040161054990610b3d565b60405180910390fd5b600061055d826104f9565b9050804710156105a2576040517f08c379a000000000000000000000000000000000000000000000000000000000815260040161059990610ba9565b60405180910390fd5b60008054906101000a900473ffffffffffffffffffffffffffffffffffffffff1673ffffffffffffffffffffffffffffffffffffffff166323b872dd3330856040518463ffffffff1660e01b81526004016105ff93929190610bc9565b6020604051808303816000875af115801561061e573d6000803e3d6000fd5b505050506040513d601f19601f820116820180604052508101906106429190610a0c565b503373ffffffffffffffffffffffffffffffffffffffff166108fc829081150290604051600060405180830381858888f19350505050158015610689573d6000803e3d6000fd5b503373ffffffffffffffffffffffffffffffffffffffff167fe6a0ac9edb56d3310bb86e3364aec84c13c6541ed565eddf1bef47698aff472d83836040516106d2929190610a39565b60405180910390a25050565b60006064826106ed9190610c00565b9050919050565b60008054906101000a900473ffffffffffffffffffffffffffffffffffffffff1681565b6000819050919050565b61072b81610718565b82525050565b60006020820190506107466000830184610722565b92915050565b600080fd5b61075a81610718565b811461076557600080fd5b50565b60008135905061077781610751565b92915050565b6000602082840312156107935761079261074c565b5b60006107a184828501610768565b91505092915050565b600073ffffffffffffffffffffffffffffffffffffffff82169050919050565b6000819050919050565b60006107ef6107ea6107e5846107aa565b6107ca565b6107aa565b9050919050565b6000610801826107d4565b9050919050565b6000610813826107f6565b9050919050565b61082381610808565b82525050565b600060208201905061083e600083018461081a565b92915050565b600082825260208201905092915050565b7f4d7573742073656e642045544820746f20737761700000000000000000000000600082015250565b600061088b601583610844565b915061089682610855565b602082019050919050565b600060208201905081810360008301526108ba8161087e565b9050919050565b60006108cc826107aa565b9050919050565b6108dc816108c1565b82525050565b60006020820190506108f760008301846108d3565b92915050565b60008151905061090c81610751565b92915050565b6000602082840312156109285761092761074c565b5b6000610936848285016108fd565b91505092915050565b7f4e6f7420656e6f75676820746f6b656e7320696e20706f6f6c00000000000000600082015250565b6000610975601983610844565b91506109808261093f565b602082019050919050565b600060208201905081810360008301526109a481610968565b9050919050565b60006040820190506109c060008301856108d3565b6109cd6020830184610722565b9392505050565b60008115159050919050565b6109e9816109d4565b81146109f457600080fd5b50565b600081519050610a06816109e0565b92915050565b600060208284031215610a2257610a2161074c565b5b6000610a30848285016109f7565b91505092915050565b6000604082019050610a4e6000830185610722565b610a5b6020830184610722565b9392505050565b7f4e487b7100000000000000000000000000000000000000000000000000000000600052601260045260246000fd5b7f4e487b7100000000000000000000000000000000000000000000000000000000600052601160045260246000fd5b6000610acb82610718565b9150610ad683610718565b925082610ae657610ae5610a62565b5b828204905092915050565b7f4d7573742073656e6420746f6b656e7320746f20737761700000000000000000600082015250565b6000610b27601883610844565b9150610b3282610af1565b602082019050919050565b60006020820190508181036000830152610b5681610b1a565b9050919050565b7f4e6f7420656e6f7567682045544820696e20706f6f6c00000000000000000000600082015250565b6000610b93601683610844565b9150610b9e82610b5d565b602082019050919050565b60006020820190508181036000830152610bc281610b86565b9050919050565b6000606082019050610bde60008301866108d3565b610beb60208301856108d3565b610bf86040830184610722565b949350505050565b6000610c0b82610718565b9150610c1683610718565b9250828202610c2481610718565b91508282048414831517610c3b57610c3a610a91565b5b509291505056fea2646970667358221220a9d558ab603fde7e49c2aa013c1b72a5bdf00b8cb9ca094fbfa5a613a6fdeb6164736f6c634300081c003360c060405234801561001057600080fd5b50604051610c38380380610c38833981810160405281019061003291906101ff565b62093a8042610041919061026e565b60808181525050816000806101000a81548173ffffffffffffffffffffffffffffffffffffffff021916908373ffffffffffffffffffffffffffffffffffffffff16021790555060008054906101000a900473ffffffffffffffffffffffffffffffffffffffff1673ffffffffffffffffffffffffffffffffffffffff1663f586c6d96040518163ffffffff1660e01b8152600401602060405180830381865afa1580156100f3573d6000803e3d6000fd5b505050506040513d601f19601f8201168201806040525081019061011791906102a2565b600160006101000a81548173ffffffffffffffffffffffffffffffffffffffff021916908373ffffffffffffffffffffffffffffffffffffffff1602179055508060a0818152505050506102cf565b600080fd5b600073ffffffffffffffffffffffffffffffffffffffff82169050919050565b60006101968261016b565b9050919050565b6101a68161018b565b81146101b157600080fd5b50565b6000815190506101c38161019d565b92915050565b6000819050919050565b6101dc816101c9565b81146101e757600080fd5b50565b6000815190506101f9816101d3565b92915050565b6000806040838503121561021657610215610166565b5b6000610224858286016101b4565b9250506020610235858286016101ea565b9150509250929050565b7f4e487b7100000000000000000000000000000000000000000000000000000000600052601160045260246000fd5b6000610279826101c9565b9150610284836101c9565b925082820190508082111561029c5761029b61023f565b5b92915050565b6000602082840312156102b8576102b7610166565b5b60006102c6848285016101b4565b91505092915050565b60805160a05161093e6102fa600039600061049e01526000818160e30152610107015261093e6000f3fe60806040526004361061003f5760003560e01c806329dcb0cf146100445780632d296bf11461006f578063d4b839921461008b578063fc0c546a146100b6575b600080fd5b34801561005057600080fd5b506100596100e1565b60405161006691906104fd565b60405180910390f35b61008960048036038101906100849190610549565b610105565b005b34801561009757600080fd5b506100a061049c565b6040516100ad91906104fd565b60405180910390f35b3480156100c257600080fd5b506100cb6104c0565b6040516100d891906105f5565b60405180910390f35b7f000000000000000000000000000000000000000000000000000000000000000081565b7f00000000000000000000000000000000000000000000000000000000000000004210610167576040517f08c379a000000000000000000000000000000000000000000000000000000000815260040161015e9061066d565b60405180910390fd5b60008160008054906101000a900473ffffffffffffffffffffffffffffffffffffffff1673ffffffffffffffffffffffffffffffffffffffff16635758d2fe846040518263ffffffff1660e01b81526004016101c391906104fd565b602060405180830381865afa1580156101e0573d6000803e3d6000fd5b505050506040513d601f19601f8201168201806040525081019061020491906106a2565b61020e91906106fe565b905080341015610253576040517f08c379a000000000000000000000000000000000000000000000000000000000815260040161024a9061078c565b60405180910390fd5b60008054906101000a900473ffffffffffffffffffffffffffffffffffffffff1673ffffffffffffffffffffffffffffffffffffffff16633f8a32a9836040518263ffffffff1660e01b81526004016102ac91906104fd565b600060405180830381600087803b1580156102c657600080fd5b505af11580156102da573d6000803e3d6000fd5b50505050600160009054906101000a900473ffffffffffffffffffffffffffffffffffffffff1673ffffffffffffffffffffffffffffffffffffffff1634604051610324906107dd565b60006040518083038185875af1925050503d8060008114610361576040519150601f19603f3d011682016040523d82523d6000602084013e610366565b606091505b50505060008054906101000a900473ffffffffffffffffffffffffffffffffffffffff1673ffffffffffffffffffffffffffffffffffffffff166323b872dd60008054906101000a900473ffffffffffffffffffffffffffffffffffffffff1673ffffffffffffffffffffffffffffffffffffffff1663893d20e86040518163ffffffff1660e01b8152600401602060405180830381865afa158015610410573d6000803e3d6000fd5b505050506040513d601f19601f820116820180604052508101906104349190610830565b33856040518463ffffffff1660e01b81526004016104549392919061086c565b6020604051808303816000875af1158015610473573d6000803e3d6000fd5b505050506040513d601f19601f8201168201806040525081019061049791906108db565b505050565b7f000000000000000000000000000000000000000000000000000000000000000081565b60008054906101000a900473ffffffffffffffffffffffffffffffffffffffff1681565b6000819050919050565b6104f7816104e4565b82525050565b600060208201905061051260008301846104ee565b92915050565b600080fd5b610526816104e4565b811461053157600080fd5b50565b6000813590506105438161051d565b92915050565b60006020828403121561055f5761055e610518565b5b600061056d84828501610534565b91505092915050565b600073ffffffffffffffffffffffffffffffffffffffff82169050919050565b6000819050919050565b60006105bb6105b66105b184610576565b610596565b610576565b9050919050565b60006105cd826105a0565b9050919050565b60006105df826105c2565b9050919050565b6105ef816105d4565b82525050565b600060208201905061060a60008301846105e6565b92915050565b600082825260208201905092915050565b7f50726573616c652068617320656e646564000000000000000000000000000000600082015250565b6000610657601183610610565b915061066282610621565b602082019050919050565b600060208201905081810360008301526106868161064a565b9050919050565b60008151905061069c8161051d565b92915050565b6000602082840312156106b8576106b7610518565b5b60006106c68482850161068d565b91505092915050565b7f4e487b7100000000000000000000000000000000000000000000000000000000600052601160045260246000fd5b6000610709826104e4565b9150610714836104e4565b9250828202610722816104e4565b91508282048414831517610739576107386106cf565b5b5092915050565b7f496e73756666696369656e742066756e64730000000000000000000000000000600082015250565b6000610776601283610610565b915061078182610740565b602082019050919050565b600060208201905081810360008301526107a581610769565b9050919050565b600081905092915050565b50565b60006107c76000836107ac565b91506107d2826107b7565b600082019050919050565b60006107e8826107ba565b9150819050919050565b60006107fd82610576565b9050919050565b61080d816107f2565b811461081857600080fd5b50565b60008151905061082a81610804565b92915050565b60006020828403121561084657610845610518565b5b60006108548482850161081b565b91505092915050565b610866816107f2565b82525050565b6000606082019050610881600083018661085d565b61088e602083018561085d565b61089b60408301846104ee565b949350505050565b60008115159050919050565b6108b8816108a3565b81146108c357600080fd5b50565b6000815190506108d5816108af565b92915050565b6000602082840312156108f1576108f0610518565b5b60006108ff848285016108c6565b9150509291505056fea2646970667358221220966a2cff08880e67a215940d78ecf572b7001ebcd32908ef1486fcafb5785da964736f6c634300081c0033a2646970667358221220e1832a690085cd8266dfe4f4961ca83531ee2f505aa00f2da3526a480b3f643264736f6c634300081c0033",
  "linkReferences": {},
  "deployedLinkReferences": {}
}