{
  "_format": "hh-sol-artifact-1",
  "contractName": "Pair",
  "sourceName": "contracts/Pair.sol",
  "abi": [
    {
      "inputs": [
        {
          "internalType": "address",
          "name": "factory_",
          "type": "address"
        },
        {
          "internalType": "address",
          "name": "token0",
          "type": "address"
        },
        {
          "internalType": "address",
          "name": "token1",
          "type": "address"
        }
      ],
      "stateMutability": "nonpayable",
      "type": "constructor"
    },
    {
      "inputs": [],
      "name": "ReentrancyGuardReentrantCall",
      "type": "error"
    },
    {
      "anonymous": false,
      "inputs": [
        {
          "indexed": false,
          "internalType": "uint256",
          "name": "reserve0",
          "type": "uint256"
        },
        {
          "indexed": false,
          "internalType": "uint256",
          "name": "reserve1",
          "type": "uint256"
        },
        {
          "indexed": false,
          "internalType": "address",
          "name": "lp",
          "type": "address"
        }
      ],
      "name": "Burn",
      "type": "event"
    },
    {
      "anonymous": false,
      "inputs": [
        {
          "indexed": false,
          "internalType": "uint256",
          "name": "reserve0",
          "type": "uint256"
        },
        {
          "indexed": false,
          "internalType": "uint256",
          "name": "reserve1",
          "type": "uint256"
        },
        {
          "indexed": false,
          "internalType": "address",
          "name": "lp",
          "type": "address"
        }
      ],
      "name": "Mint",
      "type": "event"
    },
    {
      "anonymous": false,
      "inputs": [
        {
          "indexed": false,
          "internalType": "uint256",
          "name": "amount0In",
          "type": "uint256"
        },
        {
          "indexed": false,
          "internalType": "uint256",
          "name": "amount0Out",
          "type": "uint256"
        },
        {
          "indexed": false,
          "internalType": "uint256",
          "name": "amount1In",
          "type": "uint256"
        },
        {
          "indexed": false,
          "internalType": "uint256",
          "name": "amount1Out",
          "type": "uint256"
        }
      ],
      "name": "Swap",
      "type": "event"
    },
    {
      "inputs": [],
      "name": "MINIMUM_LIQUIDITY",
      "outputs": [
        {
          "internalType": "uint256",
          "name": "",
          "type": "uint256"
        }
      ],
      "stateMutability": "pure",
      "type": "function"
    },
    {
      "inputs": [
        {
          "internalType": "address",
          "name": "_user",
          "type": "address"
        },
        {
          "internalType": "address",
          "name": "_token",
          "type": "address"
        },
        {
          "internalType": "uint256",
          "name": "amount",
          "type": "uint256"
        }
      ],
      "name": "approval",
      "outputs": [
        {
          "internalType": "bool",
          "name": "",
          "type": "bool"
        }
      ],
      "stateMutability": "nonpayable",
      "type": "function"
    },
    {
      "inputs": [],
      "name": "balance",
      "outputs": [
        {
          "internalType": "uint256",
          "name": "",
          "type": "uint256"
        }
      ],
      "stateMutability": "view",
      "type": "function"
    },
    {
      "inputs": [
        {
          "internalType": "uint256",
          "name": "reserve0",
          "type": "uint256"
        },
        {
          "internalType": "uint256",
          "name": "reserve1",
          "type": "uint256"
        },
        {
          "internalType": "address",
          "name": "_lp",
          "type": "address"
        }
      ],
      "name": "burn",
      "outputs": [
        {
          "internalType": "bool",
          "name": "",
          "type": "bool"
        }
      ],
      "stateMutability": "nonpayable",
      "type": "function"
    },
    {
      "inputs": [],
      "name": "factory",
      "outputs": [
        {
          "internalType": "address",
          "name": "",
          "type": "address"
        }
      ],
      "stateMutability": "view",
      "type": "function"
    },
    {
      "inputs": [],
      "name": "getReserves",
      "outputs": [
        {
          "internalType": "uint256",
          "name": "",
          "type": "uint256"
        },
        {
          "internalType": "uint256",
          "name": "",
          "type": "uint256"
        },
        {
          "internalType": "uint256",
          "name": "",
          "type": "uint256"
        }
      ],
      "stateMutability": "view",
      "type": "function"
    },
    {
      "inputs": [],
      "name": "kLast",
      "outputs": [
        {
          "internalType": "uint256",
          "name": "",
          "type": "uint256"
        }
      ],
      "stateMutability": "view",
      "type": "function"
    },
    {
      "inputs": [],
      "name": "liquidityProvider",
      "outputs": [
        {
          "internalType": "address",
          "name": "",
          "type": "address"
        }
      ],
      "stateMutability": "view",
      "type": "function"
    },
    {
      "inputs": [
        {
          "internalType": "uint256",
          "name": "reserve0",
          "type": "uint256"
        },
        {
          "internalType": "uint256",
          "name": "reserve1",
          "type": "uint256"
        },
        {
          "internalType": "address",
          "name": "_lp",
          "type": "address"
        }
      ],
      "name": "mint",
      "outputs": [
        {
          "internalType": "bool",
          "name": "",
          "type": "bool"
        }
      ],
      "stateMutability": "nonpayable",
      "type": "function"
    },
    {
      "inputs": [],
      "name": "priceALast",
      "outputs": [
        {
          "internalType": "uint256",
          "name": "",
          "type": "uint256"
        }
      ],
      "stateMutability": "view",
      "type": "function"
    },
    {
      "inputs": [],
      "name": "priceBLast",
      "outputs": [
        {
          "internalType": "uint256",
          "name": "",
          "type": "uint256"
        }
      ],
      "stateMutability": "view",
      "type": "function"
    },
    {
      "inputs": [
        {
          "internalType": "uint256",
          "name": "amount0In",
          "type": "uint256"
        },
        {
          "internalType": "uint256",
          "name": "amount0Out",
          "type": "uint256"
        },
        {
          "internalType": "uint256",
          "name": "amount1In",
          "type": "uint256"
        },
        {
          "internalType": "uint256",
          "name": "amount1Out",
          "type": "uint256"
        }
      ],
      "name": "swap",
      "outputs": [
        {
          "internalType": "bool",
          "name": "",
          "type": "bool"
        }
      ],
      "stateMutability": "nonpayable",
      "type": "function"
    },
    {
      "inputs": [],
      "name": "tokenA",
      "outputs": [
        {
          "internalType": "address",
          "name": "",
          "type": "address"
        }
      ],
      "stateMutability": "view",
      "type": "function"
    },
    {
      "inputs": [],
      "name": "tokenB",
      "outputs": [
        {
          "internalType": "address",
          "name": "",
          "type": "address"
        }
      ],
      "stateMutability": "view",
      "type": "function"
    },
    {
      "inputs": [
        {
          "internalType": "address",
          "name": "_address",
          "type": "address"
        },
        {
          "internalType": "uint256",
          "name": "amount",
          "type": "uint256"
        }
      ],
      "name": "transferETH",
      "outputs": [
        {
          "internalType": "bool",
          "name": "",
          "type": "bool"
        }
      ],
      "stateMutability": "nonpayable",
      "type": "function"
    },
    {
      "stateMutability": "payable",
      "type": "receive"
    }
  ],
  "bytecode": "0x608060405234801561001057600080fd5b506040516115cb3803806115cb833981810160405281019061003291906102b5565b6001600081905550600073ffffffffffffffffffffffffffffffffffffffff168373ffffffffffffffffffffffffffffffffffffffff16036100a9576040517f08c379a00000000000000000000000000000000000000000000000000000000081526004016100a090610365565b60405180910390fd5b600073ffffffffffffffffffffffffffffffffffffffff168273ffffffffffffffffffffffffffffffffffffffff1603610118576040517f08c379a000000000000000000000000000000000000000000000000000000000815260040161010f90610365565b60405180910390fd5b600073ffffffffffffffffffffffffffffffffffffffff168173ffffffffffffffffffffffffffffffffffffffff1603610187576040517f08c379a000000000000000000000000000000000000000000000000000000000815260040161017e90610365565b60405180910390fd5b82600160006101000a81548173ffffffffffffffffffffffffffffffffffffffff021916908373ffffffffffffffffffffffffffffffffffffffff16021790555081600260006101000a81548173ffffffffffffffffffffffffffffffffffffffff021916908373ffffffffffffffffffffffffffffffffffffffff16021790555080600360006101000a81548173ffffffffffffffffffffffffffffffffffffffff021916908373ffffffffffffffffffffffffffffffffffffffff160217905550505050610385565b600080fd5b600073ffffffffffffffffffffffffffffffffffffffff82169050919050565b600061028282610257565b9050919050565b61029281610277565b811461029d57600080fd5b50565b6000815190506102af81610289565b92915050565b6000806000606084860312156102ce576102cd610252565b5b60006102dc868287016102a0565b93505060206102ed868287016102a0565b92505060406102fe868287016102a0565b9150509250925092565b600082825260208201905092915050565b7f5a65726f2061646472657373657320617265206e6f7420616c6c6f7765642e00600082015250565b600061034f601f83610308565b915061035a82610319565b602082019050919050565b6000602082019050818103600083015261037e81610342565b9050919050565b611237806103946000396000f3fe6080604052600436106100ec5760003560e01c80635f64b55b1161008a578063b69ef8a811610059578063b69ef8a81461031b578063ba9a7a5614610346578063c45a015514610371578063e7d3fe6b1461039c576100f3565b80635f64b55b1461024b5780637464fc3d14610276578063749388c4146102a15780637b1a4909146102de576100f3565b80635673b02d116100c65780635673b02d1461017b5780635b8bec55146101b85780635c52a5f2146101e35780635c9d693814610220576100f3565b80630902f1ac146100f85780630e06dfc9146101255780630fc63d1014610150576100f3565b366100f357005b600080fd5b34801561010457600080fd5b5061010d6103d9565b60405161011c93929190610be7565b60405180910390f35b34801561013157600080fd5b5061013a6103fb565b6040516101479190610c1e565b60405180910390f35b34801561015c57600080fd5b50610165610418565b6040516101729190610c7a565b60405180910390f35b34801561018757600080fd5b506101a2600480360381019061019d9190610cc6565b610442565b6040516101af9190610d48565b60405180910390f35b3480156101c457600080fd5b506101cd610552565b6040516101da9190610c7a565b60405180910390f35b3480156101ef57600080fd5b5061020a60048036038101906102059190610d8f565b61057c565b6040516102179190610d48565b60405180910390f35b34801561022c57600080fd5b506102356105a8565b6040516102429190610c1e565b60405180910390f35b34801561025757600080fd5b506102606105c5565b60405161026d9190610c7a565b60405180910390f35b34801561028257600080fd5b5061028b6105ef565b6040516102989190610c1e565b60405180910390f35b3480156102ad57600080fd5b506102c860048036038101906102c39190610de2565b6105fc565b6040516102d59190610d48565b60405180910390f35b3480156102ea57600080fd5b5061030560048036038101906103009190610e35565b6107e7565b6040516103129190610d48565b60405180910390f35b34801561032757600080fd5b506103306108cd565b60405161033d9190610c1e565b60405180910390f35b34801561035257600080fd5b5061035b6108d5565b6040516103689190610c1e565b60405180910390f35b34801561037d57600080fd5b506103866108e5565b6040516103939190610c7a565b60405180910390f35b3480156103a857600080fd5b506103c360048036038101906103be9190610de2565b61090f565b6040516103d09190610d48565b60405180910390f35b6000806000600560000154600560010154600560020154925092509250909192565b60006005600101546005600001546104139190610ed3565b905090565b6000600260009054906101000a900473ffffffffffffffffffffffffffffffffffffffff16905090565b60008084866005600001546104579190610f04565b6104619190610f38565b9050600083856005600101546104779190610f04565b6104819190610f38565b9050600084866005600201546104979190610f04565b6104a19190610f38565b90506040518060a00160405280848152602001838152602001828152602001600560030154815260200142815250600560008201518160000155602082015181600101556040820151816002015560608201518160030155608082015181600401559050507f298c349c742327269dc8de6ad66687767310c948ea309df826f5bd103e19d2078888888860405161053b9493929190610f6c565b60405180910390a160019350505050949350505050565b6000600460009054906101000a900473ffffffffffffffffffffffffffffffffffffffff16905090565b6000610586610a0f565b6000610593858585610a55565b9050809150506105a1610bc4565b9392505050565b60006005600001546005600101546105c09190610ed3565b905090565b6000600360009054906101000a900473ffffffffffffffffffffffffffffffffffffffff16905090565b6000600560030154905090565b60008073ffffffffffffffffffffffffffffffffffffffff168273ffffffffffffffffffffffffffffffffffffffff160361066c576040517f08c379a00000000000000000000000000000000000000000000000000000000081526004016106639061100e565b60405180910390fd5b8173ffffffffffffffffffffffffffffffffffffffff16600460009054906101000a900473ffffffffffffffffffffffffffffffffffffffff1673ffffffffffffffffffffffffffffffffffffffff16146106fc576040517f08c379a00000000000000000000000000000000000000000000000000000000081526004016106f3906110a0565b60405180910390fd5b60008460056000015461070f9190610f38565b90506000846005600101546107249190610f38565b90506000856005600201546107399190610f38565b90506040518060a00160405280848152602001838152602001828152602001600560030154815260200142815250600560008201518160000155602082015181600101556040820151816002015560608201518160030155608082015181600401559050507f254cba6bcaacd15ef1bba85e06c1d71c8cf7a3e036ad089903ba04bad25aaccc8787876040516107d1939291906110c0565b60405180910390a1600193505050509392505050565b60008073ffffffffffffffffffffffffffffffffffffffff168373ffffffffffffffffffffffffffffffffffffffff1603610857576040517f08c379a000000000000000000000000000000000000000000000000000000000815260040161084e9061100e565b60405180910390fd5b60008373ffffffffffffffffffffffffffffffffffffffff168360405161087d90611128565b60006040518083038185875af1925050503d80600081146108ba576040519150601f19603f3d011682016040523d82523d6000602084013e6108bf565b606091505b505090508091505092915050565b600047905090565b6000670de0b6b3a7640000905090565b6000600160009054906101000a900473ffffffffffffffffffffffffffffffffffffffff16905090565b600081600460006101000a81548173ffffffffffffffffffffffffffffffffffffffff021916908373ffffffffffffffffffffffffffffffffffffffff1602179055506040518060a001604052808581526020018481526020016109716108d5565b815260200161097e6108d5565b86610989919061113d565b815260200142815250600560008201518160000155602082015181600101556040820151816002015560608201518160030155608082015181600401559050507f8334f87aeaf76e52b061d93ee968e51fdd3ad53ca04e80271249227997aab3a08484846040516109fc939291906110c0565b60405180910390a1600190509392505050565b600260005403610a4b576040517f3ee5aeb500000000000000000000000000000000000000000000000000000000815260040160405180910390fd5b6002600081905550565b60008073ffffffffffffffffffffffffffffffffffffffff168473ffffffffffffffffffffffffffffffffffffffff1603610ac5576040517f08c379a0000000000000000000000000000000000000000000000000000000008152600401610abc9061100e565b60405180910390fd5b600073ffffffffffffffffffffffffffffffffffffffff168373ffffffffffffffffffffffffffffffffffffffff1603610b34576040517f08c379a0000000000000000000000000000000000000000000000000000000008152600401610b2b9061100e565b60405180910390fd5b60008390508073ffffffffffffffffffffffffffffffffffffffff1663095ea7b386856040518363ffffffff1660e01b8152600401610b7492919061117f565b6020604051808303816000875af1158015610b93573d6000803e3d6000fd5b505050506040513d601f19601f82011682018060405250810190610bb791906111d4565b5060019150509392505050565b6001600081905550565b6000819050919050565b610be181610bce565b82525050565b6000606082019050610bfc6000830186610bd8565b610c096020830185610bd8565b610c166040830184610bd8565b949350505050565b6000602082019050610c336000830184610bd8565b92915050565b600073ffffffffffffffffffffffffffffffffffffffff82169050919050565b6000610c6482610c39565b9050919050565b610c7481610c59565b82525050565b6000602082019050610c8f6000830184610c6b565b92915050565b600080fd5b610ca381610bce565b8114610cae57600080fd5b50565b600081359050610cc081610c9a565b92915050565b60008060008060808587031215610ce057610cdf610c95565b5b6000610cee87828801610cb1565b9450506020610cff87828801610cb1565b9350506040610d1087828801610cb1565b9250506060610d2187828801610cb1565b91505092959194509250565b60008115159050919050565b610d4281610d2d565b82525050565b6000602082019050610d5d6000830184610d39565b92915050565b610d6c81610c59565b8114610d7757600080fd5b50565b600081359050610d8981610d63565b92915050565b600080600060608486031215610da857610da7610c95565b5b6000610db686828701610d7a565b9350506020610dc786828701610d7a565b9250506040610dd886828701610cb1565b9150509250925092565b600080600060608486031215610dfb57610dfa610c95565b5b6000610e0986828701610cb1565b9350506020610e1a86828701610cb1565b9250506040610e2b86828701610d7a565b9150509250925092565b60008060408385031215610e4c57610e4b610c95565b5b6000610e5a85828601610d7a565b9250506020610e6b85828601610cb1565b9150509250929050565b7f4e487b7100000000000000000000000000000000000000000000000000000000600052601260045260246000fd5b7f4e487b7100000000000000000000000000000000000000000000000000000000600052601160045260246000fd5b6000610ede82610bce565b9150610ee983610bce565b925082610ef957610ef8610e75565b5b828204905092915050565b6000610f0f82610bce565b9150610f1a83610bce565b9250828201905080821115610f3257610f31610ea4565b5b92915050565b6000610f4382610bce565b9150610f4e83610bce565b9250828203905081811115610f6657610f65610ea4565b5b92915050565b6000608082019050610f816000830187610bd8565b610f8e6020830186610bd8565b610f9b6040830185610bd8565b610fa86060830184610bd8565b95945050505050565b600082825260208201905092915050565b7f5a65726f2061646472657373657320617265206e6f7420616c6c6f7765642e00600082015250565b6000610ff8601f83610fb1565b915061100382610fc2565b602082019050919050565b6000602082019050818103600083015261102781610feb565b9050919050565b7f4f6e6c79204c7020686f6c646572732063616e2063616c6c207468697320667560008201527f6e6374696f6e2e00000000000000000000000000000000000000000000000000602082015250565b600061108a602783610fb1565b91506110958261102e565b604082019050919050565b600060208201905081810360008301526110b98161107d565b9050919050565b60006060820190506110d56000830186610bd8565b6110e26020830185610bd8565b6110ef6040830184610c6b565b949350505050565b600081905092915050565b50565b60006111126000836110f7565b915061111d82611102565b600082019050919050565b600061113382611105565b9150819050919050565b600061114882610bce565b915061115383610bce565b925082820261116181610bce565b9150828204841483151761117857611177610ea4565b5b5092915050565b60006040820190506111946000830185610c6b565b6111a16020830184610bd8565b9392505050565b6111b181610d2d565b81146111bc57600080fd5b50565b6000815190506111ce816111a8565b92915050565b6000602082840312156111ea576111e9610c95565b5b60006111f8848285016111bf565b9150509291505056fea26469706673582212200529e21dcc924a253914627c434d9868cfb4429a9e9ebf15bcfc022f7469c01664736f6c634300081c0033",
  "linkReferences": {},
  "deployedLinkReferences": {}
}